{
  "contracts/GreenItem.sol": {
    "GreenItem": {
      "abi": [
        {
          "inputs": [],
          "stateMutability": "nonpayable",
          "type": "constructor"
        },
        {
          "anonymous": false,
          "inputs": [
            {
              "indexed": true,
              "internalType": "address",
              "name": "account",
              "type": "address"
            },
            {
              "indexed": true,
              "internalType": "address",
              "name": "operator",
              "type": "address"
            },
            {
              "indexed": false,
              "internalType": "bool",
              "name": "approved",
              "type": "bool"
            }
          ],
          "name": "ApprovalForAll",
          "type": "event"
        },
        {
          "anonymous": false,
          "inputs": [
            {
              "indexed": true,
              "internalType": "address",
              "name": "operator",
              "type": "address"
            },
            {
              "indexed": true,
              "internalType": "address",
              "name": "from",
              "type": "address"
            },
            {
              "indexed": true,
              "internalType": "address",
              "name": "to",
              "type": "address"
            },
            {
              "indexed": false,
              "internalType": "uint256[]",
              "name": "ids",
              "type": "uint256[]"
            },
            {
              "indexed": false,
              "internalType": "uint256[]",
              "name": "values",
              "type": "uint256[]"
            }
          ],
          "name": "TransferBatch",
          "type": "event"
        },
        {
          "anonymous": false,
          "inputs": [
            {
              "indexed": true,
              "internalType": "address",
              "name": "operator",
              "type": "address"
            },
            {
              "indexed": true,
              "internalType": "address",
              "name": "from",
              "type": "address"
            },
            {
              "indexed": true,
              "internalType": "address",
              "name": "to",
              "type": "address"
            },
            {
              "indexed": false,
              "internalType": "uint256",
              "name": "id",
              "type": "uint256"
            },
            {
              "indexed": false,
              "internalType": "uint256",
              "name": "value",
              "type": "uint256"
            }
          ],
          "name": "TransferSingle",
          "type": "event"
        },
        {
          "anonymous": false,
          "inputs": [
            {
              "indexed": false,
              "internalType": "string",
              "name": "value",
              "type": "string"
            },
            {
              "indexed": true,
              "internalType": "uint256",
              "name": "id",
              "type": "uint256"
            }
          ],
          "name": "URI",
          "type": "event"
        },
        {
          "inputs": [],
          "name": "BLUE",
          "outputs": [
            {
              "internalType": "uint256",
              "name": "",
              "type": "uint256"
            }
          ],
          "stateMutability": "view",
          "type": "function"
        },
        {
          "inputs": [],
          "name": "BLUE2",
          "outputs": [
            {
              "internalType": "uint256",
              "name": "",
              "type": "uint256"
            }
          ],
          "stateMutability": "view",
          "type": "function"
        },
        {
          "inputs": [],
          "name": "BLUE3",
          "outputs": [
            {
              "internalType": "uint256",
              "name": "",
              "type": "uint256"
            }
          ],
          "stateMutability": "view",
          "type": "function"
        },
        {
          "inputs": [],
          "name": "Blue1to2",
          "outputs": [],
          "stateMutability": "nonpayable",
          "type": "function"
        },
        {
          "inputs": [],
          "name": "Blue2to3",
          "outputs": [],
          "stateMutability": "nonpayable",
          "type": "function"
        },
        {
          "inputs": [],
          "name": "GREEN",
          "outputs": [
            {
              "internalType": "uint256",
              "name": "",
              "type": "uint256"
            }
          ],
          "stateMutability": "view",
          "type": "function"
        },
        {
          "inputs": [],
          "name": "GREENL2",
          "outputs": [
            {
              "internalType": "uint256",
              "name": "",
              "type": "uint256"
            }
          ],
          "stateMutability": "view",
          "type": "function"
        },
        {
          "inputs": [],
          "name": "GREENL3",
          "outputs": [
            {
              "internalType": "uint256",
              "name": "",
              "type": "uint256"
            }
          ],
          "stateMutability": "view",
          "type": "function"
        },
        {
          "inputs": [],
          "name": "Green1to2",
          "outputs": [],
          "stateMutability": "nonpayable",
          "type": "function"
        },
        {
          "inputs": [],
          "name": "Green2to3",
          "outputs": [],
          "stateMutability": "nonpayable",
          "type": "function"
        },
        {
          "inputs": [],
          "name": "RECYCLER",
          "outputs": [
            {
              "internalType": "uint256",
              "name": "",
              "type": "uint256"
            }
          ],
          "stateMutability": "view",
          "type": "function"
        },
        {
          "inputs": [],
          "name": "YELLOW",
          "outputs": [
            {
              "internalType": "uint256",
              "name": "",
              "type": "uint256"
            }
          ],
          "stateMutability": "view",
          "type": "function"
        },
        {
          "inputs": [],
          "name": "YELLOWL2",
          "outputs": [
            {
              "internalType": "uint256",
              "name": "",
              "type": "uint256"
            }
          ],
          "stateMutability": "view",
          "type": "function"
        },
        {
          "inputs": [],
          "name": "YELLOWL3",
          "outputs": [
            {
              "internalType": "uint256",
              "name": "",
              "type": "uint256"
            }
          ],
          "stateMutability": "view",
          "type": "function"
        },
        {
          "inputs": [],
          "name": "Yellow1to2",
          "outputs": [],
          "stateMutability": "nonpayable",
          "type": "function"
        },
        {
          "inputs": [],
          "name": "Yellow2to3",
          "outputs": [],
          "stateMutability": "nonpayable",
          "type": "function"
        },
        {
          "inputs": [
            {
              "internalType": "address",
              "name": "account",
              "type": "address"
            },
            {
              "internalType": "uint256",
              "name": "id",
              "type": "uint256"
            }
          ],
          "name": "balanceOf",
          "outputs": [
            {
              "internalType": "uint256",
              "name": "",
              "type": "uint256"
            }
          ],
          "stateMutability": "view",
          "type": "function"
        },
        {
          "inputs": [
            {
              "internalType": "address[]",
              "name": "accounts",
              "type": "address[]"
            },
            {
              "internalType": "uint256[]",
              "name": "ids",
              "type": "uint256[]"
            }
          ],
          "name": "balanceOfBatch",
          "outputs": [
            {
              "internalType": "uint256[]",
              "name": "",
              "type": "uint256[]"
            }
          ],
          "stateMutability": "view",
          "type": "function"
        },
        {
          "inputs": [
            {
              "internalType": "address",
              "name": "account",
              "type": "address"
            },
            {
              "internalType": "uint256",
              "name": "id",
              "type": "uint256"
            },
            {
              "internalType": "uint256",
              "name": "value",
              "type": "uint256"
            }
          ],
          "name": "burn",
          "outputs": [],
          "stateMutability": "nonpayable",
          "type": "function"
        },
        {
          "inputs": [
            {
              "internalType": "address",
              "name": "account",
              "type": "address"
            },
            {
              "internalType": "uint256[]",
              "name": "ids",
              "type": "uint256[]"
            },
            {
              "internalType": "uint256[]",
              "name": "values",
              "type": "uint256[]"
            }
          ],
          "name": "burnBatch",
          "outputs": [],
          "stateMutability": "nonpayable",
          "type": "function"
        },
        {
          "inputs": [
            {
              "internalType": "address",
              "name": "account",
              "type": "address"
            },
            {
              "internalType": "address",
              "name": "operator",
              "type": "address"
            }
          ],
          "name": "isApprovedForAll",
          "outputs": [
            {
              "internalType": "bool",
              "name": "",
              "type": "bool"
            }
          ],
          "stateMutability": "view",
          "type": "function"
        },
        {
          "inputs": [],
          "name": "level_up_to_recycler",
          "outputs": [],
          "stateMutability": "nonpayable",
          "type": "function"
        },
        {
          "inputs": [
            {
              "internalType": "uint256",
              "name": "process_id",
              "type": "uint256"
            }
          ],
          "name": "recycle",
          "outputs": [],
          "stateMutability": "nonpayable",
          "type": "function"
        },
        {
          "inputs": [
            {
              "internalType": "address",
              "name": "from",
              "type": "address"
            },
            {
              "internalType": "address",
              "name": "to",
              "type": "address"
            },
            {
              "internalType": "uint256[]",
              "name": "ids",
              "type": "uint256[]"
            },
            {
              "internalType": "uint256[]",
              "name": "amounts",
              "type": "uint256[]"
            },
            {
              "internalType": "bytes",
              "name": "data",
              "type": "bytes"
            }
          ],
          "name": "safeBatchTransferFrom",
          "outputs": [],
          "stateMutability": "nonpayable",
          "type": "function"
        },
        {
          "inputs": [
            {
              "internalType": "address",
              "name": "from",
              "type": "address"
            },
            {
              "internalType": "address",
              "name": "to",
              "type": "address"
            },
            {
              "internalType": "uint256",
              "name": "id",
              "type": "uint256"
            },
            {
              "internalType": "uint256",
              "name": "amount",
              "type": "uint256"
            },
            {
              "internalType": "bytes",
              "name": "data",
              "type": "bytes"
            }
          ],
          "name": "safeTransferFrom",
          "outputs": [],
          "stateMutability": "nonpayable",
          "type": "function"
        },
        {
          "inputs": [
            {
              "internalType": "address",
              "name": "operator",
              "type": "address"
            },
            {
              "internalType": "bool",
              "name": "approved",
              "type": "bool"
            }
          ],
          "name": "setApprovalForAll",
          "outputs": [],
          "stateMutability": "nonpayable",
          "type": "function"
        },
        {
          "inputs": [
            {
              "internalType": "bytes4",
              "name": "interfaceId",
              "type": "bytes4"
            }
          ],
          "name": "supportsInterface",
          "outputs": [
            {
              "internalType": "bool",
              "name": "",
              "type": "bool"
            }
          ],
          "stateMutability": "view",
          "type": "function"
        },
        {
          "inputs": [
            {
              "internalType": "uint256",
              "name": "",
              "type": "uint256"
            }
          ],
          "name": "uri",
          "outputs": [
            {
              "internalType": "string",
              "name": "",
              "type": "string"
            }
          ],
          "stateMutability": "view",
          "type": "function"
        }
      ],
      "evm": {
        "bytecode": {
          "linkReferences": {},
          "object": "60806040523480156200001157600080fd5b506040518060400160405280601e81526020017f68747470733a2f2f6578616d706c652e6c696e6b2f7b69647d2e6a736f6e00008152506200005981620001dc60201b60201c565b506200008033600061271060405180602001604052806000815250620001f860201b60201c565b620000a633600161271060405180602001604052806000815250620001f860201b60201c565b620000cc33600261271060405180602001604052806000815250620001f860201b60201c565b620000f233600361271060405180602001604052806000815250620001f860201b60201c565b6200011833600461271060405180602001604052806000815250620001f860201b60201c565b6200013e33600561271060405180602001604052806000815250620001f860201b60201c565b6200016433600661271060405180602001604052806000815250620001f860201b60201c565b6200018a33600761271060405180602001604052806000815250620001f860201b60201c565b620001b033600861271060405180602001604052806000815250620001f860201b60201c565b620001d633600961271060405180602001604052806000815250620001f860201b60201c565b62000e39565b8060029080519060200190620001f4929190620006ee565b5050565b600073ffffffffffffffffffffffffffffffffffffffff168473ffffffffffffffffffffffffffffffffffffffff1614156200026b576040517f08c379a00000000000000000000000000000000000000000000000000000000081526004016200026290620009c6565b60405180910390fd5b60006200027d620003e060201b60201c565b905060006200029285620003e860201b60201c565b90506000620002a785620003e860201b60201c565b9050620002c083600089858589620004b160201b60201c565b8460008088815260200190815260200160002060008973ffffffffffffffffffffffffffffffffffffffff1673ffffffffffffffffffffffffffffffffffffffff168152602001908152602001600020600082825462000321919062000a57565b925050819055508673ffffffffffffffffffffffffffffffffffffffff16600073ffffffffffffffffffffffffffffffffffffffff168473ffffffffffffffffffffffffffffffffffffffff167fc3d58168c5ae7397731d063d5bbf3d657854427343f4c083240f7aacaa2d0f628989604051620003a1929190620009e8565b60405180910390a4620003c083600089858589620004b960201b60201c565b620003d783600089898989620004c160201b60201c565b50505050505050565b600033905090565b60606000600167ffffffffffffffff8111156200042e577f4e487b7100000000000000000000000000000000000000000000000000000000600052604160045260246000fd5b6040519080825280602002602001820160405280156200045d5781602001602082028036833780820191505090505b50905082816000815181106200049c577f4e487b7100000000000000000000000000000000000000000000000000000000600052603260045260246000fd5b60200260200101818152505080915050919050565b505050505050565b505050505050565b620004ed8473ffffffffffffffffffffffffffffffffffffffff16620006cb60201b6200102e1760201c565b15620006c3578373ffffffffffffffffffffffffffffffffffffffff1663f23a6e6187878686866040518663ffffffff1660e01b815260040162000536959493929190620008fa565b602060405180830381600087803b1580156200055157600080fd5b505af19250505080156200058557506040513d601f19601f82011682018060405250810190620005829190620007b5565b60015b62000637576200059462000c4d565b806308c379a01415620005f85750620005ac62000d7d565b80620005b95750620005fa565b806040517f08c379a0000000000000000000000000000000000000000000000000000000008152600401620005ef91906200095e565b60405180910390fd5b505b6040517f08c379a00000000000000000000000000000000000000000000000000000000081526004016200062e9062000982565b60405180910390fd5b63f23a6e6160e01b7bffffffffffffffffffffffffffffffffffffffffffffffffffffffff1916817bffffffffffffffffffffffffffffffffffffffffffffffffffffffff191614620006c1576040517f08c379a0000000000000000000000000000000000000000000000000000000008152600401620006b890620009a4565b60405180910390fd5b505b505050505050565b6000808273ffffffffffffffffffffffffffffffffffffffff163b119050919050565b828054620006fc9062000b54565b90600052602060002090601f0160209004810192826200072057600085556200076c565b82601f106200073b57805160ff19168380011785556200076c565b828001600101855582156200076c579182015b828111156200076b5782518255916020019190600101906200074e565b5b5090506200077b91906200077f565b5090565b5b808211156200079a57600081600090555060010162000780565b5090565b600081519050620007af8162000e1f565b92915050565b600060208284031215620007c857600080fd5b6000620007d8848285016200079e565b91505092915050565b620007ec8162000ab4565b82525050565b6000620007ff8262000a1f565b6200080b818562000a35565b93506200081d81856020860162000b1e565b620008288162000c72565b840191505092915050565b6000620008408262000a2a565b6200084c818562000a46565b93506200085e81856020860162000b1e565b620008698162000c72565b840191505092915050565b60006200088360348362000a46565b9150620008908262000c90565b604082019050919050565b6000620008aa60288362000a46565b9150620008b78262000cdf565b604082019050919050565b6000620008d160218362000a46565b9150620008de8262000d2e565b604082019050919050565b620008f48162000b14565b82525050565b600060a082019050620009116000830188620007e1565b620009206020830187620007e1565b6200092f6040830186620008e9565b6200093e6060830185620008e9565b8181036080830152620009528184620007f2565b90509695505050505050565b600060208201905081810360008301526200097a818462000833565b905092915050565b600060208201905081810360008301526200099d8162000874565b9050919050565b60006020820190508181036000830152620009bf816200089b565b9050919050565b60006020820190508181036000830152620009e181620008c2565b9050919050565b6000604082019050620009ff6000830185620008e9565b62000a0e6020830184620008e9565b9392505050565b6000604051905090565b600081519050919050565b600081519050919050565b600082825260208201905092915050565b600082825260208201905092915050565b600062000a648262000b14565b915062000a718362000b14565b9250827fffffffffffffffffffffffffffffffffffffffffffffffffffffffffffffffff0382111562000aa95762000aa862000bc0565b5b828201905092915050565b600062000ac18262000af4565b9050919050565b60007fffffffff0000000000000000000000000000000000000000000000000000000082169050919050565b600073ffffffffffffffffffffffffffffffffffffffff82169050919050565b6000819050919050565b60005b8381101562000b3e57808201518184015260208101905062000b21565b8381111562000b4e576000848401525b50505050565b6000600282049050600182168062000b6d57607f821691505b6020821081141562000b845762000b8362000bef565b5b50919050565b62000b958262000c72565b810181811067ffffffffffffffff8211171562000bb75762000bb662000c1e565b5b80604052505050565b7f4e487b7100000000000000000000000000000000000000000000000000000000600052601160045260246000fd5b7f4e487b7100000000000000000000000000000000000000000000000000000000600052602260045260246000fd5b7f4e487b7100000000000000000000000000000000000000000000000000000000600052604160045260246000fd5b600060033d111562000c6f5760046000803e62000c6c60005162000c83565b90505b90565b6000601f19601f8301169050919050565b60008160e01c9050919050565b7f455243313135353a207472616e7366657220746f206e6f6e204552433131353560008201527f526563656976657220696d706c656d656e746572000000000000000000000000602082015250565b7f455243313135353a204552433131353552656365697665722072656a6563746560008201527f6420746f6b656e73000000000000000000000000000000000000000000000000602082015250565b7f455243313135353a206d696e7420746f20746865207a65726f2061646472657360008201527f7300000000000000000000000000000000000000000000000000000000000000602082015250565b600060443d101562000d8f5762000e1c565b62000d9962000a15565b60043d036004823e80513d602482011167ffffffffffffffff8211171562000dc357505062000e1c565b808201805167ffffffffffffffff81111562000de3575050505062000e1c565b80602083010160043d03850181111562000e0257505050505062000e1c565b62000e138260200185018662000b8a565b82955050505050505b90565b62000e2a8162000ac8565b811462000e3657600080fd5b50565b613b8f8062000e496000396000f3fe608060405234801561001057600080fd5b50600436106101c35760003560e01c806379279103116100f9578063de9de0aa11610097578063ea569f0511610071578063ea569f051461045e578063ec66a2311461047c578063f242432a1461049a578063f5298aca146104b6576101c3565b8063de9de0aa1461041a578063e4308a8e14610424578063e985e9c51461042e576101c3565b8063a8aef295116100d3578063a8aef295146103a4578063c011ff64146103c2578063c755e71d146103e0578063dd1c35bc146103fe576101c3565b80637927910314610374578063a22cb4651461037e578063a5621da71461039a576101c3565b8063494f34bc11610166578063592b18b211610140578063592b18b2146102fe5780636b20c4541461031c57806372b552211461033857806378ec96a014610356576101c3565b8063494f34bc146102925780634b7c775d146102b05780634e1273f4146102ce576101c3565b80630e89341c116101a25780630e89341c1461023257806317a88aa5146102625780632311afb11461026c5780632eb2c2d614610276576101c3565b8062fdd58e146101c857806301ffc9a7146101f857806309c1ba5814610228575b600080fd5b6101e260048036038101906101dd9190612833565b6104d2565b6040516101ef919061315d565b60405180910390f35b610212600480360381019061020d919061292a565b61059b565b60405161021f9190612ea0565b60405180910390f35b61023061067d565b005b61024c6004803603810190610247919061297c565b6106f7565b6040516102599190612ebb565b60405180910390f35b61026a61078b565b005b610274610805565b005b610290600480360381019061028b919061262a565b6108c7565b005b61029a610968565b6040516102a7919061315d565b60405180910390f35b6102b861096d565b6040516102c5919061315d565b60405180910390f35b6102e860048036038101906102e391906128be565b610972565b6040516102f59190612e47565b60405180910390f35b610306610b23565b604051610313919061315d565b60405180910390f35b61033660048036038101906103319190612778565b610b28565b005b610340610bc5565b60405161034d919061315d565b60405180910390f35b61035e610bca565b60405161036b919061315d565b60405180910390f35b61037c610bcf565b005b610398600480360381019061039391906127f7565b610c49565b005b6103a2610c5f565b005b6103ac610cd9565b6040516103b9919061315d565b60405180910390f35b6103ca610cde565b6040516103d7919061315d565b60405180910390f35b6103e8610ce3565b6040516103f5919061315d565b60405180910390f35b6104186004803603810190610413919061297c565b610ce8565b005b610422610d5f565b005b61042c610dd9565b005b610448600480360381019061044391906125ee565b610e52565b6040516104559190612ea0565b60405180910390f35b610466610ee6565b604051610473919061315d565b60405180910390f35b610484610eeb565b604051610491919061315d565b60405180910390f35b6104b460048036038101906104af91906126e9565b610ef0565b005b6104d060048036038101906104cb919061286f565b610f91565b005b60008073ffffffffffffffffffffffffffffffffffffffff168373ffffffffffffffffffffffffffffffffffffffff161415610543576040517f08c379a000000000000000000000000000000000000000000000000000000000815260040161053a90612f5d565b60405180910390fd5b60008083815260200190815260200160002060008473ffffffffffffffffffffffffffffffffffffffff1673ffffffffffffffffffffffffffffffffffffffff16815260200190815260200160002054905092915050565b60007fd9b67a26000000000000000000000000000000000000000000000000000000007bffffffffffffffffffffffffffffffffffffffffffffffffffffffff1916827bffffffffffffffffffffffffffffffffffffffffffffffffffffffff1916148061066657507f0e89341c000000000000000000000000000000000000000000000000000000007bffffffffffffffffffffffffffffffffffffffffffffffffffffffff1916827bffffffffffffffffffffffffffffffffffffffffffffffffffffffff1916145b80610676575061067582611051565b5b9050919050565b600561068a3360026104d2565b10156106cb576040517f08c379a00000000000000000000000000000000000000000000000000000000081526004016106c29061303d565b60405180910390fd5b6106d83360026005610f91565b6106f53360056001604051806020016040528060008152506110bb565b565b606060028054610706906133cc565b80601f0160208091040260200160405190810160405280929190818152602001828054610732906133cc565b801561077f5780601f106107545761010080835404028352916020019161077f565b820191906000526020600020905b81548152906001019060200180831161076257829003601f168201915b50505050509050919050565b60056107983360016104d2565b10156107d9576040517f08c379a00000000000000000000000000000000000000000000000000000000081526004016107d090612f9d565b60405180910390fd5b6107e63360016005610f91565b6108033360046001604051806020016040528060008152506110bb565b565b60056108123360066104d2565b1015801561082b575060056108283360076104d2565b10155b80156108425750600561083f3360086104d2565b10155b610881576040517f08c379a000000000000000000000000000000000000000000000000000000000815260040161087890612f3d565b60405180910390fd5b61088e3360066005610f91565b61089b3360076005610f91565b6108a83360086005610f91565b6108c53360096001604051806020016040528060008152506110bb565b565b6108cf61126c565b73ffffffffffffffffffffffffffffffffffffffff168573ffffffffffffffffffffffffffffffffffffffff16148061091557506109148561090f61126c565b610e52565b5b610954576040517f08c379a000000000000000000000000000000000000000000000000000000000815260040161094b9061301d565b60405180910390fd5b6109618585858585611274565b5050505050565b600781565b600981565b606081518351146109b8576040517f08c379a00000000000000000000000000000000000000000000000000000000081526004016109af906130fd565b60405180910390fd5b6000835167ffffffffffffffff8111156109fb577f4e487b7100000000000000000000000000000000000000000000000000000000600052604160045260246000fd5b604051908082528060200260200182016040528015610a295781602001602082028036833780820191505090505b50905060005b8451811015610b1857610ac2858281518110610a74577f4e487b7100000000000000000000000000000000000000000000000000000000600052603260045260246000fd5b6020026020010151858381518110610ab5577f4e487b7100000000000000000000000000000000000000000000000000000000600052603260045260246000fd5b60200260200101516104d2565b828281518110610afb577f4e487b7100000000000000000000000000000000000000000000000000000000600052603260045260246000fd5b60200260200101818152505080610b119061342f565b9050610a2f565b508091505092915050565b600181565b610b3061126c565b73ffffffffffffffffffffffffffffffffffffffff168373ffffffffffffffffffffffffffffffffffffffff161480610b765750610b7583610b7061126c565b610e52565b5b610bb5576040517f08c379a0000000000000000000000000000000000000000000000000000000008152600401610bac90612fbd565b60405180910390fd5b610bc08383836115e2565b505050565b600881565b600081565b6005610bdc3360006104d2565b1015610c1d576040517f08c379a0000000000000000000000000000000000000000000000000000000008152600401610c149061307d565b60405180910390fd5b610c2a3360006005610f91565b610c473360036001604051806020016040528060008152506110bb565b565b610c5b610c5461126c565b83836118fd565b5050565b6005610c6c3360046104d2565b1015610cad576040517f08c379a0000000000000000000000000000000000000000000000000000000008152600401610ca4906130bd565b60405180910390fd5b610cba3360046005610f91565b610cd73360076001604051806020016040528060008152506110bb565b565b600581565b600281565b600681565b6001811415610d1357610d0e3360006001604051806020016040528060008152506110bb565b610d5c565b6002811415610d3d57610d3833600180604051806020016040528060008152506110bb565b610d5b565b610d5a3360026001604051806020016040528060008152506110bb565b5b5b50565b6005610d6c3360036104d2565b1015610dad576040517f08c379a0000000000000000000000000000000000000000000000000000000008152600401610da490612f1d565b60405180910390fd5b610dba3360036005610f91565b610dd73360066001604051806020016040528060008152506110bb565b565b6005610de63360056104d2565b1015610e27576040517f08c379a0000000000000000000000000000000000000000000000000000000008152600401610e1e90612fdd565b60405180910390fd5b610e3333600580610f91565b610e503360086001604051806020016040528060008152506110bb565b565b6000600160008473ffffffffffffffffffffffffffffffffffffffff1673ffffffffffffffffffffffffffffffffffffffff16815260200190815260200160002060008373ffffffffffffffffffffffffffffffffffffffff1673ffffffffffffffffffffffffffffffffffffffff16815260200190815260200160002060009054906101000a900460ff16905092915050565b600481565b600381565b610ef861126c565b73ffffffffffffffffffffffffffffffffffffffff168573ffffffffffffffffffffffffffffffffffffffff161480610f3e5750610f3d85610f3861126c565b610e52565b5b610f7d576040517f08c379a0000000000000000000000000000000000000000000000000000000008152600401610f7490612fbd565b60405180910390fd5b610f8a8585858585611a6a565b5050505050565b610f9961126c565b73ffffffffffffffffffffffffffffffffffffffff168373ffffffffffffffffffffffffffffffffffffffff161480610fdf5750610fde83610fd961126c565b610e52565b5b61101e576040517f08c379a000000000000000000000000000000000000000000000000000000000815260040161101590612fbd565b60405180910390fd5b611029838383611d06565b505050565b6000808273ffffffffffffffffffffffffffffffffffffffff163b119050919050565b60007f01ffc9a7000000000000000000000000000000000000000000000000000000007bffffffffffffffffffffffffffffffffffffffffffffffffffffffff1916827bffffffffffffffffffffffffffffffffffffffffffffffffffffffff1916149050919050565b600073ffffffffffffffffffffffffffffffffffffffff168473ffffffffffffffffffffffffffffffffffffffff16141561112b576040517f08c379a00000000000000000000000000000000000000000000000000000000081526004016111229061313d565b60405180910390fd5b600061113561126c565b9050600061114285611f4d565b9050600061114f85611f4d565b905061116083600089858589612013565b8460008088815260200190815260200160002060008973ffffffffffffffffffffffffffffffffffffffff1673ffffffffffffffffffffffffffffffffffffffff16815260200190815260200160002060008282546111bf91906132c0565b925050819055508673ffffffffffffffffffffffffffffffffffffffff16600073ffffffffffffffffffffffffffffffffffffffff168473ffffffffffffffffffffffffffffffffffffffff167fc3d58168c5ae7397731d063d5bbf3d657854427343f4c083240f7aacaa2d0f62898960405161123d929190613178565b60405180910390a46112548360008985858961201b565b61126383600089898989612023565b50505050505050565b600033905090565b81518351146112b8576040517f08c379a00000000000000000000000000000000000000000000000000000000081526004016112af9061311d565b60405180910390fd5b600073ffffffffffffffffffffffffffffffffffffffff168473ffffffffffffffffffffffffffffffffffffffff161415611328576040517f08c379a000000000000000000000000000000000000000000000000000000000815260040161131f90612ffd565b60405180910390fd5b600061133261126c565b9050611342818787878787612013565b60005b845181101561153f576000858281518110611389577f4e487b7100000000000000000000000000000000000000000000000000000000600052603260045260246000fd5b6020026020010151905060008583815181106113ce577f4e487b7100000000000000000000000000000000000000000000000000000000600052603260045260246000fd5b60200260200101519050600080600084815260200190815260200160002060008b73ffffffffffffffffffffffffffffffffffffffff1673ffffffffffffffffffffffffffffffffffffffff1681526020019081526020016000205490508181101561146f576040517f08c379a00000000000000000000000000000000000000000000000000000000081526004016114669061309d565b60405180910390fd5b81810360008085815260200190815260200160002060008c73ffffffffffffffffffffffffffffffffffffffff1673ffffffffffffffffffffffffffffffffffffffff168152602001908152602001600020819055508160008085815260200190815260200160002060008b73ffffffffffffffffffffffffffffffffffffffff1673ffffffffffffffffffffffffffffffffffffffff168152602001908152602001600020600082825461152491906132c0565b92505081905550505050806115389061342f565b9050611345565b508473ffffffffffffffffffffffffffffffffffffffff168673ffffffffffffffffffffffffffffffffffffffff168273ffffffffffffffffffffffffffffffffffffffff167f4a39dc06d4c0dbc64b70af90fd698a233a518aa5d07e595d983b8c0526c8f7fb87876040516115b6929190612e69565b60405180910390a46115cc81878787878761201b565b6115da81878787878761220a565b505050505050565b600073ffffffffffffffffffffffffffffffffffffffff168373ffffffffffffffffffffffffffffffffffffffff161415611652576040517f08c379a00000000000000000000000000000000000000000000000000000000081526004016116499061305d565b60405180910390fd5b8051825114611696576040517f08c379a000000000000000000000000000000000000000000000000000000000815260040161168d9061311d565b60405180910390fd5b60006116a061126c565b90506116c081856000868660405180602001604052806000815250612013565b60005b8351811015611859576000848281518110611707577f4e487b7100000000000000000000000000000000000000000000000000000000600052603260045260246000fd5b60200260200101519050600084838151811061174c577f4e487b7100000000000000000000000000000000000000000000000000000000600052603260045260246000fd5b60200260200101519050600080600084815260200190815260200160002060008973ffffffffffffffffffffffffffffffffffffffff1673ffffffffffffffffffffffffffffffffffffffff168152602001908152602001600020549050818110156117ed576040517f08c379a00000000000000000000000000000000000000000000000000000000081526004016117e490612f7d565b60405180910390fd5b81810360008085815260200190815260200160002060008a73ffffffffffffffffffffffffffffffffffffffff1673ffffffffffffffffffffffffffffffffffffffff1681526020019081526020016000208190555050505080806118519061342f565b9150506116c3565b50600073ffffffffffffffffffffffffffffffffffffffff168473ffffffffffffffffffffffffffffffffffffffff168273ffffffffffffffffffffffffffffffffffffffff167f4a39dc06d4c0dbc64b70af90fd698a233a518aa5d07e595d983b8c0526c8f7fb86866040516118d1929190612e69565b60405180910390a46118f78185600086866040518060200160405280600081525061201b565b50505050565b8173ffffffffffffffffffffffffffffffffffffffff168373ffffffffffffffffffffffffffffffffffffffff16141561196c576040517f08c379a0000000000000000000000000000000000000000000000000000000008152600401611963906130dd565b60405180910390fd5b80600160008573ffffffffffffffffffffffffffffffffffffffff1673ffffffffffffffffffffffffffffffffffffffff16815260200190815260200160002060008473ffffffffffffffffffffffffffffffffffffffff1673ffffffffffffffffffffffffffffffffffffffff16815260200190815260200160002060006101000a81548160ff0219169083151502179055508173ffffffffffffffffffffffffffffffffffffffff168373ffffffffffffffffffffffffffffffffffffffff167f17307eab39ab6107e8899845ad3d59bd9653f200f220920489ca2b5937696c3183604051611a5d9190612ea0565b60405180910390a3505050565b600073ffffffffffffffffffffffffffffffffffffffff168473ffffffffffffffffffffffffffffffffffffffff161415611ada576040517f08c379a0000000000000000000000000000000000000000000000000000000008152600401611ad190612ffd565b60405180910390fd5b6000611ae461126c565b90506000611af185611f4d565b90506000611afe85611f4d565b9050611b0e838989858589612013565b600080600088815260200190815260200160002060008a73ffffffffffffffffffffffffffffffffffffffff1673ffffffffffffffffffffffffffffffffffffffff16815260200190815260200160002054905085811015611ba5576040517f08c379a0000000000000000000000000000000000000000000000000000000008152600401611b9c9061309d565b60405180910390fd5b85810360008089815260200190815260200160002060008b73ffffffffffffffffffffffffffffffffffffffff1673ffffffffffffffffffffffffffffffffffffffff168152602001908152602001600020819055508560008089815260200190815260200160002060008a73ffffffffffffffffffffffffffffffffffffffff1673ffffffffffffffffffffffffffffffffffffffff1681526020019081526020016000206000828254611c5a91906132c0565b925050819055508773ffffffffffffffffffffffffffffffffffffffff168973ffffffffffffffffffffffffffffffffffffffff168573ffffffffffffffffffffffffffffffffffffffff167fc3d58168c5ae7397731d063d5bbf3d657854427343f4c083240f7aacaa2d0f628a8a604051611cd7929190613178565b60405180910390a4611ced848a8a86868a61201b565b611cfb848a8a8a8a8a612023565b505050505050505050565b600073ffffffffffffffffffffffffffffffffffffffff168373ffffffffffffffffffffffffffffffffffffffff161415611d76576040517f08c379a0000000000000000000000000000000000000000000000000000000008152600401611d6d9061305d565b60405180910390fd5b6000611d8061126c565b90506000611d8d84611f4d565b90506000611d9a84611f4d565b9050611dba83876000858560405180602001604052806000815250612013565b600080600087815260200190815260200160002060008873ffffffffffffffffffffffffffffffffffffffff1673ffffffffffffffffffffffffffffffffffffffff16815260200190815260200160002054905084811015611e51576040517f08c379a0000000000000000000000000000000000000000000000000000000008152600401611e4890612f7d565b60405180910390fd5b84810360008088815260200190815260200160002060008973ffffffffffffffffffffffffffffffffffffffff1673ffffffffffffffffffffffffffffffffffffffff16815260200190815260200160002081905550600073ffffffffffffffffffffffffffffffffffffffff168773ffffffffffffffffffffffffffffffffffffffff168573ffffffffffffffffffffffffffffffffffffffff167fc3d58168c5ae7397731d063d5bbf3d657854427343f4c083240f7aacaa2d0f628989604051611f1e929190613178565b60405180910390a4611f448488600086866040518060200160405280600081525061201b565b50505050505050565b60606000600167ffffffffffffffff811115611f92577f4e487b7100000000000000000000000000000000000000000000000000000000600052604160045260246000fd5b604051908082528060200260200182016040528015611fc05781602001602082028036833780820191505090505b5090508281600081518110611ffe577f4e487b7100000000000000000000000000000000000000000000000000000000600052603260045260246000fd5b60200260200101818152505080915050919050565b505050505050565b505050505050565b6120428473ffffffffffffffffffffffffffffffffffffffff1661102e565b15612202578373ffffffffffffffffffffffffffffffffffffffff1663f23a6e6187878686866040518663ffffffff1660e01b8152600401612088959493929190612ded565b602060405180830381600087803b1580156120a257600080fd5b505af19250505080156120d357506040513d601f19601f820116820180604052508101906120d09190612953565b60015b612179576120df613505565b806308c379a0141561213c57506120f4613a67565b806120ff575061213e565b806040517f08c379a00000000000000000000000000000000000000000000000000000000081526004016121339190612ebb565b60405180910390fd5b505b6040517f08c379a000000000000000000000000000000000000000000000000000000000815260040161217090612edd565b60405180910390fd5b63f23a6e6160e01b7bffffffffffffffffffffffffffffffffffffffffffffffffffffffff1916817bffffffffffffffffffffffffffffffffffffffffffffffffffffffff191614612200576040517f08c379a00000000000000000000000000000000000000000000000000000000081526004016121f790612efd565b60405180910390fd5b505b505050505050565b6122298473ffffffffffffffffffffffffffffffffffffffff1661102e565b156123e9578373ffffffffffffffffffffffffffffffffffffffff1663bc197c8187878686866040518663ffffffff1660e01b815260040161226f959493929190612d85565b602060405180830381600087803b15801561228957600080fd5b505af19250505080156122ba57506040513d601f19601f820116820180604052508101906122b79190612953565b60015b612360576122c6613505565b806308c379a0141561232357506122db613a67565b806122e65750612325565b806040517f08c379a000000000000000000000000000000000000000000000000000000000815260040161231a9190612ebb565b60405180910390fd5b505b6040517f08c379a000000000000000000000000000000000000000000000000000000000815260040161235790612edd565b60405180910390fd5b63bc197c8160e01b7bffffffffffffffffffffffffffffffffffffffffffffffffffffffff1916817bffffffffffffffffffffffffffffffffffffffffffffffffffffffff1916146123e7576040517f08c379a00000000000000000000000000000000000000000000000000000000081526004016123de90612efd565b60405180910390fd5b505b505050505050565b60006124046123ff846131c6565b6131a1565b9050808382526020820190508285602086028201111561242357600080fd5b60005b8581101561245357816124398882612507565b845260208401935060208301925050600181019050612426565b5050509392505050565b600061247061246b846131f2565b6131a1565b9050808382526020820190508285602086028201111561248f57600080fd5b60005b858110156124bf57816124a588826125d9565b845260208401935060208301925050600181019050612492565b5050509392505050565b60006124dc6124d78461321e565b6131a1565b9050828152602081018484840111156124f457600080fd5b6124ff84828561338a565b509392505050565b60008135905061251681613afd565b92915050565b600082601f83011261252d57600080fd5b813561253d8482602086016123f1565b91505092915050565b600082601f83011261255757600080fd5b813561256784826020860161245d565b91505092915050565b60008135905061257f81613b14565b92915050565b60008135905061259481613b2b565b92915050565b6000815190506125a981613b2b565b92915050565b600082601f8301126125c057600080fd5b81356125d08482602086016124c9565b91505092915050565b6000813590506125e881613b42565b92915050565b6000806040838503121561260157600080fd5b600061260f85828601612507565b925050602061262085828601612507565b9150509250929050565b600080600080600060a0868803121561264257600080fd5b600061265088828901612507565b955050602061266188828901612507565b945050604086013567ffffffffffffffff81111561267e57600080fd5b61268a88828901612546565b935050606086013567ffffffffffffffff8111156126a757600080fd5b6126b388828901612546565b925050608086013567ffffffffffffffff8111156126d057600080fd5b6126dc888289016125af565b9150509295509295909350565b600080600080600060a0868803121561270157600080fd5b600061270f88828901612507565b955050602061272088828901612507565b9450506040612731888289016125d9565b9350506060612742888289016125d9565b925050608086013567ffffffffffffffff81111561275f57600080fd5b61276b888289016125af565b9150509295509295909350565b60008060006060848603121561278d57600080fd5b600061279b86828701612507565b935050602084013567ffffffffffffffff8111156127b857600080fd5b6127c486828701612546565b925050604084013567ffffffffffffffff8111156127e157600080fd5b6127ed86828701612546565b9150509250925092565b6000806040838503121561280a57600080fd5b600061281885828601612507565b925050602061282985828601612570565b9150509250929050565b6000806040838503121561284657600080fd5b600061285485828601612507565b9250506020612865858286016125d9565b9150509250929050565b60008060006060848603121561288457600080fd5b600061289286828701612507565b93505060206128a3868287016125d9565b92505060406128b4868287016125d9565b9150509250925092565b600080604083850312156128d157600080fd5b600083013567ffffffffffffffff8111156128eb57600080fd5b6128f78582860161251c565b925050602083013567ffffffffffffffff81111561291457600080fd5b61292085828601612546565b9150509250929050565b60006020828403121561293c57600080fd5b600061294a84828501612585565b91505092915050565b60006020828403121561296557600080fd5b60006129738482850161259a565b91505092915050565b60006020828403121561298e57600080fd5b600061299c848285016125d9565b91505092915050565b60006129b18383612d67565b60208301905092915050565b6129c681613316565b82525050565b60006129d78261325f565b6129e1818561328d565b93506129ec8361324f565b8060005b83811015612a1d578151612a0488826129a5565b9750612a0f83613280565b9250506001810190506129f0565b5085935050505092915050565b612a3381613328565b82525050565b6000612a448261326a565b612a4e818561329e565b9350612a5e818560208601613399565b612a6781613527565b840191505092915050565b6000612a7d82613275565b612a8781856132af565b9350612a97818560208601613399565b612aa081613527565b840191505092915050565b6000612ab86034836132af565b9150612ac382613545565b604082019050919050565b6000612adb6028836132af565b9150612ae682613594565b604082019050919050565b6000612afe6018836132af565b9150612b09826135e3565b602082019050919050565b6000612b216011836132af565b9150612b2c8261360c565b602082019050919050565b6000612b44602b836132af565b9150612b4f82613635565b604082019050919050565b6000612b676024836132af565b9150612b7282613684565b604082019050919050565b6000612b8a6018836132af565b9150612b95826136d3565b602082019050919050565b6000612bad6029836132af565b9150612bb8826136fc565b604082019050919050565b6000612bd06017836132af565b9150612bdb8261374b565b602082019050919050565b6000612bf36025836132af565b9150612bfe82613774565b604082019050919050565b6000612c166032836132af565b9150612c21826137c3565b604082019050919050565b6000612c396016836132af565b9150612c4482613812565b602082019050919050565b6000612c5c6023836132af565b9150612c678261383b565b604082019050919050565b6000612c7f6017836132af565b9150612c8a8261388a565b602082019050919050565b6000612ca2602a836132af565b9150612cad826138b3565b604082019050919050565b6000612cc56019836132af565b9150612cd082613902565b602082019050919050565b6000612ce86029836132af565b9150612cf38261392b565b604082019050919050565b6000612d0b6029836132af565b9150612d168261397a565b604082019050919050565b6000612d2e6028836132af565b9150612d39826139c9565b604082019050919050565b6000612d516021836132af565b9150612d5c82613a18565b604082019050919050565b612d7081613380565b82525050565b612d7f81613380565b82525050565b600060a082019050612d9a60008301886129bd565b612da760208301876129bd565b8181036040830152612db981866129cc565b90508181036060830152612dcd81856129cc565b90508181036080830152612de18184612a39565b90509695505050505050565b600060a082019050612e0260008301886129bd565b612e0f60208301876129bd565b612e1c6040830186612d76565b612e296060830185612d76565b8181036080830152612e3b8184612a39565b90509695505050505050565b60006020820190508181036000830152612e6181846129cc565b905092915050565b60006040820190508181036000830152612e8381856129cc565b90508181036020830152612e9781846129cc565b90509392505050565b6000602082019050612eb56000830184612a2a565b92915050565b60006020820190508181036000830152612ed58184612a72565b905092915050565b60006020820190508181036000830152612ef681612aab565b9050919050565b60006020820190508181036000830152612f1681612ace565b9050919050565b60006020820190508181036000830152612f3681612af1565b9050919050565b60006020820190508181036000830152612f5681612b14565b9050919050565b60006020820190508181036000830152612f7681612b37565b9050919050565b60006020820190508181036000830152612f9681612b5a565b9050919050565b60006020820190508181036000830152612fb681612b7d565b9050919050565b60006020820190508181036000830152612fd681612ba0565b9050919050565b60006020820190508181036000830152612ff681612bc3565b9050919050565b6000602082019050818103600083015261301681612be6565b9050919050565b6000602082019050818103600083015261303681612c09565b9050919050565b6000602082019050818103600083015261305681612c2c565b9050919050565b6000602082019050818103600083015261307681612c4f565b9050919050565b6000602082019050818103600083015261309681612c72565b9050919050565b600060208201905081810360008301526130b681612c95565b9050919050565b600060208201905081810360008301526130d681612cb8565b9050919050565b600060208201905081810360008301526130f681612cdb565b9050919050565b6000602082019050818103600083015261311681612cfe565b9050919050565b6000602082019050818103600083015261313681612d21565b9050919050565b6000602082019050818103600083015261315681612d44565b9050919050565b60006020820190506131726000830184612d76565b92915050565b600060408201905061318d6000830185612d76565b61319a6020830184612d76565b9392505050565b60006131ab6131bc565b90506131b782826133fe565b919050565b6000604051905090565b600067ffffffffffffffff8211156131e1576131e06134d6565b5b602082029050602081019050919050565b600067ffffffffffffffff82111561320d5761320c6134d6565b5b602082029050602081019050919050565b600067ffffffffffffffff821115613239576132386134d6565b5b61324282613527565b9050602081019050919050565b6000819050602082019050919050565b600081519050919050565b600081519050919050565b600081519050919050565b6000602082019050919050565b600082825260208201905092915050565b600082825260208201905092915050565b600082825260208201905092915050565b60006132cb82613380565b91506132d683613380565b9250827fffffffffffffffffffffffffffffffffffffffffffffffffffffffffffffffff0382111561330b5761330a613478565b5b828201905092915050565b600061332182613360565b9050919050565b60008115159050919050565b60007fffffffff0000000000000000000000000000000000000000000000000000000082169050919050565b600073ffffffffffffffffffffffffffffffffffffffff82169050919050565b6000819050919050565b82818337600083830152505050565b60005b838110156133b757808201518184015260208101905061339c565b838111156133c6576000848401525b50505050565b600060028204905060018216806133e457607f821691505b602082108114156133f8576133f76134a7565b5b50919050565b61340782613527565b810181811067ffffffffffffffff82111715613426576134256134d6565b5b80604052505050565b600061343a82613380565b91507fffffffffffffffffffffffffffffffffffffffffffffffffffffffffffffffff82141561346d5761346c613478565b5b600182019050919050565b7f4e487b7100000000000000000000000000000000000000000000000000000000600052601160045260246000fd5b7f4e487b7100000000000000000000000000000000000000000000000000000000600052602260045260246000fd5b7f4e487b7100000000000000000000000000000000000000000000000000000000600052604160045260246000fd5b600060033d11156135245760046000803e613521600051613538565b90505b90565b6000601f19601f8301169050919050565b60008160e01c9050919050565b7f455243313135353a207472616e7366657220746f206e6f6e204552433131353560008201527f526563656976657220696d706c656d656e746572000000000000000000000000602082015250565b7f455243313135353a204552433131353552656365697665722072656a6563746560008201527f6420746f6b656e73000000000000000000000000000000000000000000000000602082015250565b7f4e6f7420656e6f75676820677265656e3220746f6b656e210000000000000000600082015250565b7f6e6f7420656e6f75676820546f6b656e21000000000000000000000000000000600082015250565b7f455243313135353a2062616c616e636520717565727920666f7220746865207a60008201527f65726f2061646472657373000000000000000000000000000000000000000000602082015250565b7f455243313135353a206275726e20616d6f756e7420657863656564732062616c60008201527f616e636500000000000000000000000000000000000000000000000000000000602082015250565b7f4e6f7420656e6f7567682079656c6c6f7720746f6b656e210000000000000000600082015250565b7f455243313135353a2063616c6c6572206973206e6f74206f776e6572206e6f7260008201527f20617070726f7665640000000000000000000000000000000000000000000000602082015250565b7f4e6f7420656e6f75676820626c75653220746f6b656e21000000000000000000600082015250565b7f455243313135353a207472616e7366657220746f20746865207a65726f20616460008201527f6472657373000000000000000000000000000000000000000000000000000000602082015250565b7f455243313135353a207472616e736665722063616c6c6572206973206e6f742060008201527f6f776e6572206e6f7220617070726f7665640000000000000000000000000000602082015250565b7f4e6f7420656e6f75676820626c756520746f6b656e2100000000000000000000600082015250565b7f455243313135353a206275726e2066726f6d20746865207a65726f206164647260008201527f6573730000000000000000000000000000000000000000000000000000000000602082015250565b7f4e6f7420656e6f75676820677265656e20746f6b656e21000000000000000000600082015250565b7f455243313135353a20696e73756666696369656e742062616c616e636520666f60008201527f72207472616e7366657200000000000000000000000000000000000000000000602082015250565b7f4e6f7420656e6f7567682079656c6c6f773220746f6b656e2100000000000000600082015250565b7f455243313135353a2073657474696e6720617070726f76616c2073746174757360008201527f20666f722073656c660000000000000000000000000000000000000000000000602082015250565b7f455243313135353a206163636f756e747320616e6420696473206c656e67746860008201527f206d69736d617463680000000000000000000000000000000000000000000000602082015250565b7f455243313135353a2069647320616e6420616d6f756e7473206c656e6774682060008201527f6d69736d61746368000000000000000000000000000000000000000000000000602082015250565b7f455243313135353a206d696e7420746f20746865207a65726f2061646472657360008201527f7300000000000000000000000000000000000000000000000000000000000000602082015250565b600060443d1015613a7757613afa565b613a7f6131bc565b60043d036004823e80513d602482011167ffffffffffffffff82111715613aa7575050613afa565b808201805167ffffffffffffffff811115613ac55750505050613afa565b80602083010160043d038501811115613ae2575050505050613afa565b613af1826020018501866133fe565b82955050505050505b90565b613b0681613316565b8114613b1157600080fd5b50565b613b1d81613328565b8114613b2857600080fd5b50565b613b3481613334565b8114613b3f57600080fd5b50565b613b4b81613380565b8114613b5657600080fd5b5056fea2646970667358221220ae5cb495b68d0410be8ad908726ec01ae93f061195d47277d672d361051fb54064736f6c63430008040033",
          "opcodes": "PUSH1 0x80 PUSH1 0x40 MSTORE CALLVALUE DUP1 ISZERO PUSH3 0x11 JUMPI PUSH1 0x0 DUP1 REVERT JUMPDEST POP PUSH1 0x40 MLOAD DUP1 PUSH1 0x40 ADD PUSH1 0x40 MSTORE DUP1 PUSH1 0x1E DUP2 MSTORE PUSH1 0x20 ADD PUSH32 0x68747470733A2F2F6578616D706C652E6C696E6B2F7B69647D2E6A736F6E0000 DUP2 MSTORE POP PUSH3 0x59 DUP2 PUSH3 0x1DC PUSH1 0x20 SHL PUSH1 0x20 SHR JUMP JUMPDEST POP PUSH3 0x80 CALLER PUSH1 0x0 PUSH2 0x2710 PUSH1 0x40 MLOAD DUP1 PUSH1 0x20 ADD PUSH1 0x40 MSTORE DUP1 PUSH1 0x0 DUP2 MSTORE POP PUSH3 0x1F8 PUSH1 0x20 SHL PUSH1 0x20 SHR JUMP JUMPDEST PUSH3 0xA6 CALLER PUSH1 0x1 PUSH2 0x2710 PUSH1 0x40 MLOAD DUP1 PUSH1 0x20 ADD PUSH1 0x40 MSTORE DUP1 PUSH1 0x0 DUP2 MSTORE POP PUSH3 0x1F8 PUSH1 0x20 SHL PUSH1 0x20 SHR JUMP JUMPDEST PUSH3 0xCC CALLER PUSH1 0x2 PUSH2 0x2710 PUSH1 0x40 MLOAD DUP1 PUSH1 0x20 ADD PUSH1 0x40 MSTORE DUP1 PUSH1 0x0 DUP2 MSTORE POP PUSH3 0x1F8 PUSH1 0x20 SHL PUSH1 0x20 SHR JUMP JUMPDEST PUSH3 0xF2 CALLER PUSH1 0x3 PUSH2 0x2710 PUSH1 0x40 MLOAD DUP1 PUSH1 0x20 ADD PUSH1 0x40 MSTORE DUP1 PUSH1 0x0 DUP2 MSTORE POP PUSH3 0x1F8 PUSH1 0x20 SHL PUSH1 0x20 SHR JUMP JUMPDEST PUSH3 0x118 CALLER PUSH1 0x4 PUSH2 0x2710 PUSH1 0x40 MLOAD DUP1 PUSH1 0x20 ADD PUSH1 0x40 MSTORE DUP1 PUSH1 0x0 DUP2 MSTORE POP PUSH3 0x1F8 PUSH1 0x20 SHL PUSH1 0x20 SHR JUMP JUMPDEST PUSH3 0x13E CALLER PUSH1 0x5 PUSH2 0x2710 PUSH1 0x40 MLOAD DUP1 PUSH1 0x20 ADD PUSH1 0x40 MSTORE DUP1 PUSH1 0x0 DUP2 MSTORE POP PUSH3 0x1F8 PUSH1 0x20 SHL PUSH1 0x20 SHR JUMP JUMPDEST PUSH3 0x164 CALLER PUSH1 0x6 PUSH2 0x2710 PUSH1 0x40 MLOAD DUP1 PUSH1 0x20 ADD PUSH1 0x40 MSTORE DUP1 PUSH1 0x0 DUP2 MSTORE POP PUSH3 0x1F8 PUSH1 0x20 SHL PUSH1 0x20 SHR JUMP JUMPDEST PUSH3 0x18A CALLER PUSH1 0x7 PUSH2 0x2710 PUSH1 0x40 MLOAD DUP1 PUSH1 0x20 ADD PUSH1 0x40 MSTORE DUP1 PUSH1 0x0 DUP2 MSTORE POP PUSH3 0x1F8 PUSH1 0x20 SHL PUSH1 0x20 SHR JUMP JUMPDEST PUSH3 0x1B0 CALLER PUSH1 0x8 PUSH2 0x2710 PUSH1 0x40 MLOAD DUP1 PUSH1 0x20 ADD PUSH1 0x40 MSTORE DUP1 PUSH1 0x0 DUP2 MSTORE POP PUSH3 0x1F8 PUSH1 0x20 SHL PUSH1 0x20 SHR JUMP JUMPDEST PUSH3 0x1D6 CALLER PUSH1 0x9 PUSH2 0x2710 PUSH1 0x40 MLOAD DUP1 PUSH1 0x20 ADD PUSH1 0x40 MSTORE DUP1 PUSH1 0x0 DUP2 MSTORE POP PUSH3 0x1F8 PUSH1 0x20 SHL PUSH1 0x20 SHR JUMP JUMPDEST PUSH3 0xE39 JUMP JUMPDEST DUP1 PUSH1 0x2 SWAP1 DUP1 MLOAD SWAP1 PUSH1 0x20 ADD SWAP1 PUSH3 0x1F4 SWAP3 SWAP2 SWAP1 PUSH3 0x6EE JUMP JUMPDEST POP POP JUMP JUMPDEST PUSH1 0x0 PUSH20 0xFFFFFFFFFFFFFFFFFFFFFFFFFFFFFFFFFFFFFFFF AND DUP5 PUSH20 0xFFFFFFFFFFFFFFFFFFFFFFFFFFFFFFFFFFFFFFFF AND EQ ISZERO PUSH3 0x26B JUMPI PUSH1 0x40 MLOAD PUSH32 0x8C379A000000000000000000000000000000000000000000000000000000000 DUP2 MSTORE PUSH1 0x4 ADD PUSH3 0x262 SWAP1 PUSH3 0x9C6 JUMP JUMPDEST PUSH1 0x40 MLOAD DUP1 SWAP2 SUB SWAP1 REVERT JUMPDEST PUSH1 0x0 PUSH3 0x27D PUSH3 0x3E0 PUSH1 0x20 SHL PUSH1 0x20 SHR JUMP JUMPDEST SWAP1 POP PUSH1 0x0 PUSH3 0x292 DUP6 PUSH3 0x3E8 PUSH1 0x20 SHL PUSH1 0x20 SHR JUMP JUMPDEST SWAP1 POP PUSH1 0x0 PUSH3 0x2A7 DUP6 PUSH3 0x3E8 PUSH1 0x20 SHL PUSH1 0x20 SHR JUMP JUMPDEST SWAP1 POP PUSH3 0x2C0 DUP4 PUSH1 0x0 DUP10 DUP6 DUP6 DUP10 PUSH3 0x4B1 PUSH1 0x20 SHL PUSH1 0x20 SHR JUMP JUMPDEST DUP5 PUSH1 0x0 DUP1 DUP9 DUP2 MSTORE PUSH1 0x20 ADD SWAP1 DUP2 MSTORE PUSH1 0x20 ADD PUSH1 0x0 KECCAK256 PUSH1 0x0 DUP10 PUSH20 0xFFFFFFFFFFFFFFFFFFFFFFFFFFFFFFFFFFFFFFFF AND PUSH20 0xFFFFFFFFFFFFFFFFFFFFFFFFFFFFFFFFFFFFFFFF AND DUP2 MSTORE PUSH1 0x20 ADD SWAP1 DUP2 MSTORE PUSH1 0x20 ADD PUSH1 0x0 KECCAK256 PUSH1 0x0 DUP3 DUP3 SLOAD PUSH3 0x321 SWAP2 SWAP1 PUSH3 0xA57 JUMP JUMPDEST SWAP3 POP POP DUP2 SWAP1 SSTORE POP DUP7 PUSH20 0xFFFFFFFFFFFFFFFFFFFFFFFFFFFFFFFFFFFFFFFF AND PUSH1 0x0 PUSH20 0xFFFFFFFFFFFFFFFFFFFFFFFFFFFFFFFFFFFFFFFF AND DUP5 PUSH20 0xFFFFFFFFFFFFFFFFFFFFFFFFFFFFFFFFFFFFFFFF AND PUSH32 0xC3D58168C5AE7397731D063D5BBF3D657854427343F4C083240F7AACAA2D0F62 DUP10 DUP10 PUSH1 0x40 MLOAD PUSH3 0x3A1 SWAP3 SWAP2 SWAP1 PUSH3 0x9E8 JUMP JUMPDEST PUSH1 0x40 MLOAD DUP1 SWAP2 SUB SWAP1 LOG4 PUSH3 0x3C0 DUP4 PUSH1 0x0 DUP10 DUP6 DUP6 DUP10 PUSH3 0x4B9 PUSH1 0x20 SHL PUSH1 0x20 SHR JUMP JUMPDEST PUSH3 0x3D7 DUP4 PUSH1 0x0 DUP10 DUP10 DUP10 DUP10 PUSH3 0x4C1 PUSH1 0x20 SHL PUSH1 0x20 SHR JUMP JUMPDEST POP POP POP POP POP POP POP JUMP JUMPDEST PUSH1 0x0 CALLER SWAP1 POP SWAP1 JUMP JUMPDEST PUSH1 0x60 PUSH1 0x0 PUSH1 0x1 PUSH8 0xFFFFFFFFFFFFFFFF DUP2 GT ISZERO PUSH3 0x42E JUMPI PUSH32 0x4E487B7100000000000000000000000000000000000000000000000000000000 PUSH1 0x0 MSTORE PUSH1 0x41 PUSH1 0x4 MSTORE PUSH1 0x24 PUSH1 0x0 REVERT JUMPDEST PUSH1 0x40 MLOAD SWAP1 DUP1 DUP3 MSTORE DUP1 PUSH1 0x20 MUL PUSH1 0x20 ADD DUP3 ADD PUSH1 0x40 MSTORE DUP1 ISZERO PUSH3 0x45D JUMPI DUP2 PUSH1 0x20 ADD PUSH1 0x20 DUP3 MUL DUP1 CALLDATASIZE DUP4 CALLDATACOPY DUP1 DUP3 ADD SWAP2 POP POP SWAP1 POP JUMPDEST POP SWAP1 POP DUP3 DUP2 PUSH1 0x0 DUP2 MLOAD DUP2 LT PUSH3 0x49C JUMPI PUSH32 0x4E487B7100000000000000000000000000000000000000000000000000000000 PUSH1 0x0 MSTORE PUSH1 0x32 PUSH1 0x4 MSTORE PUSH1 0x24 PUSH1 0x0 REVERT JUMPDEST PUSH1 0x20 MUL PUSH1 0x20 ADD ADD DUP2 DUP2 MSTORE POP POP DUP1 SWAP2 POP POP SWAP2 SWAP1 POP JUMP JUMPDEST POP POP POP POP POP POP JUMP JUMPDEST POP POP POP POP POP POP JUMP JUMPDEST PUSH3 0x4ED DUP5 PUSH20 0xFFFFFFFFFFFFFFFFFFFFFFFFFFFFFFFFFFFFFFFF AND PUSH3 0x6CB PUSH1 0x20 SHL PUSH3 0x102E OR PUSH1 0x20 SHR JUMP JUMPDEST ISZERO PUSH3 0x6C3 JUMPI DUP4 PUSH20 0xFFFFFFFFFFFFFFFFFFFFFFFFFFFFFFFFFFFFFFFF AND PUSH4 0xF23A6E61 DUP8 DUP8 DUP7 DUP7 DUP7 PUSH1 0x40 MLOAD DUP7 PUSH4 0xFFFFFFFF AND PUSH1 0xE0 SHL DUP2 MSTORE PUSH1 0x4 ADD PUSH3 0x536 SWAP6 SWAP5 SWAP4 SWAP3 SWAP2 SWAP1 PUSH3 0x8FA JUMP JUMPDEST PUSH1 0x20 PUSH1 0x40 MLOAD DUP1 DUP4 SUB DUP2 PUSH1 0x0 DUP8 DUP1 EXTCODESIZE ISZERO DUP1 ISZERO PUSH3 0x551 JUMPI PUSH1 0x0 DUP1 REVERT JUMPDEST POP GAS CALL SWAP3 POP POP POP DUP1 ISZERO PUSH3 0x585 JUMPI POP PUSH1 0x40 MLOAD RETURNDATASIZE PUSH1 0x1F NOT PUSH1 0x1F DUP3 ADD AND DUP3 ADD DUP1 PUSH1 0x40 MSTORE POP DUP2 ADD SWAP1 PUSH3 0x582 SWAP2 SWAP1 PUSH3 0x7B5 JUMP JUMPDEST PUSH1 0x1 JUMPDEST PUSH3 0x637 JUMPI PUSH3 0x594 PUSH3 0xC4D JUMP JUMPDEST DUP1 PUSH4 0x8C379A0 EQ ISZERO PUSH3 0x5F8 JUMPI POP PUSH3 0x5AC PUSH3 0xD7D JUMP JUMPDEST DUP1 PUSH3 0x5B9 JUMPI POP PUSH3 0x5FA JUMP JUMPDEST DUP1 PUSH1 0x40 MLOAD PUSH32 0x8C379A000000000000000000000000000000000000000000000000000000000 DUP2 MSTORE PUSH1 0x4 ADD PUSH3 0x5EF SWAP2 SWAP1 PUSH3 0x95E JUMP JUMPDEST PUSH1 0x40 MLOAD DUP1 SWAP2 SUB SWAP1 REVERT JUMPDEST POP JUMPDEST PUSH1 0x40 MLOAD PUSH32 0x8C379A000000000000000000000000000000000000000000000000000000000 DUP2 MSTORE PUSH1 0x4 ADD PUSH3 0x62E SWAP1 PUSH3 0x982 JUMP JUMPDEST PUSH1 0x40 MLOAD DUP1 SWAP2 SUB SWAP1 REVERT JUMPDEST PUSH4 0xF23A6E61 PUSH1 0xE0 SHL PUSH28 0xFFFFFFFFFFFFFFFFFFFFFFFFFFFFFFFFFFFFFFFFFFFFFFFFFFFFFFFF NOT AND DUP2 PUSH28 0xFFFFFFFFFFFFFFFFFFFFFFFFFFFFFFFFFFFFFFFFFFFFFFFFFFFFFFFF NOT AND EQ PUSH3 0x6C1 JUMPI PUSH1 0x40 MLOAD PUSH32 0x8C379A000000000000000000000000000000000000000000000000000000000 DUP2 MSTORE PUSH1 0x4 ADD PUSH3 0x6B8 SWAP1 PUSH3 0x9A4 JUMP JUMPDEST PUSH1 0x40 MLOAD DUP1 SWAP2 SUB SWAP1 REVERT JUMPDEST POP JUMPDEST POP POP POP POP POP POP JUMP JUMPDEST PUSH1 0x0 DUP1 DUP3 PUSH20 0xFFFFFFFFFFFFFFFFFFFFFFFFFFFFFFFFFFFFFFFF AND EXTCODESIZE GT SWAP1 POP SWAP2 SWAP1 POP JUMP JUMPDEST DUP3 DUP1 SLOAD PUSH3 0x6FC SWAP1 PUSH3 0xB54 JUMP JUMPDEST SWAP1 PUSH1 0x0 MSTORE PUSH1 0x20 PUSH1 0x0 KECCAK256 SWAP1 PUSH1 0x1F ADD PUSH1 0x20 SWAP1 DIV DUP2 ADD SWAP3 DUP3 PUSH3 0x720 JUMPI PUSH1 0x0 DUP6 SSTORE PUSH3 0x76C JUMP JUMPDEST DUP3 PUSH1 0x1F LT PUSH3 0x73B JUMPI DUP1 MLOAD PUSH1 0xFF NOT AND DUP4 DUP1 ADD OR DUP6 SSTORE PUSH3 0x76C JUMP JUMPDEST DUP3 DUP1 ADD PUSH1 0x1 ADD DUP6 SSTORE DUP3 ISZERO PUSH3 0x76C JUMPI SWAP2 DUP3 ADD JUMPDEST DUP3 DUP2 GT ISZERO PUSH3 0x76B JUMPI DUP3 MLOAD DUP3 SSTORE SWAP2 PUSH1 0x20 ADD SWAP2 SWAP1 PUSH1 0x1 ADD SWAP1 PUSH3 0x74E JUMP JUMPDEST JUMPDEST POP SWAP1 POP PUSH3 0x77B SWAP2 SWAP1 PUSH3 0x77F JUMP JUMPDEST POP SWAP1 JUMP JUMPDEST JUMPDEST DUP1 DUP3 GT ISZERO PUSH3 0x79A JUMPI PUSH1 0x0 DUP2 PUSH1 0x0 SWAP1 SSTORE POP PUSH1 0x1 ADD PUSH3 0x780 JUMP JUMPDEST POP SWAP1 JUMP JUMPDEST PUSH1 0x0 DUP2 MLOAD SWAP1 POP PUSH3 0x7AF DUP2 PUSH3 0xE1F JUMP JUMPDEST SWAP3 SWAP2 POP POP JUMP JUMPDEST PUSH1 0x0 PUSH1 0x20 DUP3 DUP5 SUB SLT ISZERO PUSH3 0x7C8 JUMPI PUSH1 0x0 DUP1 REVERT JUMPDEST PUSH1 0x0 PUSH3 0x7D8 DUP5 DUP3 DUP6 ADD PUSH3 0x79E JUMP JUMPDEST SWAP2 POP POP SWAP3 SWAP2 POP POP JUMP JUMPDEST PUSH3 0x7EC DUP2 PUSH3 0xAB4 JUMP JUMPDEST DUP3 MSTORE POP POP JUMP JUMPDEST PUSH1 0x0 PUSH3 0x7FF DUP3 PUSH3 0xA1F JUMP JUMPDEST PUSH3 0x80B DUP2 DUP6 PUSH3 0xA35 JUMP JUMPDEST SWAP4 POP PUSH3 0x81D DUP2 DUP6 PUSH1 0x20 DUP7 ADD PUSH3 0xB1E JUMP JUMPDEST PUSH3 0x828 DUP2 PUSH3 0xC72 JUMP JUMPDEST DUP5 ADD SWAP2 POP POP SWAP3 SWAP2 POP POP JUMP JUMPDEST PUSH1 0x0 PUSH3 0x840 DUP3 PUSH3 0xA2A JUMP JUMPDEST PUSH3 0x84C DUP2 DUP6 PUSH3 0xA46 JUMP JUMPDEST SWAP4 POP PUSH3 0x85E DUP2 DUP6 PUSH1 0x20 DUP7 ADD PUSH3 0xB1E JUMP JUMPDEST PUSH3 0x869 DUP2 PUSH3 0xC72 JUMP JUMPDEST DUP5 ADD SWAP2 POP POP SWAP3 SWAP2 POP POP JUMP JUMPDEST PUSH1 0x0 PUSH3 0x883 PUSH1 0x34 DUP4 PUSH3 0xA46 JUMP JUMPDEST SWAP2 POP PUSH3 0x890 DUP3 PUSH3 0xC90 JUMP JUMPDEST PUSH1 0x40 DUP3 ADD SWAP1 POP SWAP2 SWAP1 POP JUMP JUMPDEST PUSH1 0x0 PUSH3 0x8AA PUSH1 0x28 DUP4 PUSH3 0xA46 JUMP JUMPDEST SWAP2 POP PUSH3 0x8B7 DUP3 PUSH3 0xCDF JUMP JUMPDEST PUSH1 0x40 DUP3 ADD SWAP1 POP SWAP2 SWAP1 POP JUMP JUMPDEST PUSH1 0x0 PUSH3 0x8D1 PUSH1 0x21 DUP4 PUSH3 0xA46 JUMP JUMPDEST SWAP2 POP PUSH3 0x8DE DUP3 PUSH3 0xD2E JUMP JUMPDEST PUSH1 0x40 DUP3 ADD SWAP1 POP SWAP2 SWAP1 POP JUMP JUMPDEST PUSH3 0x8F4 DUP2 PUSH3 0xB14 JUMP JUMPDEST DUP3 MSTORE POP POP JUMP JUMPDEST PUSH1 0x0 PUSH1 0xA0 DUP3 ADD SWAP1 POP PUSH3 0x911 PUSH1 0x0 DUP4 ADD DUP9 PUSH3 0x7E1 JUMP JUMPDEST PUSH3 0x920 PUSH1 0x20 DUP4 ADD DUP8 PUSH3 0x7E1 JUMP JUMPDEST PUSH3 0x92F PUSH1 0x40 DUP4 ADD DUP7 PUSH3 0x8E9 JUMP JUMPDEST PUSH3 0x93E PUSH1 0x60 DUP4 ADD DUP6 PUSH3 0x8E9 JUMP JUMPDEST DUP2 DUP2 SUB PUSH1 0x80 DUP4 ADD MSTORE PUSH3 0x952 DUP2 DUP5 PUSH3 0x7F2 JUMP JUMPDEST SWAP1 POP SWAP7 SWAP6 POP POP POP POP POP POP JUMP JUMPDEST PUSH1 0x0 PUSH1 0x20 DUP3 ADD SWAP1 POP DUP2 DUP2 SUB PUSH1 0x0 DUP4 ADD MSTORE PUSH3 0x97A DUP2 DUP5 PUSH3 0x833 JUMP JUMPDEST SWAP1 POP SWAP3 SWAP2 POP POP JUMP JUMPDEST PUSH1 0x0 PUSH1 0x20 DUP3 ADD SWAP1 POP DUP2 DUP2 SUB PUSH1 0x0 DUP4 ADD MSTORE PUSH3 0x99D DUP2 PUSH3 0x874 JUMP JUMPDEST SWAP1 POP SWAP2 SWAP1 POP JUMP JUMPDEST PUSH1 0x0 PUSH1 0x20 DUP3 ADD SWAP1 POP DUP2 DUP2 SUB PUSH1 0x0 DUP4 ADD MSTORE PUSH3 0x9BF DUP2 PUSH3 0x89B JUMP JUMPDEST SWAP1 POP SWAP2 SWAP1 POP JUMP JUMPDEST PUSH1 0x0 PUSH1 0x20 DUP3 ADD SWAP1 POP DUP2 DUP2 SUB PUSH1 0x0 DUP4 ADD MSTORE PUSH3 0x9E1 DUP2 PUSH3 0x8C2 JUMP JUMPDEST SWAP1 POP SWAP2 SWAP1 POP JUMP JUMPDEST PUSH1 0x0 PUSH1 0x40 DUP3 ADD SWAP1 POP PUSH3 0x9FF PUSH1 0x0 DUP4 ADD DUP6 PUSH3 0x8E9 JUMP JUMPDEST PUSH3 0xA0E PUSH1 0x20 DUP4 ADD DUP5 PUSH3 0x8E9 JUMP JUMPDEST SWAP4 SWAP3 POP POP POP JUMP JUMPDEST PUSH1 0x0 PUSH1 0x40 MLOAD SWAP1 POP SWAP1 JUMP JUMPDEST PUSH1 0x0 DUP2 MLOAD SWAP1 POP SWAP2 SWAP1 POP JUMP JUMPDEST PUSH1 0x0 DUP2 MLOAD SWAP1 POP SWAP2 SWAP1 POP JUMP JUMPDEST PUSH1 0x0 DUP3 DUP3 MSTORE PUSH1 0x20 DUP3 ADD SWAP1 POP SWAP3 SWAP2 POP POP JUMP JUMPDEST PUSH1 0x0 DUP3 DUP3 MSTORE PUSH1 0x20 DUP3 ADD SWAP1 POP SWAP3 SWAP2 POP POP JUMP JUMPDEST PUSH1 0x0 PUSH3 0xA64 DUP3 PUSH3 0xB14 JUMP JUMPDEST SWAP2 POP PUSH3 0xA71 DUP4 PUSH3 0xB14 JUMP JUMPDEST SWAP3 POP DUP3 PUSH32 0xFFFFFFFFFFFFFFFFFFFFFFFFFFFFFFFFFFFFFFFFFFFFFFFFFFFFFFFFFFFFFFFF SUB DUP3 GT ISZERO PUSH3 0xAA9 JUMPI PUSH3 0xAA8 PUSH3 0xBC0 JUMP JUMPDEST JUMPDEST DUP3 DUP3 ADD SWAP1 POP SWAP3 SWAP2 POP POP JUMP JUMPDEST PUSH1 0x0 PUSH3 0xAC1 DUP3 PUSH3 0xAF4 JUMP JUMPDEST SWAP1 POP SWAP2 SWAP1 POP JUMP JUMPDEST PUSH1 0x0 PUSH32 0xFFFFFFFF00000000000000000000000000000000000000000000000000000000 DUP3 AND SWAP1 POP SWAP2 SWAP1 POP JUMP JUMPDEST PUSH1 0x0 PUSH20 0xFFFFFFFFFFFFFFFFFFFFFFFFFFFFFFFFFFFFFFFF DUP3 AND SWAP1 POP SWAP2 SWAP1 POP JUMP JUMPDEST PUSH1 0x0 DUP2 SWAP1 POP SWAP2 SWAP1 POP JUMP JUMPDEST PUSH1 0x0 JUMPDEST DUP4 DUP2 LT ISZERO PUSH3 0xB3E JUMPI DUP1 DUP3 ADD MLOAD DUP2 DUP5 ADD MSTORE PUSH1 0x20 DUP2 ADD SWAP1 POP PUSH3 0xB21 JUMP JUMPDEST DUP4 DUP2 GT ISZERO PUSH3 0xB4E JUMPI PUSH1 0x0 DUP5 DUP5 ADD MSTORE JUMPDEST POP POP POP POP JUMP JUMPDEST PUSH1 0x0 PUSH1 0x2 DUP3 DIV SWAP1 POP PUSH1 0x1 DUP3 AND DUP1 PUSH3 0xB6D JUMPI PUSH1 0x7F DUP3 AND SWAP2 POP JUMPDEST PUSH1 0x20 DUP3 LT DUP2 EQ ISZERO PUSH3 0xB84 JUMPI PUSH3 0xB83 PUSH3 0xBEF JUMP JUMPDEST JUMPDEST POP SWAP2 SWAP1 POP JUMP JUMPDEST PUSH3 0xB95 DUP3 PUSH3 0xC72 JUMP JUMPDEST DUP2 ADD DUP2 DUP2 LT PUSH8 0xFFFFFFFFFFFFFFFF DUP3 GT OR ISZERO PUSH3 0xBB7 JUMPI PUSH3 0xBB6 PUSH3 0xC1E JUMP JUMPDEST JUMPDEST DUP1 PUSH1 0x40 MSTORE POP POP POP JUMP JUMPDEST PUSH32 0x4E487B7100000000000000000000000000000000000000000000000000000000 PUSH1 0x0 MSTORE PUSH1 0x11 PUSH1 0x4 MSTORE PUSH1 0x24 PUSH1 0x0 REVERT JUMPDEST PUSH32 0x4E487B7100000000000000000000000000000000000000000000000000000000 PUSH1 0x0 MSTORE PUSH1 0x22 PUSH1 0x4 MSTORE PUSH1 0x24 PUSH1 0x0 REVERT JUMPDEST PUSH32 0x4E487B7100000000000000000000000000000000000000000000000000000000 PUSH1 0x0 MSTORE PUSH1 0x41 PUSH1 0x4 MSTORE PUSH1 0x24 PUSH1 0x0 REVERT JUMPDEST PUSH1 0x0 PUSH1 0x3 RETURNDATASIZE GT ISZERO PUSH3 0xC6F JUMPI PUSH1 0x4 PUSH1 0x0 DUP1 RETURNDATACOPY PUSH3 0xC6C PUSH1 0x0 MLOAD PUSH3 0xC83 JUMP JUMPDEST SWAP1 POP JUMPDEST SWAP1 JUMP JUMPDEST PUSH1 0x0 PUSH1 0x1F NOT PUSH1 0x1F DUP4 ADD AND SWAP1 POP SWAP2 SWAP1 POP JUMP JUMPDEST PUSH1 0x0 DUP2 PUSH1 0xE0 SHR SWAP1 POP SWAP2 SWAP1 POP JUMP JUMPDEST PUSH32 0x455243313135353A207472616E7366657220746F206E6F6E2045524331313535 PUSH1 0x0 DUP3 ADD MSTORE PUSH32 0x526563656976657220696D706C656D656E746572000000000000000000000000 PUSH1 0x20 DUP3 ADD MSTORE POP JUMP JUMPDEST PUSH32 0x455243313135353A204552433131353552656365697665722072656A65637465 PUSH1 0x0 DUP3 ADD MSTORE PUSH32 0x6420746F6B656E73000000000000000000000000000000000000000000000000 PUSH1 0x20 DUP3 ADD MSTORE POP JUMP JUMPDEST PUSH32 0x455243313135353A206D696E7420746F20746865207A65726F20616464726573 PUSH1 0x0 DUP3 ADD MSTORE PUSH32 0x7300000000000000000000000000000000000000000000000000000000000000 PUSH1 0x20 DUP3 ADD MSTORE POP JUMP JUMPDEST PUSH1 0x0 PUSH1 0x44 RETURNDATASIZE LT ISZERO PUSH3 0xD8F JUMPI PUSH3 0xE1C JUMP JUMPDEST PUSH3 0xD99 PUSH3 0xA15 JUMP JUMPDEST PUSH1 0x4 RETURNDATASIZE SUB PUSH1 0x4 DUP3 RETURNDATACOPY DUP1 MLOAD RETURNDATASIZE PUSH1 0x24 DUP3 ADD GT PUSH8 0xFFFFFFFFFFFFFFFF DUP3 GT OR ISZERO PUSH3 0xDC3 JUMPI POP POP PUSH3 0xE1C JUMP JUMPDEST DUP1 DUP3 ADD DUP1 MLOAD PUSH8 0xFFFFFFFFFFFFFFFF DUP2 GT ISZERO PUSH3 0xDE3 JUMPI POP POP POP POP PUSH3 0xE1C JUMP JUMPDEST DUP1 PUSH1 0x20 DUP4 ADD ADD PUSH1 0x4 RETURNDATASIZE SUB DUP6 ADD DUP2 GT ISZERO PUSH3 0xE02 JUMPI POP POP POP POP POP PUSH3 0xE1C JUMP JUMPDEST PUSH3 0xE13 DUP3 PUSH1 0x20 ADD DUP6 ADD DUP7 PUSH3 0xB8A JUMP JUMPDEST DUP3 SWAP6 POP POP POP POP POP POP JUMPDEST SWAP1 JUMP JUMPDEST PUSH3 0xE2A DUP2 PUSH3 0xAC8 JUMP JUMPDEST DUP2 EQ PUSH3 0xE36 JUMPI PUSH1 0x0 DUP1 REVERT JUMPDEST POP JUMP JUMPDEST PUSH2 0x3B8F DUP1 PUSH3 0xE49 PUSH1 0x0 CODECOPY PUSH1 0x0 RETURN INVALID PUSH1 0x80 PUSH1 0x40 MSTORE CALLVALUE DUP1 ISZERO PUSH2 0x10 JUMPI PUSH1 0x0 DUP1 REVERT JUMPDEST POP PUSH1 0x4 CALLDATASIZE LT PUSH2 0x1C3 JUMPI PUSH1 0x0 CALLDATALOAD PUSH1 0xE0 SHR DUP1 PUSH4 0x79279103 GT PUSH2 0xF9 JUMPI DUP1 PUSH4 0xDE9DE0AA GT PUSH2 0x97 JUMPI DUP1 PUSH4 0xEA569F05 GT PUSH2 0x71 JUMPI DUP1 PUSH4 0xEA569F05 EQ PUSH2 0x45E JUMPI DUP1 PUSH4 0xEC66A231 EQ PUSH2 0x47C JUMPI DUP1 PUSH4 0xF242432A EQ PUSH2 0x49A JUMPI DUP1 PUSH4 0xF5298ACA EQ PUSH2 0x4B6 JUMPI PUSH2 0x1C3 JUMP JUMPDEST DUP1 PUSH4 0xDE9DE0AA EQ PUSH2 0x41A JUMPI DUP1 PUSH4 0xE4308A8E EQ PUSH2 0x424 JUMPI DUP1 PUSH4 0xE985E9C5 EQ PUSH2 0x42E JUMPI PUSH2 0x1C3 JUMP JUMPDEST DUP1 PUSH4 0xA8AEF295 GT PUSH2 0xD3 JUMPI DUP1 PUSH4 0xA8AEF295 EQ PUSH2 0x3A4 JUMPI DUP1 PUSH4 0xC011FF64 EQ PUSH2 0x3C2 JUMPI DUP1 PUSH4 0xC755E71D EQ PUSH2 0x3E0 JUMPI DUP1 PUSH4 0xDD1C35BC EQ PUSH2 0x3FE JUMPI PUSH2 0x1C3 JUMP JUMPDEST DUP1 PUSH4 0x79279103 EQ PUSH2 0x374 JUMPI DUP1 PUSH4 0xA22CB465 EQ PUSH2 0x37E JUMPI DUP1 PUSH4 0xA5621DA7 EQ PUSH2 0x39A JUMPI PUSH2 0x1C3 JUMP JUMPDEST DUP1 PUSH4 0x494F34BC GT PUSH2 0x166 JUMPI DUP1 PUSH4 0x592B18B2 GT PUSH2 0x140 JUMPI DUP1 PUSH4 0x592B18B2 EQ PUSH2 0x2FE JUMPI DUP1 PUSH4 0x6B20C454 EQ PUSH2 0x31C JUMPI DUP1 PUSH4 0x72B55221 EQ PUSH2 0x338 JUMPI DUP1 PUSH4 0x78EC96A0 EQ PUSH2 0x356 JUMPI PUSH2 0x1C3 JUMP JUMPDEST DUP1 PUSH4 0x494F34BC EQ PUSH2 0x292 JUMPI DUP1 PUSH4 0x4B7C775D EQ PUSH2 0x2B0 JUMPI DUP1 PUSH4 0x4E1273F4 EQ PUSH2 0x2CE JUMPI PUSH2 0x1C3 JUMP JUMPDEST DUP1 PUSH4 0xE89341C GT PUSH2 0x1A2 JUMPI DUP1 PUSH4 0xE89341C EQ PUSH2 0x232 JUMPI DUP1 PUSH4 0x17A88AA5 EQ PUSH2 0x262 JUMPI DUP1 PUSH4 0x2311AFB1 EQ PUSH2 0x26C JUMPI DUP1 PUSH4 0x2EB2C2D6 EQ PUSH2 0x276 JUMPI PUSH2 0x1C3 JUMP JUMPDEST DUP1 PUSH3 0xFDD58E EQ PUSH2 0x1C8 JUMPI DUP1 PUSH4 0x1FFC9A7 EQ PUSH2 0x1F8 JUMPI DUP1 PUSH4 0x9C1BA58 EQ PUSH2 0x228 JUMPI JUMPDEST PUSH1 0x0 DUP1 REVERT JUMPDEST PUSH2 0x1E2 PUSH1 0x4 DUP1 CALLDATASIZE SUB DUP2 ADD SWAP1 PUSH2 0x1DD SWAP2 SWAP1 PUSH2 0x2833 JUMP JUMPDEST PUSH2 0x4D2 JUMP JUMPDEST PUSH1 0x40 MLOAD PUSH2 0x1EF SWAP2 SWAP1 PUSH2 0x315D JUMP JUMPDEST PUSH1 0x40 MLOAD DUP1 SWAP2 SUB SWAP1 RETURN JUMPDEST PUSH2 0x212 PUSH1 0x4 DUP1 CALLDATASIZE SUB DUP2 ADD SWAP1 PUSH2 0x20D SWAP2 SWAP1 PUSH2 0x292A JUMP JUMPDEST PUSH2 0x59B JUMP JUMPDEST PUSH1 0x40 MLOAD PUSH2 0x21F SWAP2 SWAP1 PUSH2 0x2EA0 JUMP JUMPDEST PUSH1 0x40 MLOAD DUP1 SWAP2 SUB SWAP1 RETURN JUMPDEST PUSH2 0x230 PUSH2 0x67D JUMP JUMPDEST STOP JUMPDEST PUSH2 0x24C PUSH1 0x4 DUP1 CALLDATASIZE SUB DUP2 ADD SWAP1 PUSH2 0x247 SWAP2 SWAP1 PUSH2 0x297C JUMP JUMPDEST PUSH2 0x6F7 JUMP JUMPDEST PUSH1 0x40 MLOAD PUSH2 0x259 SWAP2 SWAP1 PUSH2 0x2EBB JUMP JUMPDEST PUSH1 0x40 MLOAD DUP1 SWAP2 SUB SWAP1 RETURN JUMPDEST PUSH2 0x26A PUSH2 0x78B JUMP JUMPDEST STOP JUMPDEST PUSH2 0x274 PUSH2 0x805 JUMP JUMPDEST STOP JUMPDEST PUSH2 0x290 PUSH1 0x4 DUP1 CALLDATASIZE SUB DUP2 ADD SWAP1 PUSH2 0x28B SWAP2 SWAP1 PUSH2 0x262A JUMP JUMPDEST PUSH2 0x8C7 JUMP JUMPDEST STOP JUMPDEST PUSH2 0x29A PUSH2 0x968 JUMP JUMPDEST PUSH1 0x40 MLOAD PUSH2 0x2A7 SWAP2 SWAP1 PUSH2 0x315D JUMP JUMPDEST PUSH1 0x40 MLOAD DUP1 SWAP2 SUB SWAP1 RETURN JUMPDEST PUSH2 0x2B8 PUSH2 0x96D JUMP JUMPDEST PUSH1 0x40 MLOAD PUSH2 0x2C5 SWAP2 SWAP1 PUSH2 0x315D JUMP JUMPDEST PUSH1 0x40 MLOAD DUP1 SWAP2 SUB SWAP1 RETURN JUMPDEST PUSH2 0x2E8 PUSH1 0x4 DUP1 CALLDATASIZE SUB DUP2 ADD SWAP1 PUSH2 0x2E3 SWAP2 SWAP1 PUSH2 0x28BE JUMP JUMPDEST PUSH2 0x972 JUMP JUMPDEST PUSH1 0x40 MLOAD PUSH2 0x2F5 SWAP2 SWAP1 PUSH2 0x2E47 JUMP JUMPDEST PUSH1 0x40 MLOAD DUP1 SWAP2 SUB SWAP1 RETURN JUMPDEST PUSH2 0x306 PUSH2 0xB23 JUMP JUMPDEST PUSH1 0x40 MLOAD PUSH2 0x313 SWAP2 SWAP1 PUSH2 0x315D JUMP JUMPDEST PUSH1 0x40 MLOAD DUP1 SWAP2 SUB SWAP1 RETURN JUMPDEST PUSH2 0x336 PUSH1 0x4 DUP1 CALLDATASIZE SUB DUP2 ADD SWAP1 PUSH2 0x331 SWAP2 SWAP1 PUSH2 0x2778 JUMP JUMPDEST PUSH2 0xB28 JUMP JUMPDEST STOP JUMPDEST PUSH2 0x340 PUSH2 0xBC5 JUMP JUMPDEST PUSH1 0x40 MLOAD PUSH2 0x34D SWAP2 SWAP1 PUSH2 0x315D JUMP JUMPDEST PUSH1 0x40 MLOAD DUP1 SWAP2 SUB SWAP1 RETURN JUMPDEST PUSH2 0x35E PUSH2 0xBCA JUMP JUMPDEST PUSH1 0x40 MLOAD PUSH2 0x36B SWAP2 SWAP1 PUSH2 0x315D JUMP JUMPDEST PUSH1 0x40 MLOAD DUP1 SWAP2 SUB SWAP1 RETURN JUMPDEST PUSH2 0x37C PUSH2 0xBCF JUMP JUMPDEST STOP JUMPDEST PUSH2 0x398 PUSH1 0x4 DUP1 CALLDATASIZE SUB DUP2 ADD SWAP1 PUSH2 0x393 SWAP2 SWAP1 PUSH2 0x27F7 JUMP JUMPDEST PUSH2 0xC49 JUMP JUMPDEST STOP JUMPDEST PUSH2 0x3A2 PUSH2 0xC5F JUMP JUMPDEST STOP JUMPDEST PUSH2 0x3AC PUSH2 0xCD9 JUMP JUMPDEST PUSH1 0x40 MLOAD PUSH2 0x3B9 SWAP2 SWAP1 PUSH2 0x315D JUMP JUMPDEST PUSH1 0x40 MLOAD DUP1 SWAP2 SUB SWAP1 RETURN JUMPDEST PUSH2 0x3CA PUSH2 0xCDE JUMP JUMPDEST PUSH1 0x40 MLOAD PUSH2 0x3D7 SWAP2 SWAP1 PUSH2 0x315D JUMP JUMPDEST PUSH1 0x40 MLOAD DUP1 SWAP2 SUB SWAP1 RETURN JUMPDEST PUSH2 0x3E8 PUSH2 0xCE3 JUMP JUMPDEST PUSH1 0x40 MLOAD PUSH2 0x3F5 SWAP2 SWAP1 PUSH2 0x315D JUMP JUMPDEST PUSH1 0x40 MLOAD DUP1 SWAP2 SUB SWAP1 RETURN JUMPDEST PUSH2 0x418 PUSH1 0x4 DUP1 CALLDATASIZE SUB DUP2 ADD SWAP1 PUSH2 0x413 SWAP2 SWAP1 PUSH2 0x297C JUMP JUMPDEST PUSH2 0xCE8 JUMP JUMPDEST STOP JUMPDEST PUSH2 0x422 PUSH2 0xD5F JUMP JUMPDEST STOP JUMPDEST PUSH2 0x42C PUSH2 0xDD9 JUMP JUMPDEST STOP JUMPDEST PUSH2 0x448 PUSH1 0x4 DUP1 CALLDATASIZE SUB DUP2 ADD SWAP1 PUSH2 0x443 SWAP2 SWAP1 PUSH2 0x25EE JUMP JUMPDEST PUSH2 0xE52 JUMP JUMPDEST PUSH1 0x40 MLOAD PUSH2 0x455 SWAP2 SWAP1 PUSH2 0x2EA0 JUMP JUMPDEST PUSH1 0x40 MLOAD DUP1 SWAP2 SUB SWAP1 RETURN JUMPDEST PUSH2 0x466 PUSH2 0xEE6 JUMP JUMPDEST PUSH1 0x40 MLOAD PUSH2 0x473 SWAP2 SWAP1 PUSH2 0x315D JUMP JUMPDEST PUSH1 0x40 MLOAD DUP1 SWAP2 SUB SWAP1 RETURN JUMPDEST PUSH2 0x484 PUSH2 0xEEB JUMP JUMPDEST PUSH1 0x40 MLOAD PUSH2 0x491 SWAP2 SWAP1 PUSH2 0x315D JUMP JUMPDEST PUSH1 0x40 MLOAD DUP1 SWAP2 SUB SWAP1 RETURN JUMPDEST PUSH2 0x4B4 PUSH1 0x4 DUP1 CALLDATASIZE SUB DUP2 ADD SWAP1 PUSH2 0x4AF SWAP2 SWAP1 PUSH2 0x26E9 JUMP JUMPDEST PUSH2 0xEF0 JUMP JUMPDEST STOP JUMPDEST PUSH2 0x4D0 PUSH1 0x4 DUP1 CALLDATASIZE SUB DUP2 ADD SWAP1 PUSH2 0x4CB SWAP2 SWAP1 PUSH2 0x286F JUMP JUMPDEST PUSH2 0xF91 JUMP JUMPDEST STOP JUMPDEST PUSH1 0x0 DUP1 PUSH20 0xFFFFFFFFFFFFFFFFFFFFFFFFFFFFFFFFFFFFFFFF AND DUP4 PUSH20 0xFFFFFFFFFFFFFFFFFFFFFFFFFFFFFFFFFFFFFFFF AND EQ ISZERO PUSH2 0x543 JUMPI PUSH1 0x40 MLOAD PUSH32 0x8C379A000000000000000000000000000000000000000000000000000000000 DUP2 MSTORE PUSH1 0x4 ADD PUSH2 0x53A SWAP1 PUSH2 0x2F5D JUMP JUMPDEST PUSH1 0x40 MLOAD DUP1 SWAP2 SUB SWAP1 REVERT JUMPDEST PUSH1 0x0 DUP1 DUP4 DUP2 MSTORE PUSH1 0x20 ADD SWAP1 DUP2 MSTORE PUSH1 0x20 ADD PUSH1 0x0 KECCAK256 PUSH1 0x0 DUP5 PUSH20 0xFFFFFFFFFFFFFFFFFFFFFFFFFFFFFFFFFFFFFFFF AND PUSH20 0xFFFFFFFFFFFFFFFFFFFFFFFFFFFFFFFFFFFFFFFF AND DUP2 MSTORE PUSH1 0x20 ADD SWAP1 DUP2 MSTORE PUSH1 0x20 ADD PUSH1 0x0 KECCAK256 SLOAD SWAP1 POP SWAP3 SWAP2 POP POP JUMP JUMPDEST PUSH1 0x0 PUSH32 0xD9B67A2600000000000000000000000000000000000000000000000000000000 PUSH28 0xFFFFFFFFFFFFFFFFFFFFFFFFFFFFFFFFFFFFFFFFFFFFFFFFFFFFFFFF NOT AND DUP3 PUSH28 0xFFFFFFFFFFFFFFFFFFFFFFFFFFFFFFFFFFFFFFFFFFFFFFFFFFFFFFFF NOT AND EQ DUP1 PUSH2 0x666 JUMPI POP PUSH32 0xE89341C00000000000000000000000000000000000000000000000000000000 PUSH28 0xFFFFFFFFFFFFFFFFFFFFFFFFFFFFFFFFFFFFFFFFFFFFFFFFFFFFFFFF NOT AND DUP3 PUSH28 0xFFFFFFFFFFFFFFFFFFFFFFFFFFFFFFFFFFFFFFFFFFFFFFFFFFFFFFFF NOT AND EQ JUMPDEST DUP1 PUSH2 0x676 JUMPI POP PUSH2 0x675 DUP3 PUSH2 0x1051 JUMP JUMPDEST JUMPDEST SWAP1 POP SWAP2 SWAP1 POP JUMP JUMPDEST PUSH1 0x5 PUSH2 0x68A CALLER PUSH1 0x2 PUSH2 0x4D2 JUMP JUMPDEST LT ISZERO PUSH2 0x6CB JUMPI PUSH1 0x40 MLOAD PUSH32 0x8C379A000000000000000000000000000000000000000000000000000000000 DUP2 MSTORE PUSH1 0x4 ADD PUSH2 0x6C2 SWAP1 PUSH2 0x303D JUMP JUMPDEST PUSH1 0x40 MLOAD DUP1 SWAP2 SUB SWAP1 REVERT JUMPDEST PUSH2 0x6D8 CALLER PUSH1 0x2 PUSH1 0x5 PUSH2 0xF91 JUMP JUMPDEST PUSH2 0x6F5 CALLER PUSH1 0x5 PUSH1 0x1 PUSH1 0x40 MLOAD DUP1 PUSH1 0x20 ADD PUSH1 0x40 MSTORE DUP1 PUSH1 0x0 DUP2 MSTORE POP PUSH2 0x10BB JUMP JUMPDEST JUMP JUMPDEST PUSH1 0x60 PUSH1 0x2 DUP1 SLOAD PUSH2 0x706 SWAP1 PUSH2 0x33CC JUMP JUMPDEST DUP1 PUSH1 0x1F ADD PUSH1 0x20 DUP1 SWAP2 DIV MUL PUSH1 0x20 ADD PUSH1 0x40 MLOAD SWAP1 DUP2 ADD PUSH1 0x40 MSTORE DUP1 SWAP3 SWAP2 SWAP1 DUP2 DUP2 MSTORE PUSH1 0x20 ADD DUP3 DUP1 SLOAD PUSH2 0x732 SWAP1 PUSH2 0x33CC JUMP JUMPDEST DUP1 ISZERO PUSH2 0x77F JUMPI DUP1 PUSH1 0x1F LT PUSH2 0x754 JUMPI PUSH2 0x100 DUP1 DUP4 SLOAD DIV MUL DUP4 MSTORE SWAP2 PUSH1 0x20 ADD SWAP2 PUSH2 0x77F JUMP JUMPDEST DUP3 ADD SWAP2 SWAP1 PUSH1 0x0 MSTORE PUSH1 0x20 PUSH1 0x0 KECCAK256 SWAP1 JUMPDEST DUP2 SLOAD DUP2 MSTORE SWAP1 PUSH1 0x1 ADD SWAP1 PUSH1 0x20 ADD DUP1 DUP4 GT PUSH2 0x762 JUMPI DUP3 SWAP1 SUB PUSH1 0x1F AND DUP3 ADD SWAP2 JUMPDEST POP POP POP POP POP SWAP1 POP SWAP2 SWAP1 POP JUMP JUMPDEST PUSH1 0x5 PUSH2 0x798 CALLER PUSH1 0x1 PUSH2 0x4D2 JUMP JUMPDEST LT ISZERO PUSH2 0x7D9 JUMPI PUSH1 0x40 MLOAD PUSH32 0x8C379A000000000000000000000000000000000000000000000000000000000 DUP2 MSTORE PUSH1 0x4 ADD PUSH2 0x7D0 SWAP1 PUSH2 0x2F9D JUMP JUMPDEST PUSH1 0x40 MLOAD DUP1 SWAP2 SUB SWAP1 REVERT JUMPDEST PUSH2 0x7E6 CALLER PUSH1 0x1 PUSH1 0x5 PUSH2 0xF91 JUMP JUMPDEST PUSH2 0x803 CALLER PUSH1 0x4 PUSH1 0x1 PUSH1 0x40 MLOAD DUP1 PUSH1 0x20 ADD PUSH1 0x40 MSTORE DUP1 PUSH1 0x0 DUP2 MSTORE POP PUSH2 0x10BB JUMP JUMPDEST JUMP JUMPDEST PUSH1 0x5 PUSH2 0x812 CALLER PUSH1 0x6 PUSH2 0x4D2 JUMP JUMPDEST LT ISZERO DUP1 ISZERO PUSH2 0x82B JUMPI POP PUSH1 0x5 PUSH2 0x828 CALLER PUSH1 0x7 PUSH2 0x4D2 JUMP JUMPDEST LT ISZERO JUMPDEST DUP1 ISZERO PUSH2 0x842 JUMPI POP PUSH1 0x5 PUSH2 0x83F CALLER PUSH1 0x8 PUSH2 0x4D2 JUMP JUMPDEST LT ISZERO JUMPDEST PUSH2 0x881 JUMPI PUSH1 0x40 MLOAD PUSH32 0x8C379A000000000000000000000000000000000000000000000000000000000 DUP2 MSTORE PUSH1 0x4 ADD PUSH2 0x878 SWAP1 PUSH2 0x2F3D JUMP JUMPDEST PUSH1 0x40 MLOAD DUP1 SWAP2 SUB SWAP1 REVERT JUMPDEST PUSH2 0x88E CALLER PUSH1 0x6 PUSH1 0x5 PUSH2 0xF91 JUMP JUMPDEST PUSH2 0x89B CALLER PUSH1 0x7 PUSH1 0x5 PUSH2 0xF91 JUMP JUMPDEST PUSH2 0x8A8 CALLER PUSH1 0x8 PUSH1 0x5 PUSH2 0xF91 JUMP JUMPDEST PUSH2 0x8C5 CALLER PUSH1 0x9 PUSH1 0x1 PUSH1 0x40 MLOAD DUP1 PUSH1 0x20 ADD PUSH1 0x40 MSTORE DUP1 PUSH1 0x0 DUP2 MSTORE POP PUSH2 0x10BB JUMP JUMPDEST JUMP JUMPDEST PUSH2 0x8CF PUSH2 0x126C JUMP JUMPDEST PUSH20 0xFFFFFFFFFFFFFFFFFFFFFFFFFFFFFFFFFFFFFFFF AND DUP6 PUSH20 0xFFFFFFFFFFFFFFFFFFFFFFFFFFFFFFFFFFFFFFFF AND EQ DUP1 PUSH2 0x915 JUMPI POP PUSH2 0x914 DUP6 PUSH2 0x90F PUSH2 0x126C JUMP JUMPDEST PUSH2 0xE52 JUMP JUMPDEST JUMPDEST PUSH2 0x954 JUMPI PUSH1 0x40 MLOAD PUSH32 0x8C379A000000000000000000000000000000000000000000000000000000000 DUP2 MSTORE PUSH1 0x4 ADD PUSH2 0x94B SWAP1 PUSH2 0x301D JUMP JUMPDEST PUSH1 0x40 MLOAD DUP1 SWAP2 SUB SWAP1 REVERT JUMPDEST PUSH2 0x961 DUP6 DUP6 DUP6 DUP6 DUP6 PUSH2 0x1274 JUMP JUMPDEST POP POP POP POP POP JUMP JUMPDEST PUSH1 0x7 DUP2 JUMP JUMPDEST PUSH1 0x9 DUP2 JUMP JUMPDEST PUSH1 0x60 DUP2 MLOAD DUP4 MLOAD EQ PUSH2 0x9B8 JUMPI PUSH1 0x40 MLOAD PUSH32 0x8C379A000000000000000000000000000000000000000000000000000000000 DUP2 MSTORE PUSH1 0x4 ADD PUSH2 0x9AF SWAP1 PUSH2 0x30FD JUMP JUMPDEST PUSH1 0x40 MLOAD DUP1 SWAP2 SUB SWAP1 REVERT JUMPDEST PUSH1 0x0 DUP4 MLOAD PUSH8 0xFFFFFFFFFFFFFFFF DUP2 GT ISZERO PUSH2 0x9FB JUMPI PUSH32 0x4E487B7100000000000000000000000000000000000000000000000000000000 PUSH1 0x0 MSTORE PUSH1 0x41 PUSH1 0x4 MSTORE PUSH1 0x24 PUSH1 0x0 REVERT JUMPDEST PUSH1 0x40 MLOAD SWAP1 DUP1 DUP3 MSTORE DUP1 PUSH1 0x20 MUL PUSH1 0x20 ADD DUP3 ADD PUSH1 0x40 MSTORE DUP1 ISZERO PUSH2 0xA29 JUMPI DUP2 PUSH1 0x20 ADD PUSH1 0x20 DUP3 MUL DUP1 CALLDATASIZE DUP4 CALLDATACOPY DUP1 DUP3 ADD SWAP2 POP POP SWAP1 POP JUMPDEST POP SWAP1 POP PUSH1 0x0 JUMPDEST DUP5 MLOAD DUP2 LT ISZERO PUSH2 0xB18 JUMPI PUSH2 0xAC2 DUP6 DUP3 DUP2 MLOAD DUP2 LT PUSH2 0xA74 JUMPI PUSH32 0x4E487B7100000000000000000000000000000000000000000000000000000000 PUSH1 0x0 MSTORE PUSH1 0x32 PUSH1 0x4 MSTORE PUSH1 0x24 PUSH1 0x0 REVERT JUMPDEST PUSH1 0x20 MUL PUSH1 0x20 ADD ADD MLOAD DUP6 DUP4 DUP2 MLOAD DUP2 LT PUSH2 0xAB5 JUMPI PUSH32 0x4E487B7100000000000000000000000000000000000000000000000000000000 PUSH1 0x0 MSTORE PUSH1 0x32 PUSH1 0x4 MSTORE PUSH1 0x24 PUSH1 0x0 REVERT JUMPDEST PUSH1 0x20 MUL PUSH1 0x20 ADD ADD MLOAD PUSH2 0x4D2 JUMP JUMPDEST DUP3 DUP3 DUP2 MLOAD DUP2 LT PUSH2 0xAFB JUMPI PUSH32 0x4E487B7100000000000000000000000000000000000000000000000000000000 PUSH1 0x0 MSTORE PUSH1 0x32 PUSH1 0x4 MSTORE PUSH1 0x24 PUSH1 0x0 REVERT JUMPDEST PUSH1 0x20 MUL PUSH1 0x20 ADD ADD DUP2 DUP2 MSTORE POP POP DUP1 PUSH2 0xB11 SWAP1 PUSH2 0x342F JUMP JUMPDEST SWAP1 POP PUSH2 0xA2F JUMP JUMPDEST POP DUP1 SWAP2 POP POP SWAP3 SWAP2 POP POP JUMP JUMPDEST PUSH1 0x1 DUP2 JUMP JUMPDEST PUSH2 0xB30 PUSH2 0x126C JUMP JUMPDEST PUSH20 0xFFFFFFFFFFFFFFFFFFFFFFFFFFFFFFFFFFFFFFFF AND DUP4 PUSH20 0xFFFFFFFFFFFFFFFFFFFFFFFFFFFFFFFFFFFFFFFF AND EQ DUP1 PUSH2 0xB76 JUMPI POP PUSH2 0xB75 DUP4 PUSH2 0xB70 PUSH2 0x126C JUMP JUMPDEST PUSH2 0xE52 JUMP JUMPDEST JUMPDEST PUSH2 0xBB5 JUMPI PUSH1 0x40 MLOAD PUSH32 0x8C379A000000000000000000000000000000000000000000000000000000000 DUP2 MSTORE PUSH1 0x4 ADD PUSH2 0xBAC SWAP1 PUSH2 0x2FBD JUMP JUMPDEST PUSH1 0x40 MLOAD DUP1 SWAP2 SUB SWAP1 REVERT JUMPDEST PUSH2 0xBC0 DUP4 DUP4 DUP4 PUSH2 0x15E2 JUMP JUMPDEST POP POP POP JUMP JUMPDEST PUSH1 0x8 DUP2 JUMP JUMPDEST PUSH1 0x0 DUP2 JUMP JUMPDEST PUSH1 0x5 PUSH2 0xBDC CALLER PUSH1 0x0 PUSH2 0x4D2 JUMP JUMPDEST LT ISZERO PUSH2 0xC1D JUMPI PUSH1 0x40 MLOAD PUSH32 0x8C379A000000000000000000000000000000000000000000000000000000000 DUP2 MSTORE PUSH1 0x4 ADD PUSH2 0xC14 SWAP1 PUSH2 0x307D JUMP JUMPDEST PUSH1 0x40 MLOAD DUP1 SWAP2 SUB SWAP1 REVERT JUMPDEST PUSH2 0xC2A CALLER PUSH1 0x0 PUSH1 0x5 PUSH2 0xF91 JUMP JUMPDEST PUSH2 0xC47 CALLER PUSH1 0x3 PUSH1 0x1 PUSH1 0x40 MLOAD DUP1 PUSH1 0x20 ADD PUSH1 0x40 MSTORE DUP1 PUSH1 0x0 DUP2 MSTORE POP PUSH2 0x10BB JUMP JUMPDEST JUMP JUMPDEST PUSH2 0xC5B PUSH2 0xC54 PUSH2 0x126C JUMP JUMPDEST DUP4 DUP4 PUSH2 0x18FD JUMP JUMPDEST POP POP JUMP JUMPDEST PUSH1 0x5 PUSH2 0xC6C CALLER PUSH1 0x4 PUSH2 0x4D2 JUMP JUMPDEST LT ISZERO PUSH2 0xCAD JUMPI PUSH1 0x40 MLOAD PUSH32 0x8C379A000000000000000000000000000000000000000000000000000000000 DUP2 MSTORE PUSH1 0x4 ADD PUSH2 0xCA4 SWAP1 PUSH2 0x30BD JUMP JUMPDEST PUSH1 0x40 MLOAD DUP1 SWAP2 SUB SWAP1 REVERT JUMPDEST PUSH2 0xCBA CALLER PUSH1 0x4 PUSH1 0x5 PUSH2 0xF91 JUMP JUMPDEST PUSH2 0xCD7 CALLER PUSH1 0x7 PUSH1 0x1 PUSH1 0x40 MLOAD DUP1 PUSH1 0x20 ADD PUSH1 0x40 MSTORE DUP1 PUSH1 0x0 DUP2 MSTORE POP PUSH2 0x10BB JUMP JUMPDEST JUMP JUMPDEST PUSH1 0x5 DUP2 JUMP JUMPDEST PUSH1 0x2 DUP2 JUMP JUMPDEST PUSH1 0x6 DUP2 JUMP JUMPDEST PUSH1 0x1 DUP2 EQ ISZERO PUSH2 0xD13 JUMPI PUSH2 0xD0E CALLER PUSH1 0x0 PUSH1 0x1 PUSH1 0x40 MLOAD DUP1 PUSH1 0x20 ADD PUSH1 0x40 MSTORE DUP1 PUSH1 0x0 DUP2 MSTORE POP PUSH2 0x10BB JUMP JUMPDEST PUSH2 0xD5C JUMP JUMPDEST PUSH1 0x2 DUP2 EQ ISZERO PUSH2 0xD3D JUMPI PUSH2 0xD38 CALLER PUSH1 0x1 DUP1 PUSH1 0x40 MLOAD DUP1 PUSH1 0x20 ADD PUSH1 0x40 MSTORE DUP1 PUSH1 0x0 DUP2 MSTORE POP PUSH2 0x10BB JUMP JUMPDEST PUSH2 0xD5B JUMP JUMPDEST PUSH2 0xD5A CALLER PUSH1 0x2 PUSH1 0x1 PUSH1 0x40 MLOAD DUP1 PUSH1 0x20 ADD PUSH1 0x40 MSTORE DUP1 PUSH1 0x0 DUP2 MSTORE POP PUSH2 0x10BB JUMP JUMPDEST JUMPDEST JUMPDEST POP JUMP JUMPDEST PUSH1 0x5 PUSH2 0xD6C CALLER PUSH1 0x3 PUSH2 0x4D2 JUMP JUMPDEST LT ISZERO PUSH2 0xDAD JUMPI PUSH1 0x40 MLOAD PUSH32 0x8C379A000000000000000000000000000000000000000000000000000000000 DUP2 MSTORE PUSH1 0x4 ADD PUSH2 0xDA4 SWAP1 PUSH2 0x2F1D JUMP JUMPDEST PUSH1 0x40 MLOAD DUP1 SWAP2 SUB SWAP1 REVERT JUMPDEST PUSH2 0xDBA CALLER PUSH1 0x3 PUSH1 0x5 PUSH2 0xF91 JUMP JUMPDEST PUSH2 0xDD7 CALLER PUSH1 0x6 PUSH1 0x1 PUSH1 0x40 MLOAD DUP1 PUSH1 0x20 ADD PUSH1 0x40 MSTORE DUP1 PUSH1 0x0 DUP2 MSTORE POP PUSH2 0x10BB JUMP JUMPDEST JUMP JUMPDEST PUSH1 0x5 PUSH2 0xDE6 CALLER PUSH1 0x5 PUSH2 0x4D2 JUMP JUMPDEST LT ISZERO PUSH2 0xE27 JUMPI PUSH1 0x40 MLOAD PUSH32 0x8C379A000000000000000000000000000000000000000000000000000000000 DUP2 MSTORE PUSH1 0x4 ADD PUSH2 0xE1E SWAP1 PUSH2 0x2FDD JUMP JUMPDEST PUSH1 0x40 MLOAD DUP1 SWAP2 SUB SWAP1 REVERT JUMPDEST PUSH2 0xE33 CALLER PUSH1 0x5 DUP1 PUSH2 0xF91 JUMP JUMPDEST PUSH2 0xE50 CALLER PUSH1 0x8 PUSH1 0x1 PUSH1 0x40 MLOAD DUP1 PUSH1 0x20 ADD PUSH1 0x40 MSTORE DUP1 PUSH1 0x0 DUP2 MSTORE POP PUSH2 0x10BB JUMP JUMPDEST JUMP JUMPDEST PUSH1 0x0 PUSH1 0x1 PUSH1 0x0 DUP5 PUSH20 0xFFFFFFFFFFFFFFFFFFFFFFFFFFFFFFFFFFFFFFFF AND PUSH20 0xFFFFFFFFFFFFFFFFFFFFFFFFFFFFFFFFFFFFFFFF AND DUP2 MSTORE PUSH1 0x20 ADD SWAP1 DUP2 MSTORE PUSH1 0x20 ADD PUSH1 0x0 KECCAK256 PUSH1 0x0 DUP4 PUSH20 0xFFFFFFFFFFFFFFFFFFFFFFFFFFFFFFFFFFFFFFFF AND PUSH20 0xFFFFFFFFFFFFFFFFFFFFFFFFFFFFFFFFFFFFFFFF AND DUP2 MSTORE PUSH1 0x20 ADD SWAP1 DUP2 MSTORE PUSH1 0x20 ADD PUSH1 0x0 KECCAK256 PUSH1 0x0 SWAP1 SLOAD SWAP1 PUSH2 0x100 EXP SWAP1 DIV PUSH1 0xFF AND SWAP1 POP SWAP3 SWAP2 POP POP JUMP JUMPDEST PUSH1 0x4 DUP2 JUMP JUMPDEST PUSH1 0x3 DUP2 JUMP JUMPDEST PUSH2 0xEF8 PUSH2 0x126C JUMP JUMPDEST PUSH20 0xFFFFFFFFFFFFFFFFFFFFFFFFFFFFFFFFFFFFFFFF AND DUP6 PUSH20 0xFFFFFFFFFFFFFFFFFFFFFFFFFFFFFFFFFFFFFFFF AND EQ DUP1 PUSH2 0xF3E JUMPI POP PUSH2 0xF3D DUP6 PUSH2 0xF38 PUSH2 0x126C JUMP JUMPDEST PUSH2 0xE52 JUMP JUMPDEST JUMPDEST PUSH2 0xF7D JUMPI PUSH1 0x40 MLOAD PUSH32 0x8C379A000000000000000000000000000000000000000000000000000000000 DUP2 MSTORE PUSH1 0x4 ADD PUSH2 0xF74 SWAP1 PUSH2 0x2FBD JUMP JUMPDEST PUSH1 0x40 MLOAD DUP1 SWAP2 SUB SWAP1 REVERT JUMPDEST PUSH2 0xF8A DUP6 DUP6 DUP6 DUP6 DUP6 PUSH2 0x1A6A JUMP JUMPDEST POP POP POP POP POP JUMP JUMPDEST PUSH2 0xF99 PUSH2 0x126C JUMP JUMPDEST PUSH20 0xFFFFFFFFFFFFFFFFFFFFFFFFFFFFFFFFFFFFFFFF AND DUP4 PUSH20 0xFFFFFFFFFFFFFFFFFFFFFFFFFFFFFFFFFFFFFFFF AND EQ DUP1 PUSH2 0xFDF JUMPI POP PUSH2 0xFDE DUP4 PUSH2 0xFD9 PUSH2 0x126C JUMP JUMPDEST PUSH2 0xE52 JUMP JUMPDEST JUMPDEST PUSH2 0x101E JUMPI PUSH1 0x40 MLOAD PUSH32 0x8C379A000000000000000000000000000000000000000000000000000000000 DUP2 MSTORE PUSH1 0x4 ADD PUSH2 0x1015 SWAP1 PUSH2 0x2FBD JUMP JUMPDEST PUSH1 0x40 MLOAD DUP1 SWAP2 SUB SWAP1 REVERT JUMPDEST PUSH2 0x1029 DUP4 DUP4 DUP4 PUSH2 0x1D06 JUMP JUMPDEST POP POP POP JUMP JUMPDEST PUSH1 0x0 DUP1 DUP3 PUSH20 0xFFFFFFFFFFFFFFFFFFFFFFFFFFFFFFFFFFFFFFFF AND EXTCODESIZE GT SWAP1 POP SWAP2 SWAP1 POP JUMP JUMPDEST PUSH1 0x0 PUSH32 0x1FFC9A700000000000000000000000000000000000000000000000000000000 PUSH28 0xFFFFFFFFFFFFFFFFFFFFFFFFFFFFFFFFFFFFFFFFFFFFFFFFFFFFFFFF NOT AND DUP3 PUSH28 0xFFFFFFFFFFFFFFFFFFFFFFFFFFFFFFFFFFFFFFFFFFFFFFFFFFFFFFFF NOT AND EQ SWAP1 POP SWAP2 SWAP1 POP JUMP JUMPDEST PUSH1 0x0 PUSH20 0xFFFFFFFFFFFFFFFFFFFFFFFFFFFFFFFFFFFFFFFF AND DUP5 PUSH20 0xFFFFFFFFFFFFFFFFFFFFFFFFFFFFFFFFFFFFFFFF AND EQ ISZERO PUSH2 0x112B JUMPI PUSH1 0x40 MLOAD PUSH32 0x8C379A000000000000000000000000000000000000000000000000000000000 DUP2 MSTORE PUSH1 0x4 ADD PUSH2 0x1122 SWAP1 PUSH2 0x313D JUMP JUMPDEST PUSH1 0x40 MLOAD DUP1 SWAP2 SUB SWAP1 REVERT JUMPDEST PUSH1 0x0 PUSH2 0x1135 PUSH2 0x126C JUMP JUMPDEST SWAP1 POP PUSH1 0x0 PUSH2 0x1142 DUP6 PUSH2 0x1F4D JUMP JUMPDEST SWAP1 POP PUSH1 0x0 PUSH2 0x114F DUP6 PUSH2 0x1F4D JUMP JUMPDEST SWAP1 POP PUSH2 0x1160 DUP4 PUSH1 0x0 DUP10 DUP6 DUP6 DUP10 PUSH2 0x2013 JUMP JUMPDEST DUP5 PUSH1 0x0 DUP1 DUP9 DUP2 MSTORE PUSH1 0x20 ADD SWAP1 DUP2 MSTORE PUSH1 0x20 ADD PUSH1 0x0 KECCAK256 PUSH1 0x0 DUP10 PUSH20 0xFFFFFFFFFFFFFFFFFFFFFFFFFFFFFFFFFFFFFFFF AND PUSH20 0xFFFFFFFFFFFFFFFFFFFFFFFFFFFFFFFFFFFFFFFF AND DUP2 MSTORE PUSH1 0x20 ADD SWAP1 DUP2 MSTORE PUSH1 0x20 ADD PUSH1 0x0 KECCAK256 PUSH1 0x0 DUP3 DUP3 SLOAD PUSH2 0x11BF SWAP2 SWAP1 PUSH2 0x32C0 JUMP JUMPDEST SWAP3 POP POP DUP2 SWAP1 SSTORE POP DUP7 PUSH20 0xFFFFFFFFFFFFFFFFFFFFFFFFFFFFFFFFFFFFFFFF AND PUSH1 0x0 PUSH20 0xFFFFFFFFFFFFFFFFFFFFFFFFFFFFFFFFFFFFFFFF AND DUP5 PUSH20 0xFFFFFFFFFFFFFFFFFFFFFFFFFFFFFFFFFFFFFFFF AND PUSH32 0xC3D58168C5AE7397731D063D5BBF3D657854427343F4C083240F7AACAA2D0F62 DUP10 DUP10 PUSH1 0x40 MLOAD PUSH2 0x123D SWAP3 SWAP2 SWAP1 PUSH2 0x3178 JUMP JUMPDEST PUSH1 0x40 MLOAD DUP1 SWAP2 SUB SWAP1 LOG4 PUSH2 0x1254 DUP4 PUSH1 0x0 DUP10 DUP6 DUP6 DUP10 PUSH2 0x201B JUMP JUMPDEST PUSH2 0x1263 DUP4 PUSH1 0x0 DUP10 DUP10 DUP10 DUP10 PUSH2 0x2023 JUMP JUMPDEST POP POP POP POP POP POP POP JUMP JUMPDEST PUSH1 0x0 CALLER SWAP1 POP SWAP1 JUMP JUMPDEST DUP2 MLOAD DUP4 MLOAD EQ PUSH2 0x12B8 JUMPI PUSH1 0x40 MLOAD PUSH32 0x8C379A000000000000000000000000000000000000000000000000000000000 DUP2 MSTORE PUSH1 0x4 ADD PUSH2 0x12AF SWAP1 PUSH2 0x311D JUMP JUMPDEST PUSH1 0x40 MLOAD DUP1 SWAP2 SUB SWAP1 REVERT JUMPDEST PUSH1 0x0 PUSH20 0xFFFFFFFFFFFFFFFFFFFFFFFFFFFFFFFFFFFFFFFF AND DUP5 PUSH20 0xFFFFFFFFFFFFFFFFFFFFFFFFFFFFFFFFFFFFFFFF AND EQ ISZERO PUSH2 0x1328 JUMPI PUSH1 0x40 MLOAD PUSH32 0x8C379A000000000000000000000000000000000000000000000000000000000 DUP2 MSTORE PUSH1 0x4 ADD PUSH2 0x131F SWAP1 PUSH2 0x2FFD JUMP JUMPDEST PUSH1 0x40 MLOAD DUP1 SWAP2 SUB SWAP1 REVERT JUMPDEST PUSH1 0x0 PUSH2 0x1332 PUSH2 0x126C JUMP JUMPDEST SWAP1 POP PUSH2 0x1342 DUP2 DUP8 DUP8 DUP8 DUP8 DUP8 PUSH2 0x2013 JUMP JUMPDEST PUSH1 0x0 JUMPDEST DUP5 MLOAD DUP2 LT ISZERO PUSH2 0x153F JUMPI PUSH1 0x0 DUP6 DUP3 DUP2 MLOAD DUP2 LT PUSH2 0x1389 JUMPI PUSH32 0x4E487B7100000000000000000000000000000000000000000000000000000000 PUSH1 0x0 MSTORE PUSH1 0x32 PUSH1 0x4 MSTORE PUSH1 0x24 PUSH1 0x0 REVERT JUMPDEST PUSH1 0x20 MUL PUSH1 0x20 ADD ADD MLOAD SWAP1 POP PUSH1 0x0 DUP6 DUP4 DUP2 MLOAD DUP2 LT PUSH2 0x13CE JUMPI PUSH32 0x4E487B7100000000000000000000000000000000000000000000000000000000 PUSH1 0x0 MSTORE PUSH1 0x32 PUSH1 0x4 MSTORE PUSH1 0x24 PUSH1 0x0 REVERT JUMPDEST PUSH1 0x20 MUL PUSH1 0x20 ADD ADD MLOAD SWAP1 POP PUSH1 0x0 DUP1 PUSH1 0x0 DUP5 DUP2 MSTORE PUSH1 0x20 ADD SWAP1 DUP2 MSTORE PUSH1 0x20 ADD PUSH1 0x0 KECCAK256 PUSH1 0x0 DUP12 PUSH20 0xFFFFFFFFFFFFFFFFFFFFFFFFFFFFFFFFFFFFFFFF AND PUSH20 0xFFFFFFFFFFFFFFFFFFFFFFFFFFFFFFFFFFFFFFFF AND DUP2 MSTORE PUSH1 0x20 ADD SWAP1 DUP2 MSTORE PUSH1 0x20 ADD PUSH1 0x0 KECCAK256 SLOAD SWAP1 POP DUP2 DUP2 LT ISZERO PUSH2 0x146F JUMPI PUSH1 0x40 MLOAD PUSH32 0x8C379A000000000000000000000000000000000000000000000000000000000 DUP2 MSTORE PUSH1 0x4 ADD PUSH2 0x1466 SWAP1 PUSH2 0x309D JUMP JUMPDEST PUSH1 0x40 MLOAD DUP1 SWAP2 SUB SWAP1 REVERT JUMPDEST DUP2 DUP2 SUB PUSH1 0x0 DUP1 DUP6 DUP2 MSTORE PUSH1 0x20 ADD SWAP1 DUP2 MSTORE PUSH1 0x20 ADD PUSH1 0x0 KECCAK256 PUSH1 0x0 DUP13 PUSH20 0xFFFFFFFFFFFFFFFFFFFFFFFFFFFFFFFFFFFFFFFF AND PUSH20 0xFFFFFFFFFFFFFFFFFFFFFFFFFFFFFFFFFFFFFFFF AND DUP2 MSTORE PUSH1 0x20 ADD SWAP1 DUP2 MSTORE PUSH1 0x20 ADD PUSH1 0x0 KECCAK256 DUP2 SWAP1 SSTORE POP DUP2 PUSH1 0x0 DUP1 DUP6 DUP2 MSTORE PUSH1 0x20 ADD SWAP1 DUP2 MSTORE PUSH1 0x20 ADD PUSH1 0x0 KECCAK256 PUSH1 0x0 DUP12 PUSH20 0xFFFFFFFFFFFFFFFFFFFFFFFFFFFFFFFFFFFFFFFF AND PUSH20 0xFFFFFFFFFFFFFFFFFFFFFFFFFFFFFFFFFFFFFFFF AND DUP2 MSTORE PUSH1 0x20 ADD SWAP1 DUP2 MSTORE PUSH1 0x20 ADD PUSH1 0x0 KECCAK256 PUSH1 0x0 DUP3 DUP3 SLOAD PUSH2 0x1524 SWAP2 SWAP1 PUSH2 0x32C0 JUMP JUMPDEST SWAP3 POP POP DUP2 SWAP1 SSTORE POP POP POP POP DUP1 PUSH2 0x1538 SWAP1 PUSH2 0x342F JUMP JUMPDEST SWAP1 POP PUSH2 0x1345 JUMP JUMPDEST POP DUP5 PUSH20 0xFFFFFFFFFFFFFFFFFFFFFFFFFFFFFFFFFFFFFFFF AND DUP7 PUSH20 0xFFFFFFFFFFFFFFFFFFFFFFFFFFFFFFFFFFFFFFFF AND DUP3 PUSH20 0xFFFFFFFFFFFFFFFFFFFFFFFFFFFFFFFFFFFFFFFF AND PUSH32 0x4A39DC06D4C0DBC64B70AF90FD698A233A518AA5D07E595D983B8C0526C8F7FB DUP8 DUP8 PUSH1 0x40 MLOAD PUSH2 0x15B6 SWAP3 SWAP2 SWAP1 PUSH2 0x2E69 JUMP JUMPDEST PUSH1 0x40 MLOAD DUP1 SWAP2 SUB SWAP1 LOG4 PUSH2 0x15CC DUP2 DUP8 DUP8 DUP8 DUP8 DUP8 PUSH2 0x201B JUMP JUMPDEST PUSH2 0x15DA DUP2 DUP8 DUP8 DUP8 DUP8 DUP8 PUSH2 0x220A JUMP JUMPDEST POP POP POP POP POP POP JUMP JUMPDEST PUSH1 0x0 PUSH20 0xFFFFFFFFFFFFFFFFFFFFFFFFFFFFFFFFFFFFFFFF AND DUP4 PUSH20 0xFFFFFFFFFFFFFFFFFFFFFFFFFFFFFFFFFFFFFFFF AND EQ ISZERO PUSH2 0x1652 JUMPI PUSH1 0x40 MLOAD PUSH32 0x8C379A000000000000000000000000000000000000000000000000000000000 DUP2 MSTORE PUSH1 0x4 ADD PUSH2 0x1649 SWAP1 PUSH2 0x305D JUMP JUMPDEST PUSH1 0x40 MLOAD DUP1 SWAP2 SUB SWAP1 REVERT JUMPDEST DUP1 MLOAD DUP3 MLOAD EQ PUSH2 0x1696 JUMPI PUSH1 0x40 MLOAD PUSH32 0x8C379A000000000000000000000000000000000000000000000000000000000 DUP2 MSTORE PUSH1 0x4 ADD PUSH2 0x168D SWAP1 PUSH2 0x311D JUMP JUMPDEST PUSH1 0x40 MLOAD DUP1 SWAP2 SUB SWAP1 REVERT JUMPDEST PUSH1 0x0 PUSH2 0x16A0 PUSH2 0x126C JUMP JUMPDEST SWAP1 POP PUSH2 0x16C0 DUP2 DUP6 PUSH1 0x0 DUP7 DUP7 PUSH1 0x40 MLOAD DUP1 PUSH1 0x20 ADD PUSH1 0x40 MSTORE DUP1 PUSH1 0x0 DUP2 MSTORE POP PUSH2 0x2013 JUMP JUMPDEST PUSH1 0x0 JUMPDEST DUP4 MLOAD DUP2 LT ISZERO PUSH2 0x1859 JUMPI PUSH1 0x0 DUP5 DUP3 DUP2 MLOAD DUP2 LT PUSH2 0x1707 JUMPI PUSH32 0x4E487B7100000000000000000000000000000000000000000000000000000000 PUSH1 0x0 MSTORE PUSH1 0x32 PUSH1 0x4 MSTORE PUSH1 0x24 PUSH1 0x0 REVERT JUMPDEST PUSH1 0x20 MUL PUSH1 0x20 ADD ADD MLOAD SWAP1 POP PUSH1 0x0 DUP5 DUP4 DUP2 MLOAD DUP2 LT PUSH2 0x174C JUMPI PUSH32 0x4E487B7100000000000000000000000000000000000000000000000000000000 PUSH1 0x0 MSTORE PUSH1 0x32 PUSH1 0x4 MSTORE PUSH1 0x24 PUSH1 0x0 REVERT JUMPDEST PUSH1 0x20 MUL PUSH1 0x20 ADD ADD MLOAD SWAP1 POP PUSH1 0x0 DUP1 PUSH1 0x0 DUP5 DUP2 MSTORE PUSH1 0x20 ADD SWAP1 DUP2 MSTORE PUSH1 0x20 ADD PUSH1 0x0 KECCAK256 PUSH1 0x0 DUP10 PUSH20 0xFFFFFFFFFFFFFFFFFFFFFFFFFFFFFFFFFFFFFFFF AND PUSH20 0xFFFFFFFFFFFFFFFFFFFFFFFFFFFFFFFFFFFFFFFF AND DUP2 MSTORE PUSH1 0x20 ADD SWAP1 DUP2 MSTORE PUSH1 0x20 ADD PUSH1 0x0 KECCAK256 SLOAD SWAP1 POP DUP2 DUP2 LT ISZERO PUSH2 0x17ED JUMPI PUSH1 0x40 MLOAD PUSH32 0x8C379A000000000000000000000000000000000000000000000000000000000 DUP2 MSTORE PUSH1 0x4 ADD PUSH2 0x17E4 SWAP1 PUSH2 0x2F7D JUMP JUMPDEST PUSH1 0x40 MLOAD DUP1 SWAP2 SUB SWAP1 REVERT JUMPDEST DUP2 DUP2 SUB PUSH1 0x0 DUP1 DUP6 DUP2 MSTORE PUSH1 0x20 ADD SWAP1 DUP2 MSTORE PUSH1 0x20 ADD PUSH1 0x0 KECCAK256 PUSH1 0x0 DUP11 PUSH20 0xFFFFFFFFFFFFFFFFFFFFFFFFFFFFFFFFFFFFFFFF AND PUSH20 0xFFFFFFFFFFFFFFFFFFFFFFFFFFFFFFFFFFFFFFFF AND DUP2 MSTORE PUSH1 0x20 ADD SWAP1 DUP2 MSTORE PUSH1 0x20 ADD PUSH1 0x0 KECCAK256 DUP2 SWAP1 SSTORE POP POP POP POP DUP1 DUP1 PUSH2 0x1851 SWAP1 PUSH2 0x342F JUMP JUMPDEST SWAP2 POP POP PUSH2 0x16C3 JUMP JUMPDEST POP PUSH1 0x0 PUSH20 0xFFFFFFFFFFFFFFFFFFFFFFFFFFFFFFFFFFFFFFFF AND DUP5 PUSH20 0xFFFFFFFFFFFFFFFFFFFFFFFFFFFFFFFFFFFFFFFF AND DUP3 PUSH20 0xFFFFFFFFFFFFFFFFFFFFFFFFFFFFFFFFFFFFFFFF AND PUSH32 0x4A39DC06D4C0DBC64B70AF90FD698A233A518AA5D07E595D983B8C0526C8F7FB DUP7 DUP7 PUSH1 0x40 MLOAD PUSH2 0x18D1 SWAP3 SWAP2 SWAP1 PUSH2 0x2E69 JUMP JUMPDEST PUSH1 0x40 MLOAD DUP1 SWAP2 SUB SWAP1 LOG4 PUSH2 0x18F7 DUP2 DUP6 PUSH1 0x0 DUP7 DUP7 PUSH1 0x40 MLOAD DUP1 PUSH1 0x20 ADD PUSH1 0x40 MSTORE DUP1 PUSH1 0x0 DUP2 MSTORE POP PUSH2 0x201B JUMP JUMPDEST POP POP POP POP JUMP JUMPDEST DUP2 PUSH20 0xFFFFFFFFFFFFFFFFFFFFFFFFFFFFFFFFFFFFFFFF AND DUP4 PUSH20 0xFFFFFFFFFFFFFFFFFFFFFFFFFFFFFFFFFFFFFFFF AND EQ ISZERO PUSH2 0x196C JUMPI PUSH1 0x40 MLOAD PUSH32 0x8C379A000000000000000000000000000000000000000000000000000000000 DUP2 MSTORE PUSH1 0x4 ADD PUSH2 0x1963 SWAP1 PUSH2 0x30DD JUMP JUMPDEST PUSH1 0x40 MLOAD DUP1 SWAP2 SUB SWAP1 REVERT JUMPDEST DUP1 PUSH1 0x1 PUSH1 0x0 DUP6 PUSH20 0xFFFFFFFFFFFFFFFFFFFFFFFFFFFFFFFFFFFFFFFF AND PUSH20 0xFFFFFFFFFFFFFFFFFFFFFFFFFFFFFFFFFFFFFFFF AND DUP2 MSTORE PUSH1 0x20 ADD SWAP1 DUP2 MSTORE PUSH1 0x20 ADD PUSH1 0x0 KECCAK256 PUSH1 0x0 DUP5 PUSH20 0xFFFFFFFFFFFFFFFFFFFFFFFFFFFFFFFFFFFFFFFF AND PUSH20 0xFFFFFFFFFFFFFFFFFFFFFFFFFFFFFFFFFFFFFFFF AND DUP2 MSTORE PUSH1 0x20 ADD SWAP1 DUP2 MSTORE PUSH1 0x20 ADD PUSH1 0x0 KECCAK256 PUSH1 0x0 PUSH2 0x100 EXP DUP2 SLOAD DUP2 PUSH1 0xFF MUL NOT AND SWAP1 DUP4 ISZERO ISZERO MUL OR SWAP1 SSTORE POP DUP2 PUSH20 0xFFFFFFFFFFFFFFFFFFFFFFFFFFFFFFFFFFFFFFFF AND DUP4 PUSH20 0xFFFFFFFFFFFFFFFFFFFFFFFFFFFFFFFFFFFFFFFF AND PUSH32 0x17307EAB39AB6107E8899845AD3D59BD9653F200F220920489CA2B5937696C31 DUP4 PUSH1 0x40 MLOAD PUSH2 0x1A5D SWAP2 SWAP1 PUSH2 0x2EA0 JUMP JUMPDEST PUSH1 0x40 MLOAD DUP1 SWAP2 SUB SWAP1 LOG3 POP POP POP JUMP JUMPDEST PUSH1 0x0 PUSH20 0xFFFFFFFFFFFFFFFFFFFFFFFFFFFFFFFFFFFFFFFF AND DUP5 PUSH20 0xFFFFFFFFFFFFFFFFFFFFFFFFFFFFFFFFFFFFFFFF AND EQ ISZERO PUSH2 0x1ADA JUMPI PUSH1 0x40 MLOAD PUSH32 0x8C379A000000000000000000000000000000000000000000000000000000000 DUP2 MSTORE PUSH1 0x4 ADD PUSH2 0x1AD1 SWAP1 PUSH2 0x2FFD JUMP JUMPDEST PUSH1 0x40 MLOAD DUP1 SWAP2 SUB SWAP1 REVERT JUMPDEST PUSH1 0x0 PUSH2 0x1AE4 PUSH2 0x126C JUMP JUMPDEST SWAP1 POP PUSH1 0x0 PUSH2 0x1AF1 DUP6 PUSH2 0x1F4D JUMP JUMPDEST SWAP1 POP PUSH1 0x0 PUSH2 0x1AFE DUP6 PUSH2 0x1F4D JUMP JUMPDEST SWAP1 POP PUSH2 0x1B0E DUP4 DUP10 DUP10 DUP6 DUP6 DUP10 PUSH2 0x2013 JUMP JUMPDEST PUSH1 0x0 DUP1 PUSH1 0x0 DUP9 DUP2 MSTORE PUSH1 0x20 ADD SWAP1 DUP2 MSTORE PUSH1 0x20 ADD PUSH1 0x0 KECCAK256 PUSH1 0x0 DUP11 PUSH20 0xFFFFFFFFFFFFFFFFFFFFFFFFFFFFFFFFFFFFFFFF AND PUSH20 0xFFFFFFFFFFFFFFFFFFFFFFFFFFFFFFFFFFFFFFFF AND DUP2 MSTORE PUSH1 0x20 ADD SWAP1 DUP2 MSTORE PUSH1 0x20 ADD PUSH1 0x0 KECCAK256 SLOAD SWAP1 POP DUP6 DUP2 LT ISZERO PUSH2 0x1BA5 JUMPI PUSH1 0x40 MLOAD PUSH32 0x8C379A000000000000000000000000000000000000000000000000000000000 DUP2 MSTORE PUSH1 0x4 ADD PUSH2 0x1B9C SWAP1 PUSH2 0x309D JUMP JUMPDEST PUSH1 0x40 MLOAD DUP1 SWAP2 SUB SWAP1 REVERT JUMPDEST DUP6 DUP2 SUB PUSH1 0x0 DUP1 DUP10 DUP2 MSTORE PUSH1 0x20 ADD SWAP1 DUP2 MSTORE PUSH1 0x20 ADD PUSH1 0x0 KECCAK256 PUSH1 0x0 DUP12 PUSH20 0xFFFFFFFFFFFFFFFFFFFFFFFFFFFFFFFFFFFFFFFF AND PUSH20 0xFFFFFFFFFFFFFFFFFFFFFFFFFFFFFFFFFFFFFFFF AND DUP2 MSTORE PUSH1 0x20 ADD SWAP1 DUP2 MSTORE PUSH1 0x20 ADD PUSH1 0x0 KECCAK256 DUP2 SWAP1 SSTORE POP DUP6 PUSH1 0x0 DUP1 DUP10 DUP2 MSTORE PUSH1 0x20 ADD SWAP1 DUP2 MSTORE PUSH1 0x20 ADD PUSH1 0x0 KECCAK256 PUSH1 0x0 DUP11 PUSH20 0xFFFFFFFFFFFFFFFFFFFFFFFFFFFFFFFFFFFFFFFF AND PUSH20 0xFFFFFFFFFFFFFFFFFFFFFFFFFFFFFFFFFFFFFFFF AND DUP2 MSTORE PUSH1 0x20 ADD SWAP1 DUP2 MSTORE PUSH1 0x20 ADD PUSH1 0x0 KECCAK256 PUSH1 0x0 DUP3 DUP3 SLOAD PUSH2 0x1C5A SWAP2 SWAP1 PUSH2 0x32C0 JUMP JUMPDEST SWAP3 POP POP DUP2 SWAP1 SSTORE POP DUP8 PUSH20 0xFFFFFFFFFFFFFFFFFFFFFFFFFFFFFFFFFFFFFFFF AND DUP10 PUSH20 0xFFFFFFFFFFFFFFFFFFFFFFFFFFFFFFFFFFFFFFFF AND DUP6 PUSH20 0xFFFFFFFFFFFFFFFFFFFFFFFFFFFFFFFFFFFFFFFF AND PUSH32 0xC3D58168C5AE7397731D063D5BBF3D657854427343F4C083240F7AACAA2D0F62 DUP11 DUP11 PUSH1 0x40 MLOAD PUSH2 0x1CD7 SWAP3 SWAP2 SWAP1 PUSH2 0x3178 JUMP JUMPDEST PUSH1 0x40 MLOAD DUP1 SWAP2 SUB SWAP1 LOG4 PUSH2 0x1CED DUP5 DUP11 DUP11 DUP7 DUP7 DUP11 PUSH2 0x201B JUMP JUMPDEST PUSH2 0x1CFB DUP5 DUP11 DUP11 DUP11 DUP11 DUP11 PUSH2 0x2023 JUMP JUMPDEST POP POP POP POP POP POP POP POP POP JUMP JUMPDEST PUSH1 0x0 PUSH20 0xFFFFFFFFFFFFFFFFFFFFFFFFFFFFFFFFFFFFFFFF AND DUP4 PUSH20 0xFFFFFFFFFFFFFFFFFFFFFFFFFFFFFFFFFFFFFFFF AND EQ ISZERO PUSH2 0x1D76 JUMPI PUSH1 0x40 MLOAD PUSH32 0x8C379A000000000000000000000000000000000000000000000000000000000 DUP2 MSTORE PUSH1 0x4 ADD PUSH2 0x1D6D SWAP1 PUSH2 0x305D JUMP JUMPDEST PUSH1 0x40 MLOAD DUP1 SWAP2 SUB SWAP1 REVERT JUMPDEST PUSH1 0x0 PUSH2 0x1D80 PUSH2 0x126C JUMP JUMPDEST SWAP1 POP PUSH1 0x0 PUSH2 0x1D8D DUP5 PUSH2 0x1F4D JUMP JUMPDEST SWAP1 POP PUSH1 0x0 PUSH2 0x1D9A DUP5 PUSH2 0x1F4D JUMP JUMPDEST SWAP1 POP PUSH2 0x1DBA DUP4 DUP8 PUSH1 0x0 DUP6 DUP6 PUSH1 0x40 MLOAD DUP1 PUSH1 0x20 ADD PUSH1 0x40 MSTORE DUP1 PUSH1 0x0 DUP2 MSTORE POP PUSH2 0x2013 JUMP JUMPDEST PUSH1 0x0 DUP1 PUSH1 0x0 DUP8 DUP2 MSTORE PUSH1 0x20 ADD SWAP1 DUP2 MSTORE PUSH1 0x20 ADD PUSH1 0x0 KECCAK256 PUSH1 0x0 DUP9 PUSH20 0xFFFFFFFFFFFFFFFFFFFFFFFFFFFFFFFFFFFFFFFF AND PUSH20 0xFFFFFFFFFFFFFFFFFFFFFFFFFFFFFFFFFFFFFFFF AND DUP2 MSTORE PUSH1 0x20 ADD SWAP1 DUP2 MSTORE PUSH1 0x20 ADD PUSH1 0x0 KECCAK256 SLOAD SWAP1 POP DUP5 DUP2 LT ISZERO PUSH2 0x1E51 JUMPI PUSH1 0x40 MLOAD PUSH32 0x8C379A000000000000000000000000000000000000000000000000000000000 DUP2 MSTORE PUSH1 0x4 ADD PUSH2 0x1E48 SWAP1 PUSH2 0x2F7D JUMP JUMPDEST PUSH1 0x40 MLOAD DUP1 SWAP2 SUB SWAP1 REVERT JUMPDEST DUP5 DUP2 SUB PUSH1 0x0 DUP1 DUP9 DUP2 MSTORE PUSH1 0x20 ADD SWAP1 DUP2 MSTORE PUSH1 0x20 ADD PUSH1 0x0 KECCAK256 PUSH1 0x0 DUP10 PUSH20 0xFFFFFFFFFFFFFFFFFFFFFFFFFFFFFFFFFFFFFFFF AND PUSH20 0xFFFFFFFFFFFFFFFFFFFFFFFFFFFFFFFFFFFFFFFF AND DUP2 MSTORE PUSH1 0x20 ADD SWAP1 DUP2 MSTORE PUSH1 0x20 ADD PUSH1 0x0 KECCAK256 DUP2 SWAP1 SSTORE POP PUSH1 0x0 PUSH20 0xFFFFFFFFFFFFFFFFFFFFFFFFFFFFFFFFFFFFFFFF AND DUP8 PUSH20 0xFFFFFFFFFFFFFFFFFFFFFFFFFFFFFFFFFFFFFFFF AND DUP6 PUSH20 0xFFFFFFFFFFFFFFFFFFFFFFFFFFFFFFFFFFFFFFFF AND PUSH32 0xC3D58168C5AE7397731D063D5BBF3D657854427343F4C083240F7AACAA2D0F62 DUP10 DUP10 PUSH1 0x40 MLOAD PUSH2 0x1F1E SWAP3 SWAP2 SWAP1 PUSH2 0x3178 JUMP JUMPDEST PUSH1 0x40 MLOAD DUP1 SWAP2 SUB SWAP1 LOG4 PUSH2 0x1F44 DUP5 DUP9 PUSH1 0x0 DUP7 DUP7 PUSH1 0x40 MLOAD DUP1 PUSH1 0x20 ADD PUSH1 0x40 MSTORE DUP1 PUSH1 0x0 DUP2 MSTORE POP PUSH2 0x201B JUMP JUMPDEST POP POP POP POP POP POP POP JUMP JUMPDEST PUSH1 0x60 PUSH1 0x0 PUSH1 0x1 PUSH8 0xFFFFFFFFFFFFFFFF DUP2 GT ISZERO PUSH2 0x1F92 JUMPI PUSH32 0x4E487B7100000000000000000000000000000000000000000000000000000000 PUSH1 0x0 MSTORE PUSH1 0x41 PUSH1 0x4 MSTORE PUSH1 0x24 PUSH1 0x0 REVERT JUMPDEST PUSH1 0x40 MLOAD SWAP1 DUP1 DUP3 MSTORE DUP1 PUSH1 0x20 MUL PUSH1 0x20 ADD DUP3 ADD PUSH1 0x40 MSTORE DUP1 ISZERO PUSH2 0x1FC0 JUMPI DUP2 PUSH1 0x20 ADD PUSH1 0x20 DUP3 MUL DUP1 CALLDATASIZE DUP4 CALLDATACOPY DUP1 DUP3 ADD SWAP2 POP POP SWAP1 POP JUMPDEST POP SWAP1 POP DUP3 DUP2 PUSH1 0x0 DUP2 MLOAD DUP2 LT PUSH2 0x1FFE JUMPI PUSH32 0x4E487B7100000000000000000000000000000000000000000000000000000000 PUSH1 0x0 MSTORE PUSH1 0x32 PUSH1 0x4 MSTORE PUSH1 0x24 PUSH1 0x0 REVERT JUMPDEST PUSH1 0x20 MUL PUSH1 0x20 ADD ADD DUP2 DUP2 MSTORE POP POP DUP1 SWAP2 POP POP SWAP2 SWAP1 POP JUMP JUMPDEST POP POP POP POP POP POP JUMP JUMPDEST POP POP POP POP POP POP JUMP JUMPDEST PUSH2 0x2042 DUP5 PUSH20 0xFFFFFFFFFFFFFFFFFFFFFFFFFFFFFFFFFFFFFFFF AND PUSH2 0x102E JUMP JUMPDEST ISZERO PUSH2 0x2202 JUMPI DUP4 PUSH20 0xFFFFFFFFFFFFFFFFFFFFFFFFFFFFFFFFFFFFFFFF AND PUSH4 0xF23A6E61 DUP8 DUP8 DUP7 DUP7 DUP7 PUSH1 0x40 MLOAD DUP7 PUSH4 0xFFFFFFFF AND PUSH1 0xE0 SHL DUP2 MSTORE PUSH1 0x4 ADD PUSH2 0x2088 SWAP6 SWAP5 SWAP4 SWAP3 SWAP2 SWAP1 PUSH2 0x2DED JUMP JUMPDEST PUSH1 0x20 PUSH1 0x40 MLOAD DUP1 DUP4 SUB DUP2 PUSH1 0x0 DUP8 DUP1 EXTCODESIZE ISZERO DUP1 ISZERO PUSH2 0x20A2 JUMPI PUSH1 0x0 DUP1 REVERT JUMPDEST POP GAS CALL SWAP3 POP POP POP DUP1 ISZERO PUSH2 0x20D3 JUMPI POP PUSH1 0x40 MLOAD RETURNDATASIZE PUSH1 0x1F NOT PUSH1 0x1F DUP3 ADD AND DUP3 ADD DUP1 PUSH1 0x40 MSTORE POP DUP2 ADD SWAP1 PUSH2 0x20D0 SWAP2 SWAP1 PUSH2 0x2953 JUMP JUMPDEST PUSH1 0x1 JUMPDEST PUSH2 0x2179 JUMPI PUSH2 0x20DF PUSH2 0x3505 JUMP JUMPDEST DUP1 PUSH4 0x8C379A0 EQ ISZERO PUSH2 0x213C JUMPI POP PUSH2 0x20F4 PUSH2 0x3A67 JUMP JUMPDEST DUP1 PUSH2 0x20FF JUMPI POP PUSH2 0x213E JUMP JUMPDEST DUP1 PUSH1 0x40 MLOAD PUSH32 0x8C379A000000000000000000000000000000000000000000000000000000000 DUP2 MSTORE PUSH1 0x4 ADD PUSH2 0x2133 SWAP2 SWAP1 PUSH2 0x2EBB JUMP JUMPDEST PUSH1 0x40 MLOAD DUP1 SWAP2 SUB SWAP1 REVERT JUMPDEST POP JUMPDEST PUSH1 0x40 MLOAD PUSH32 0x8C379A000000000000000000000000000000000000000000000000000000000 DUP2 MSTORE PUSH1 0x4 ADD PUSH2 0x2170 SWAP1 PUSH2 0x2EDD JUMP JUMPDEST PUSH1 0x40 MLOAD DUP1 SWAP2 SUB SWAP1 REVERT JUMPDEST PUSH4 0xF23A6E61 PUSH1 0xE0 SHL PUSH28 0xFFFFFFFFFFFFFFFFFFFFFFFFFFFFFFFFFFFFFFFFFFFFFFFFFFFFFFFF NOT AND DUP2 PUSH28 0xFFFFFFFFFFFFFFFFFFFFFFFFFFFFFFFFFFFFFFFFFFFFFFFFFFFFFFFF NOT AND EQ PUSH2 0x2200 JUMPI PUSH1 0x40 MLOAD PUSH32 0x8C379A000000000000000000000000000000000000000000000000000000000 DUP2 MSTORE PUSH1 0x4 ADD PUSH2 0x21F7 SWAP1 PUSH2 0x2EFD JUMP JUMPDEST PUSH1 0x40 MLOAD DUP1 SWAP2 SUB SWAP1 REVERT JUMPDEST POP JUMPDEST POP POP POP POP POP POP JUMP JUMPDEST PUSH2 0x2229 DUP5 PUSH20 0xFFFFFFFFFFFFFFFFFFFFFFFFFFFFFFFFFFFFFFFF AND PUSH2 0x102E JUMP JUMPDEST ISZERO PUSH2 0x23E9 JUMPI DUP4 PUSH20 0xFFFFFFFFFFFFFFFFFFFFFFFFFFFFFFFFFFFFFFFF AND PUSH4 0xBC197C81 DUP8 DUP8 DUP7 DUP7 DUP7 PUSH1 0x40 MLOAD DUP7 PUSH4 0xFFFFFFFF AND PUSH1 0xE0 SHL DUP2 MSTORE PUSH1 0x4 ADD PUSH2 0x226F SWAP6 SWAP5 SWAP4 SWAP3 SWAP2 SWAP1 PUSH2 0x2D85 JUMP JUMPDEST PUSH1 0x20 PUSH1 0x40 MLOAD DUP1 DUP4 SUB DUP2 PUSH1 0x0 DUP8 DUP1 EXTCODESIZE ISZERO DUP1 ISZERO PUSH2 0x2289 JUMPI PUSH1 0x0 DUP1 REVERT JUMPDEST POP GAS CALL SWAP3 POP POP POP DUP1 ISZERO PUSH2 0x22BA JUMPI POP PUSH1 0x40 MLOAD RETURNDATASIZE PUSH1 0x1F NOT PUSH1 0x1F DUP3 ADD AND DUP3 ADD DUP1 PUSH1 0x40 MSTORE POP DUP2 ADD SWAP1 PUSH2 0x22B7 SWAP2 SWAP1 PUSH2 0x2953 JUMP JUMPDEST PUSH1 0x1 JUMPDEST PUSH2 0x2360 JUMPI PUSH2 0x22C6 PUSH2 0x3505 JUMP JUMPDEST DUP1 PUSH4 0x8C379A0 EQ ISZERO PUSH2 0x2323 JUMPI POP PUSH2 0x22DB PUSH2 0x3A67 JUMP JUMPDEST DUP1 PUSH2 0x22E6 JUMPI POP PUSH2 0x2325 JUMP JUMPDEST DUP1 PUSH1 0x40 MLOAD PUSH32 0x8C379A000000000000000000000000000000000000000000000000000000000 DUP2 MSTORE PUSH1 0x4 ADD PUSH2 0x231A SWAP2 SWAP1 PUSH2 0x2EBB JUMP JUMPDEST PUSH1 0x40 MLOAD DUP1 SWAP2 SUB SWAP1 REVERT JUMPDEST POP JUMPDEST PUSH1 0x40 MLOAD PUSH32 0x8C379A000000000000000000000000000000000000000000000000000000000 DUP2 MSTORE PUSH1 0x4 ADD PUSH2 0x2357 SWAP1 PUSH2 0x2EDD JUMP JUMPDEST PUSH1 0x40 MLOAD DUP1 SWAP2 SUB SWAP1 REVERT JUMPDEST PUSH4 0xBC197C81 PUSH1 0xE0 SHL PUSH28 0xFFFFFFFFFFFFFFFFFFFFFFFFFFFFFFFFFFFFFFFFFFFFFFFFFFFFFFFF NOT AND DUP2 PUSH28 0xFFFFFFFFFFFFFFFFFFFFFFFFFFFFFFFFFFFFFFFFFFFFFFFFFFFFFFFF NOT AND EQ PUSH2 0x23E7 JUMPI PUSH1 0x40 MLOAD PUSH32 0x8C379A000000000000000000000000000000000000000000000000000000000 DUP2 MSTORE PUSH1 0x4 ADD PUSH2 0x23DE SWAP1 PUSH2 0x2EFD JUMP JUMPDEST PUSH1 0x40 MLOAD DUP1 SWAP2 SUB SWAP1 REVERT JUMPDEST POP JUMPDEST POP POP POP POP POP POP JUMP JUMPDEST PUSH1 0x0 PUSH2 0x2404 PUSH2 0x23FF DUP5 PUSH2 0x31C6 JUMP JUMPDEST PUSH2 0x31A1 JUMP JUMPDEST SWAP1 POP DUP1 DUP4 DUP3 MSTORE PUSH1 0x20 DUP3 ADD SWAP1 POP DUP3 DUP6 PUSH1 0x20 DUP7 MUL DUP3 ADD GT ISZERO PUSH2 0x2423 JUMPI PUSH1 0x0 DUP1 REVERT JUMPDEST PUSH1 0x0 JUMPDEST DUP6 DUP2 LT ISZERO PUSH2 0x2453 JUMPI DUP2 PUSH2 0x2439 DUP9 DUP3 PUSH2 0x2507 JUMP JUMPDEST DUP5 MSTORE PUSH1 0x20 DUP5 ADD SWAP4 POP PUSH1 0x20 DUP4 ADD SWAP3 POP POP PUSH1 0x1 DUP2 ADD SWAP1 POP PUSH2 0x2426 JUMP JUMPDEST POP POP POP SWAP4 SWAP3 POP POP POP JUMP JUMPDEST PUSH1 0x0 PUSH2 0x2470 PUSH2 0x246B DUP5 PUSH2 0x31F2 JUMP JUMPDEST PUSH2 0x31A1 JUMP JUMPDEST SWAP1 POP DUP1 DUP4 DUP3 MSTORE PUSH1 0x20 DUP3 ADD SWAP1 POP DUP3 DUP6 PUSH1 0x20 DUP7 MUL DUP3 ADD GT ISZERO PUSH2 0x248F JUMPI PUSH1 0x0 DUP1 REVERT JUMPDEST PUSH1 0x0 JUMPDEST DUP6 DUP2 LT ISZERO PUSH2 0x24BF JUMPI DUP2 PUSH2 0x24A5 DUP9 DUP3 PUSH2 0x25D9 JUMP JUMPDEST DUP5 MSTORE PUSH1 0x20 DUP5 ADD SWAP4 POP PUSH1 0x20 DUP4 ADD SWAP3 POP POP PUSH1 0x1 DUP2 ADD SWAP1 POP PUSH2 0x2492 JUMP JUMPDEST POP POP POP SWAP4 SWAP3 POP POP POP JUMP JUMPDEST PUSH1 0x0 PUSH2 0x24DC PUSH2 0x24D7 DUP5 PUSH2 0x321E JUMP JUMPDEST PUSH2 0x31A1 JUMP JUMPDEST SWAP1 POP DUP3 DUP2 MSTORE PUSH1 0x20 DUP2 ADD DUP5 DUP5 DUP5 ADD GT ISZERO PUSH2 0x24F4 JUMPI PUSH1 0x0 DUP1 REVERT JUMPDEST PUSH2 0x24FF DUP5 DUP3 DUP6 PUSH2 0x338A JUMP JUMPDEST POP SWAP4 SWAP3 POP POP POP JUMP JUMPDEST PUSH1 0x0 DUP2 CALLDATALOAD SWAP1 POP PUSH2 0x2516 DUP2 PUSH2 0x3AFD JUMP JUMPDEST SWAP3 SWAP2 POP POP JUMP JUMPDEST PUSH1 0x0 DUP3 PUSH1 0x1F DUP4 ADD SLT PUSH2 0x252D JUMPI PUSH1 0x0 DUP1 REVERT JUMPDEST DUP2 CALLDATALOAD PUSH2 0x253D DUP5 DUP3 PUSH1 0x20 DUP7 ADD PUSH2 0x23F1 JUMP JUMPDEST SWAP2 POP POP SWAP3 SWAP2 POP POP JUMP JUMPDEST PUSH1 0x0 DUP3 PUSH1 0x1F DUP4 ADD SLT PUSH2 0x2557 JUMPI PUSH1 0x0 DUP1 REVERT JUMPDEST DUP2 CALLDATALOAD PUSH2 0x2567 DUP5 DUP3 PUSH1 0x20 DUP7 ADD PUSH2 0x245D JUMP JUMPDEST SWAP2 POP POP SWAP3 SWAP2 POP POP JUMP JUMPDEST PUSH1 0x0 DUP2 CALLDATALOAD SWAP1 POP PUSH2 0x257F DUP2 PUSH2 0x3B14 JUMP JUMPDEST SWAP3 SWAP2 POP POP JUMP JUMPDEST PUSH1 0x0 DUP2 CALLDATALOAD SWAP1 POP PUSH2 0x2594 DUP2 PUSH2 0x3B2B JUMP JUMPDEST SWAP3 SWAP2 POP POP JUMP JUMPDEST PUSH1 0x0 DUP2 MLOAD SWAP1 POP PUSH2 0x25A9 DUP2 PUSH2 0x3B2B JUMP JUMPDEST SWAP3 SWAP2 POP POP JUMP JUMPDEST PUSH1 0x0 DUP3 PUSH1 0x1F DUP4 ADD SLT PUSH2 0x25C0 JUMPI PUSH1 0x0 DUP1 REVERT JUMPDEST DUP2 CALLDATALOAD PUSH2 0x25D0 DUP5 DUP3 PUSH1 0x20 DUP7 ADD PUSH2 0x24C9 JUMP JUMPDEST SWAP2 POP POP SWAP3 SWAP2 POP POP JUMP JUMPDEST PUSH1 0x0 DUP2 CALLDATALOAD SWAP1 POP PUSH2 0x25E8 DUP2 PUSH2 0x3B42 JUMP JUMPDEST SWAP3 SWAP2 POP POP JUMP JUMPDEST PUSH1 0x0 DUP1 PUSH1 0x40 DUP4 DUP6 SUB SLT ISZERO PUSH2 0x2601 JUMPI PUSH1 0x0 DUP1 REVERT JUMPDEST PUSH1 0x0 PUSH2 0x260F DUP6 DUP3 DUP7 ADD PUSH2 0x2507 JUMP JUMPDEST SWAP3 POP POP PUSH1 0x20 PUSH2 0x2620 DUP6 DUP3 DUP7 ADD PUSH2 0x2507 JUMP JUMPDEST SWAP2 POP POP SWAP3 POP SWAP3 SWAP1 POP JUMP JUMPDEST PUSH1 0x0 DUP1 PUSH1 0x0 DUP1 PUSH1 0x0 PUSH1 0xA0 DUP7 DUP9 SUB SLT ISZERO PUSH2 0x2642 JUMPI PUSH1 0x0 DUP1 REVERT JUMPDEST PUSH1 0x0 PUSH2 0x2650 DUP9 DUP3 DUP10 ADD PUSH2 0x2507 JUMP JUMPDEST SWAP6 POP POP PUSH1 0x20 PUSH2 0x2661 DUP9 DUP3 DUP10 ADD PUSH2 0x2507 JUMP JUMPDEST SWAP5 POP POP PUSH1 0x40 DUP7 ADD CALLDATALOAD PUSH8 0xFFFFFFFFFFFFFFFF DUP2 GT ISZERO PUSH2 0x267E JUMPI PUSH1 0x0 DUP1 REVERT JUMPDEST PUSH2 0x268A DUP9 DUP3 DUP10 ADD PUSH2 0x2546 JUMP JUMPDEST SWAP4 POP POP PUSH1 0x60 DUP7 ADD CALLDATALOAD PUSH8 0xFFFFFFFFFFFFFFFF DUP2 GT ISZERO PUSH2 0x26A7 JUMPI PUSH1 0x0 DUP1 REVERT JUMPDEST PUSH2 0x26B3 DUP9 DUP3 DUP10 ADD PUSH2 0x2546 JUMP JUMPDEST SWAP3 POP POP PUSH1 0x80 DUP7 ADD CALLDATALOAD PUSH8 0xFFFFFFFFFFFFFFFF DUP2 GT ISZERO PUSH2 0x26D0 JUMPI PUSH1 0x0 DUP1 REVERT JUMPDEST PUSH2 0x26DC DUP9 DUP3 DUP10 ADD PUSH2 0x25AF JUMP JUMPDEST SWAP2 POP POP SWAP3 SWAP6 POP SWAP3 SWAP6 SWAP1 SWAP4 POP JUMP JUMPDEST PUSH1 0x0 DUP1 PUSH1 0x0 DUP1 PUSH1 0x0 PUSH1 0xA0 DUP7 DUP9 SUB SLT ISZERO PUSH2 0x2701 JUMPI PUSH1 0x0 DUP1 REVERT JUMPDEST PUSH1 0x0 PUSH2 0x270F DUP9 DUP3 DUP10 ADD PUSH2 0x2507 JUMP JUMPDEST SWAP6 POP POP PUSH1 0x20 PUSH2 0x2720 DUP9 DUP3 DUP10 ADD PUSH2 0x2507 JUMP JUMPDEST SWAP5 POP POP PUSH1 0x40 PUSH2 0x2731 DUP9 DUP3 DUP10 ADD PUSH2 0x25D9 JUMP JUMPDEST SWAP4 POP POP PUSH1 0x60 PUSH2 0x2742 DUP9 DUP3 DUP10 ADD PUSH2 0x25D9 JUMP JUMPDEST SWAP3 POP POP PUSH1 0x80 DUP7 ADD CALLDATALOAD PUSH8 0xFFFFFFFFFFFFFFFF DUP2 GT ISZERO PUSH2 0x275F JUMPI PUSH1 0x0 DUP1 REVERT JUMPDEST PUSH2 0x276B DUP9 DUP3 DUP10 ADD PUSH2 0x25AF JUMP JUMPDEST SWAP2 POP POP SWAP3 SWAP6 POP SWAP3 SWAP6 SWAP1 SWAP4 POP JUMP JUMPDEST PUSH1 0x0 DUP1 PUSH1 0x0 PUSH1 0x60 DUP5 DUP7 SUB SLT ISZERO PUSH2 0x278D JUMPI PUSH1 0x0 DUP1 REVERT JUMPDEST PUSH1 0x0 PUSH2 0x279B DUP7 DUP3 DUP8 ADD PUSH2 0x2507 JUMP JUMPDEST SWAP4 POP POP PUSH1 0x20 DUP5 ADD CALLDATALOAD PUSH8 0xFFFFFFFFFFFFFFFF DUP2 GT ISZERO PUSH2 0x27B8 JUMPI PUSH1 0x0 DUP1 REVERT JUMPDEST PUSH2 0x27C4 DUP7 DUP3 DUP8 ADD PUSH2 0x2546 JUMP JUMPDEST SWAP3 POP POP PUSH1 0x40 DUP5 ADD CALLDATALOAD PUSH8 0xFFFFFFFFFFFFFFFF DUP2 GT ISZERO PUSH2 0x27E1 JUMPI PUSH1 0x0 DUP1 REVERT JUMPDEST PUSH2 0x27ED DUP7 DUP3 DUP8 ADD PUSH2 0x2546 JUMP JUMPDEST SWAP2 POP POP SWAP3 POP SWAP3 POP SWAP3 JUMP JUMPDEST PUSH1 0x0 DUP1 PUSH1 0x40 DUP4 DUP6 SUB SLT ISZERO PUSH2 0x280A JUMPI PUSH1 0x0 DUP1 REVERT JUMPDEST PUSH1 0x0 PUSH2 0x2818 DUP6 DUP3 DUP7 ADD PUSH2 0x2507 JUMP JUMPDEST SWAP3 POP POP PUSH1 0x20 PUSH2 0x2829 DUP6 DUP3 DUP7 ADD PUSH2 0x2570 JUMP JUMPDEST SWAP2 POP POP SWAP3 POP SWAP3 SWAP1 POP JUMP JUMPDEST PUSH1 0x0 DUP1 PUSH1 0x40 DUP4 DUP6 SUB SLT ISZERO PUSH2 0x2846 JUMPI PUSH1 0x0 DUP1 REVERT JUMPDEST PUSH1 0x0 PUSH2 0x2854 DUP6 DUP3 DUP7 ADD PUSH2 0x2507 JUMP JUMPDEST SWAP3 POP POP PUSH1 0x20 PUSH2 0x2865 DUP6 DUP3 DUP7 ADD PUSH2 0x25D9 JUMP JUMPDEST SWAP2 POP POP SWAP3 POP SWAP3 SWAP1 POP JUMP JUMPDEST PUSH1 0x0 DUP1 PUSH1 0x0 PUSH1 0x60 DUP5 DUP7 SUB SLT ISZERO PUSH2 0x2884 JUMPI PUSH1 0x0 DUP1 REVERT JUMPDEST PUSH1 0x0 PUSH2 0x2892 DUP7 DUP3 DUP8 ADD PUSH2 0x2507 JUMP JUMPDEST SWAP4 POP POP PUSH1 0x20 PUSH2 0x28A3 DUP7 DUP3 DUP8 ADD PUSH2 0x25D9 JUMP JUMPDEST SWAP3 POP POP PUSH1 0x40 PUSH2 0x28B4 DUP7 DUP3 DUP8 ADD PUSH2 0x25D9 JUMP JUMPDEST SWAP2 POP POP SWAP3 POP SWAP3 POP SWAP3 JUMP JUMPDEST PUSH1 0x0 DUP1 PUSH1 0x40 DUP4 DUP6 SUB SLT ISZERO PUSH2 0x28D1 JUMPI PUSH1 0x0 DUP1 REVERT JUMPDEST PUSH1 0x0 DUP4 ADD CALLDATALOAD PUSH8 0xFFFFFFFFFFFFFFFF DUP2 GT ISZERO PUSH2 0x28EB JUMPI PUSH1 0x0 DUP1 REVERT JUMPDEST PUSH2 0x28F7 DUP6 DUP3 DUP7 ADD PUSH2 0x251C JUMP JUMPDEST SWAP3 POP POP PUSH1 0x20 DUP4 ADD CALLDATALOAD PUSH8 0xFFFFFFFFFFFFFFFF DUP2 GT ISZERO PUSH2 0x2914 JUMPI PUSH1 0x0 DUP1 REVERT JUMPDEST PUSH2 0x2920 DUP6 DUP3 DUP7 ADD PUSH2 0x2546 JUMP JUMPDEST SWAP2 POP POP SWAP3 POP SWAP3 SWAP1 POP JUMP JUMPDEST PUSH1 0x0 PUSH1 0x20 DUP3 DUP5 SUB SLT ISZERO PUSH2 0x293C JUMPI PUSH1 0x0 DUP1 REVERT JUMPDEST PUSH1 0x0 PUSH2 0x294A DUP5 DUP3 DUP6 ADD PUSH2 0x2585 JUMP JUMPDEST SWAP2 POP POP SWAP3 SWAP2 POP POP JUMP JUMPDEST PUSH1 0x0 PUSH1 0x20 DUP3 DUP5 SUB SLT ISZERO PUSH2 0x2965 JUMPI PUSH1 0x0 DUP1 REVERT JUMPDEST PUSH1 0x0 PUSH2 0x2973 DUP5 DUP3 DUP6 ADD PUSH2 0x259A JUMP JUMPDEST SWAP2 POP POP SWAP3 SWAP2 POP POP JUMP JUMPDEST PUSH1 0x0 PUSH1 0x20 DUP3 DUP5 SUB SLT ISZERO PUSH2 0x298E JUMPI PUSH1 0x0 DUP1 REVERT JUMPDEST PUSH1 0x0 PUSH2 0x299C DUP5 DUP3 DUP6 ADD PUSH2 0x25D9 JUMP JUMPDEST SWAP2 POP POP SWAP3 SWAP2 POP POP JUMP JUMPDEST PUSH1 0x0 PUSH2 0x29B1 DUP4 DUP4 PUSH2 0x2D67 JUMP JUMPDEST PUSH1 0x20 DUP4 ADD SWAP1 POP SWAP3 SWAP2 POP POP JUMP JUMPDEST PUSH2 0x29C6 DUP2 PUSH2 0x3316 JUMP JUMPDEST DUP3 MSTORE POP POP JUMP JUMPDEST PUSH1 0x0 PUSH2 0x29D7 DUP3 PUSH2 0x325F JUMP JUMPDEST PUSH2 0x29E1 DUP2 DUP6 PUSH2 0x328D JUMP JUMPDEST SWAP4 POP PUSH2 0x29EC DUP4 PUSH2 0x324F JUMP JUMPDEST DUP1 PUSH1 0x0 JUMPDEST DUP4 DUP2 LT ISZERO PUSH2 0x2A1D JUMPI DUP2 MLOAD PUSH2 0x2A04 DUP9 DUP3 PUSH2 0x29A5 JUMP JUMPDEST SWAP8 POP PUSH2 0x2A0F DUP4 PUSH2 0x3280 JUMP JUMPDEST SWAP3 POP POP PUSH1 0x1 DUP2 ADD SWAP1 POP PUSH2 0x29F0 JUMP JUMPDEST POP DUP6 SWAP4 POP POP POP POP SWAP3 SWAP2 POP POP JUMP JUMPDEST PUSH2 0x2A33 DUP2 PUSH2 0x3328 JUMP JUMPDEST DUP3 MSTORE POP POP JUMP JUMPDEST PUSH1 0x0 PUSH2 0x2A44 DUP3 PUSH2 0x326A JUMP JUMPDEST PUSH2 0x2A4E DUP2 DUP6 PUSH2 0x329E JUMP JUMPDEST SWAP4 POP PUSH2 0x2A5E DUP2 DUP6 PUSH1 0x20 DUP7 ADD PUSH2 0x3399 JUMP JUMPDEST PUSH2 0x2A67 DUP2 PUSH2 0x3527 JUMP JUMPDEST DUP5 ADD SWAP2 POP POP SWAP3 SWAP2 POP POP JUMP JUMPDEST PUSH1 0x0 PUSH2 0x2A7D DUP3 PUSH2 0x3275 JUMP JUMPDEST PUSH2 0x2A87 DUP2 DUP6 PUSH2 0x32AF JUMP JUMPDEST SWAP4 POP PUSH2 0x2A97 DUP2 DUP6 PUSH1 0x20 DUP7 ADD PUSH2 0x3399 JUMP JUMPDEST PUSH2 0x2AA0 DUP2 PUSH2 0x3527 JUMP JUMPDEST DUP5 ADD SWAP2 POP POP SWAP3 SWAP2 POP POP JUMP JUMPDEST PUSH1 0x0 PUSH2 0x2AB8 PUSH1 0x34 DUP4 PUSH2 0x32AF JUMP JUMPDEST SWAP2 POP PUSH2 0x2AC3 DUP3 PUSH2 0x3545 JUMP JUMPDEST PUSH1 0x40 DUP3 ADD SWAP1 POP SWAP2 SWAP1 POP JUMP JUMPDEST PUSH1 0x0 PUSH2 0x2ADB PUSH1 0x28 DUP4 PUSH2 0x32AF JUMP JUMPDEST SWAP2 POP PUSH2 0x2AE6 DUP3 PUSH2 0x3594 JUMP JUMPDEST PUSH1 0x40 DUP3 ADD SWAP1 POP SWAP2 SWAP1 POP JUMP JUMPDEST PUSH1 0x0 PUSH2 0x2AFE PUSH1 0x18 DUP4 PUSH2 0x32AF JUMP JUMPDEST SWAP2 POP PUSH2 0x2B09 DUP3 PUSH2 0x35E3 JUMP JUMPDEST PUSH1 0x20 DUP3 ADD SWAP1 POP SWAP2 SWAP1 POP JUMP JUMPDEST PUSH1 0x0 PUSH2 0x2B21 PUSH1 0x11 DUP4 PUSH2 0x32AF JUMP JUMPDEST SWAP2 POP PUSH2 0x2B2C DUP3 PUSH2 0x360C JUMP JUMPDEST PUSH1 0x20 DUP3 ADD SWAP1 POP SWAP2 SWAP1 POP JUMP JUMPDEST PUSH1 0x0 PUSH2 0x2B44 PUSH1 0x2B DUP4 PUSH2 0x32AF JUMP JUMPDEST SWAP2 POP PUSH2 0x2B4F DUP3 PUSH2 0x3635 JUMP JUMPDEST PUSH1 0x40 DUP3 ADD SWAP1 POP SWAP2 SWAP1 POP JUMP JUMPDEST PUSH1 0x0 PUSH2 0x2B67 PUSH1 0x24 DUP4 PUSH2 0x32AF JUMP JUMPDEST SWAP2 POP PUSH2 0x2B72 DUP3 PUSH2 0x3684 JUMP JUMPDEST PUSH1 0x40 DUP3 ADD SWAP1 POP SWAP2 SWAP1 POP JUMP JUMPDEST PUSH1 0x0 PUSH2 0x2B8A PUSH1 0x18 DUP4 PUSH2 0x32AF JUMP JUMPDEST SWAP2 POP PUSH2 0x2B95 DUP3 PUSH2 0x36D3 JUMP JUMPDEST PUSH1 0x20 DUP3 ADD SWAP1 POP SWAP2 SWAP1 POP JUMP JUMPDEST PUSH1 0x0 PUSH2 0x2BAD PUSH1 0x29 DUP4 PUSH2 0x32AF JUMP JUMPDEST SWAP2 POP PUSH2 0x2BB8 DUP3 PUSH2 0x36FC JUMP JUMPDEST PUSH1 0x40 DUP3 ADD SWAP1 POP SWAP2 SWAP1 POP JUMP JUMPDEST PUSH1 0x0 PUSH2 0x2BD0 PUSH1 0x17 DUP4 PUSH2 0x32AF JUMP JUMPDEST SWAP2 POP PUSH2 0x2BDB DUP3 PUSH2 0x374B JUMP JUMPDEST PUSH1 0x20 DUP3 ADD SWAP1 POP SWAP2 SWAP1 POP JUMP JUMPDEST PUSH1 0x0 PUSH2 0x2BF3 PUSH1 0x25 DUP4 PUSH2 0x32AF JUMP JUMPDEST SWAP2 POP PUSH2 0x2BFE DUP3 PUSH2 0x3774 JUMP JUMPDEST PUSH1 0x40 DUP3 ADD SWAP1 POP SWAP2 SWAP1 POP JUMP JUMPDEST PUSH1 0x0 PUSH2 0x2C16 PUSH1 0x32 DUP4 PUSH2 0x32AF JUMP JUMPDEST SWAP2 POP PUSH2 0x2C21 DUP3 PUSH2 0x37C3 JUMP JUMPDEST PUSH1 0x40 DUP3 ADD SWAP1 POP SWAP2 SWAP1 POP JUMP JUMPDEST PUSH1 0x0 PUSH2 0x2C39 PUSH1 0x16 DUP4 PUSH2 0x32AF JUMP JUMPDEST SWAP2 POP PUSH2 0x2C44 DUP3 PUSH2 0x3812 JUMP JUMPDEST PUSH1 0x20 DUP3 ADD SWAP1 POP SWAP2 SWAP1 POP JUMP JUMPDEST PUSH1 0x0 PUSH2 0x2C5C PUSH1 0x23 DUP4 PUSH2 0x32AF JUMP JUMPDEST SWAP2 POP PUSH2 0x2C67 DUP3 PUSH2 0x383B JUMP JUMPDEST PUSH1 0x40 DUP3 ADD SWAP1 POP SWAP2 SWAP1 POP JUMP JUMPDEST PUSH1 0x0 PUSH2 0x2C7F PUSH1 0x17 DUP4 PUSH2 0x32AF JUMP JUMPDEST SWAP2 POP PUSH2 0x2C8A DUP3 PUSH2 0x388A JUMP JUMPDEST PUSH1 0x20 DUP3 ADD SWAP1 POP SWAP2 SWAP1 POP JUMP JUMPDEST PUSH1 0x0 PUSH2 0x2CA2 PUSH1 0x2A DUP4 PUSH2 0x32AF JUMP JUMPDEST SWAP2 POP PUSH2 0x2CAD DUP3 PUSH2 0x38B3 JUMP JUMPDEST PUSH1 0x40 DUP3 ADD SWAP1 POP SWAP2 SWAP1 POP JUMP JUMPDEST PUSH1 0x0 PUSH2 0x2CC5 PUSH1 0x19 DUP4 PUSH2 0x32AF JUMP JUMPDEST SWAP2 POP PUSH2 0x2CD0 DUP3 PUSH2 0x3902 JUMP JUMPDEST PUSH1 0x20 DUP3 ADD SWAP1 POP SWAP2 SWAP1 POP JUMP JUMPDEST PUSH1 0x0 PUSH2 0x2CE8 PUSH1 0x29 DUP4 PUSH2 0x32AF JUMP JUMPDEST SWAP2 POP PUSH2 0x2CF3 DUP3 PUSH2 0x392B JUMP JUMPDEST PUSH1 0x40 DUP3 ADD SWAP1 POP SWAP2 SWAP1 POP JUMP JUMPDEST PUSH1 0x0 PUSH2 0x2D0B PUSH1 0x29 DUP4 PUSH2 0x32AF JUMP JUMPDEST SWAP2 POP PUSH2 0x2D16 DUP3 PUSH2 0x397A JUMP JUMPDEST PUSH1 0x40 DUP3 ADD SWAP1 POP SWAP2 SWAP1 POP JUMP JUMPDEST PUSH1 0x0 PUSH2 0x2D2E PUSH1 0x28 DUP4 PUSH2 0x32AF JUMP JUMPDEST SWAP2 POP PUSH2 0x2D39 DUP3 PUSH2 0x39C9 JUMP JUMPDEST PUSH1 0x40 DUP3 ADD SWAP1 POP SWAP2 SWAP1 POP JUMP JUMPDEST PUSH1 0x0 PUSH2 0x2D51 PUSH1 0x21 DUP4 PUSH2 0x32AF JUMP JUMPDEST SWAP2 POP PUSH2 0x2D5C DUP3 PUSH2 0x3A18 JUMP JUMPDEST PUSH1 0x40 DUP3 ADD SWAP1 POP SWAP2 SWAP1 POP JUMP JUMPDEST PUSH2 0x2D70 DUP2 PUSH2 0x3380 JUMP JUMPDEST DUP3 MSTORE POP POP JUMP JUMPDEST PUSH2 0x2D7F DUP2 PUSH2 0x3380 JUMP JUMPDEST DUP3 MSTORE POP POP JUMP JUMPDEST PUSH1 0x0 PUSH1 0xA0 DUP3 ADD SWAP1 POP PUSH2 0x2D9A PUSH1 0x0 DUP4 ADD DUP9 PUSH2 0x29BD JUMP JUMPDEST PUSH2 0x2DA7 PUSH1 0x20 DUP4 ADD DUP8 PUSH2 0x29BD JUMP JUMPDEST DUP2 DUP2 SUB PUSH1 0x40 DUP4 ADD MSTORE PUSH2 0x2DB9 DUP2 DUP7 PUSH2 0x29CC JUMP JUMPDEST SWAP1 POP DUP2 DUP2 SUB PUSH1 0x60 DUP4 ADD MSTORE PUSH2 0x2DCD DUP2 DUP6 PUSH2 0x29CC JUMP JUMPDEST SWAP1 POP DUP2 DUP2 SUB PUSH1 0x80 DUP4 ADD MSTORE PUSH2 0x2DE1 DUP2 DUP5 PUSH2 0x2A39 JUMP JUMPDEST SWAP1 POP SWAP7 SWAP6 POP POP POP POP POP POP JUMP JUMPDEST PUSH1 0x0 PUSH1 0xA0 DUP3 ADD SWAP1 POP PUSH2 0x2E02 PUSH1 0x0 DUP4 ADD DUP9 PUSH2 0x29BD JUMP JUMPDEST PUSH2 0x2E0F PUSH1 0x20 DUP4 ADD DUP8 PUSH2 0x29BD JUMP JUMPDEST PUSH2 0x2E1C PUSH1 0x40 DUP4 ADD DUP7 PUSH2 0x2D76 JUMP JUMPDEST PUSH2 0x2E29 PUSH1 0x60 DUP4 ADD DUP6 PUSH2 0x2D76 JUMP JUMPDEST DUP2 DUP2 SUB PUSH1 0x80 DUP4 ADD MSTORE PUSH2 0x2E3B DUP2 DUP5 PUSH2 0x2A39 JUMP JUMPDEST SWAP1 POP SWAP7 SWAP6 POP POP POP POP POP POP JUMP JUMPDEST PUSH1 0x0 PUSH1 0x20 DUP3 ADD SWAP1 POP DUP2 DUP2 SUB PUSH1 0x0 DUP4 ADD MSTORE PUSH2 0x2E61 DUP2 DUP5 PUSH2 0x29CC JUMP JUMPDEST SWAP1 POP SWAP3 SWAP2 POP POP JUMP JUMPDEST PUSH1 0x0 PUSH1 0x40 DUP3 ADD SWAP1 POP DUP2 DUP2 SUB PUSH1 0x0 DUP4 ADD MSTORE PUSH2 0x2E83 DUP2 DUP6 PUSH2 0x29CC JUMP JUMPDEST SWAP1 POP DUP2 DUP2 SUB PUSH1 0x20 DUP4 ADD MSTORE PUSH2 0x2E97 DUP2 DUP5 PUSH2 0x29CC JUMP JUMPDEST SWAP1 POP SWAP4 SWAP3 POP POP POP JUMP JUMPDEST PUSH1 0x0 PUSH1 0x20 DUP3 ADD SWAP1 POP PUSH2 0x2EB5 PUSH1 0x0 DUP4 ADD DUP5 PUSH2 0x2A2A JUMP JUMPDEST SWAP3 SWAP2 POP POP JUMP JUMPDEST PUSH1 0x0 PUSH1 0x20 DUP3 ADD SWAP1 POP DUP2 DUP2 SUB PUSH1 0x0 DUP4 ADD MSTORE PUSH2 0x2ED5 DUP2 DUP5 PUSH2 0x2A72 JUMP JUMPDEST SWAP1 POP SWAP3 SWAP2 POP POP JUMP JUMPDEST PUSH1 0x0 PUSH1 0x20 DUP3 ADD SWAP1 POP DUP2 DUP2 SUB PUSH1 0x0 DUP4 ADD MSTORE PUSH2 0x2EF6 DUP2 PUSH2 0x2AAB JUMP JUMPDEST SWAP1 POP SWAP2 SWAP1 POP JUMP JUMPDEST PUSH1 0x0 PUSH1 0x20 DUP3 ADD SWAP1 POP DUP2 DUP2 SUB PUSH1 0x0 DUP4 ADD MSTORE PUSH2 0x2F16 DUP2 PUSH2 0x2ACE JUMP JUMPDEST SWAP1 POP SWAP2 SWAP1 POP JUMP JUMPDEST PUSH1 0x0 PUSH1 0x20 DUP3 ADD SWAP1 POP DUP2 DUP2 SUB PUSH1 0x0 DUP4 ADD MSTORE PUSH2 0x2F36 DUP2 PUSH2 0x2AF1 JUMP JUMPDEST SWAP1 POP SWAP2 SWAP1 POP JUMP JUMPDEST PUSH1 0x0 PUSH1 0x20 DUP3 ADD SWAP1 POP DUP2 DUP2 SUB PUSH1 0x0 DUP4 ADD MSTORE PUSH2 0x2F56 DUP2 PUSH2 0x2B14 JUMP JUMPDEST SWAP1 POP SWAP2 SWAP1 POP JUMP JUMPDEST PUSH1 0x0 PUSH1 0x20 DUP3 ADD SWAP1 POP DUP2 DUP2 SUB PUSH1 0x0 DUP4 ADD MSTORE PUSH2 0x2F76 DUP2 PUSH2 0x2B37 JUMP JUMPDEST SWAP1 POP SWAP2 SWAP1 POP JUMP JUMPDEST PUSH1 0x0 PUSH1 0x20 DUP3 ADD SWAP1 POP DUP2 DUP2 SUB PUSH1 0x0 DUP4 ADD MSTORE PUSH2 0x2F96 DUP2 PUSH2 0x2B5A JUMP JUMPDEST SWAP1 POP SWAP2 SWAP1 POP JUMP JUMPDEST PUSH1 0x0 PUSH1 0x20 DUP3 ADD SWAP1 POP DUP2 DUP2 SUB PUSH1 0x0 DUP4 ADD MSTORE PUSH2 0x2FB6 DUP2 PUSH2 0x2B7D JUMP JUMPDEST SWAP1 POP SWAP2 SWAP1 POP JUMP JUMPDEST PUSH1 0x0 PUSH1 0x20 DUP3 ADD SWAP1 POP DUP2 DUP2 SUB PUSH1 0x0 DUP4 ADD MSTORE PUSH2 0x2FD6 DUP2 PUSH2 0x2BA0 JUMP JUMPDEST SWAP1 POP SWAP2 SWAP1 POP JUMP JUMPDEST PUSH1 0x0 PUSH1 0x20 DUP3 ADD SWAP1 POP DUP2 DUP2 SUB PUSH1 0x0 DUP4 ADD MSTORE PUSH2 0x2FF6 DUP2 PUSH2 0x2BC3 JUMP JUMPDEST SWAP1 POP SWAP2 SWAP1 POP JUMP JUMPDEST PUSH1 0x0 PUSH1 0x20 DUP3 ADD SWAP1 POP DUP2 DUP2 SUB PUSH1 0x0 DUP4 ADD MSTORE PUSH2 0x3016 DUP2 PUSH2 0x2BE6 JUMP JUMPDEST SWAP1 POP SWAP2 SWAP1 POP JUMP JUMPDEST PUSH1 0x0 PUSH1 0x20 DUP3 ADD SWAP1 POP DUP2 DUP2 SUB PUSH1 0x0 DUP4 ADD MSTORE PUSH2 0x3036 DUP2 PUSH2 0x2C09 JUMP JUMPDEST SWAP1 POP SWAP2 SWAP1 POP JUMP JUMPDEST PUSH1 0x0 PUSH1 0x20 DUP3 ADD SWAP1 POP DUP2 DUP2 SUB PUSH1 0x0 DUP4 ADD MSTORE PUSH2 0x3056 DUP2 PUSH2 0x2C2C JUMP JUMPDEST SWAP1 POP SWAP2 SWAP1 POP JUMP JUMPDEST PUSH1 0x0 PUSH1 0x20 DUP3 ADD SWAP1 POP DUP2 DUP2 SUB PUSH1 0x0 DUP4 ADD MSTORE PUSH2 0x3076 DUP2 PUSH2 0x2C4F JUMP JUMPDEST SWAP1 POP SWAP2 SWAP1 POP JUMP JUMPDEST PUSH1 0x0 PUSH1 0x20 DUP3 ADD SWAP1 POP DUP2 DUP2 SUB PUSH1 0x0 DUP4 ADD MSTORE PUSH2 0x3096 DUP2 PUSH2 0x2C72 JUMP JUMPDEST SWAP1 POP SWAP2 SWAP1 POP JUMP JUMPDEST PUSH1 0x0 PUSH1 0x20 DUP3 ADD SWAP1 POP DUP2 DUP2 SUB PUSH1 0x0 DUP4 ADD MSTORE PUSH2 0x30B6 DUP2 PUSH2 0x2C95 JUMP JUMPDEST SWAP1 POP SWAP2 SWAP1 POP JUMP JUMPDEST PUSH1 0x0 PUSH1 0x20 DUP3 ADD SWAP1 POP DUP2 DUP2 SUB PUSH1 0x0 DUP4 ADD MSTORE PUSH2 0x30D6 DUP2 PUSH2 0x2CB8 JUMP JUMPDEST SWAP1 POP SWAP2 SWAP1 POP JUMP JUMPDEST PUSH1 0x0 PUSH1 0x20 DUP3 ADD SWAP1 POP DUP2 DUP2 SUB PUSH1 0x0 DUP4 ADD MSTORE PUSH2 0x30F6 DUP2 PUSH2 0x2CDB JUMP JUMPDEST SWAP1 POP SWAP2 SWAP1 POP JUMP JUMPDEST PUSH1 0x0 PUSH1 0x20 DUP3 ADD SWAP1 POP DUP2 DUP2 SUB PUSH1 0x0 DUP4 ADD MSTORE PUSH2 0x3116 DUP2 PUSH2 0x2CFE JUMP JUMPDEST SWAP1 POP SWAP2 SWAP1 POP JUMP JUMPDEST PUSH1 0x0 PUSH1 0x20 DUP3 ADD SWAP1 POP DUP2 DUP2 SUB PUSH1 0x0 DUP4 ADD MSTORE PUSH2 0x3136 DUP2 PUSH2 0x2D21 JUMP JUMPDEST SWAP1 POP SWAP2 SWAP1 POP JUMP JUMPDEST PUSH1 0x0 PUSH1 0x20 DUP3 ADD SWAP1 POP DUP2 DUP2 SUB PUSH1 0x0 DUP4 ADD MSTORE PUSH2 0x3156 DUP2 PUSH2 0x2D44 JUMP JUMPDEST SWAP1 POP SWAP2 SWAP1 POP JUMP JUMPDEST PUSH1 0x0 PUSH1 0x20 DUP3 ADD SWAP1 POP PUSH2 0x3172 PUSH1 0x0 DUP4 ADD DUP5 PUSH2 0x2D76 JUMP JUMPDEST SWAP3 SWAP2 POP POP JUMP JUMPDEST PUSH1 0x0 PUSH1 0x40 DUP3 ADD SWAP1 POP PUSH2 0x318D PUSH1 0x0 DUP4 ADD DUP6 PUSH2 0x2D76 JUMP JUMPDEST PUSH2 0x319A PUSH1 0x20 DUP4 ADD DUP5 PUSH2 0x2D76 JUMP JUMPDEST SWAP4 SWAP3 POP POP POP JUMP JUMPDEST PUSH1 0x0 PUSH2 0x31AB PUSH2 0x31BC JUMP JUMPDEST SWAP1 POP PUSH2 0x31B7 DUP3 DUP3 PUSH2 0x33FE JUMP JUMPDEST SWAP2 SWAP1 POP JUMP JUMPDEST PUSH1 0x0 PUSH1 0x40 MLOAD SWAP1 POP SWAP1 JUMP JUMPDEST PUSH1 0x0 PUSH8 0xFFFFFFFFFFFFFFFF DUP3 GT ISZERO PUSH2 0x31E1 JUMPI PUSH2 0x31E0 PUSH2 0x34D6 JUMP JUMPDEST JUMPDEST PUSH1 0x20 DUP3 MUL SWAP1 POP PUSH1 0x20 DUP2 ADD SWAP1 POP SWAP2 SWAP1 POP JUMP JUMPDEST PUSH1 0x0 PUSH8 0xFFFFFFFFFFFFFFFF DUP3 GT ISZERO PUSH2 0x320D JUMPI PUSH2 0x320C PUSH2 0x34D6 JUMP JUMPDEST JUMPDEST PUSH1 0x20 DUP3 MUL SWAP1 POP PUSH1 0x20 DUP2 ADD SWAP1 POP SWAP2 SWAP1 POP JUMP JUMPDEST PUSH1 0x0 PUSH8 0xFFFFFFFFFFFFFFFF DUP3 GT ISZERO PUSH2 0x3239 JUMPI PUSH2 0x3238 PUSH2 0x34D6 JUMP JUMPDEST JUMPDEST PUSH2 0x3242 DUP3 PUSH2 0x3527 JUMP JUMPDEST SWAP1 POP PUSH1 0x20 DUP2 ADD SWAP1 POP SWAP2 SWAP1 POP JUMP JUMPDEST PUSH1 0x0 DUP2 SWAP1 POP PUSH1 0x20 DUP3 ADD SWAP1 POP SWAP2 SWAP1 POP JUMP JUMPDEST PUSH1 0x0 DUP2 MLOAD SWAP1 POP SWAP2 SWAP1 POP JUMP JUMPDEST PUSH1 0x0 DUP2 MLOAD SWAP1 POP SWAP2 SWAP1 POP JUMP JUMPDEST PUSH1 0x0 DUP2 MLOAD SWAP1 POP SWAP2 SWAP1 POP JUMP JUMPDEST PUSH1 0x0 PUSH1 0x20 DUP3 ADD SWAP1 POP SWAP2 SWAP1 POP JUMP JUMPDEST PUSH1 0x0 DUP3 DUP3 MSTORE PUSH1 0x20 DUP3 ADD SWAP1 POP SWAP3 SWAP2 POP POP JUMP JUMPDEST PUSH1 0x0 DUP3 DUP3 MSTORE PUSH1 0x20 DUP3 ADD SWAP1 POP SWAP3 SWAP2 POP POP JUMP JUMPDEST PUSH1 0x0 DUP3 DUP3 MSTORE PUSH1 0x20 DUP3 ADD SWAP1 POP SWAP3 SWAP2 POP POP JUMP JUMPDEST PUSH1 0x0 PUSH2 0x32CB DUP3 PUSH2 0x3380 JUMP JUMPDEST SWAP2 POP PUSH2 0x32D6 DUP4 PUSH2 0x3380 JUMP JUMPDEST SWAP3 POP DUP3 PUSH32 0xFFFFFFFFFFFFFFFFFFFFFFFFFFFFFFFFFFFFFFFFFFFFFFFFFFFFFFFFFFFFFFFF SUB DUP3 GT ISZERO PUSH2 0x330B JUMPI PUSH2 0x330A PUSH2 0x3478 JUMP JUMPDEST JUMPDEST DUP3 DUP3 ADD SWAP1 POP SWAP3 SWAP2 POP POP JUMP JUMPDEST PUSH1 0x0 PUSH2 0x3321 DUP3 PUSH2 0x3360 JUMP JUMPDEST SWAP1 POP SWAP2 SWAP1 POP JUMP JUMPDEST PUSH1 0x0 DUP2 ISZERO ISZERO SWAP1 POP SWAP2 SWAP1 POP JUMP JUMPDEST PUSH1 0x0 PUSH32 0xFFFFFFFF00000000000000000000000000000000000000000000000000000000 DUP3 AND SWAP1 POP SWAP2 SWAP1 POP JUMP JUMPDEST PUSH1 0x0 PUSH20 0xFFFFFFFFFFFFFFFFFFFFFFFFFFFFFFFFFFFFFFFF DUP3 AND SWAP1 POP SWAP2 SWAP1 POP JUMP JUMPDEST PUSH1 0x0 DUP2 SWAP1 POP SWAP2 SWAP1 POP JUMP JUMPDEST DUP3 DUP2 DUP4 CALLDATACOPY PUSH1 0x0 DUP4 DUP4 ADD MSTORE POP POP POP JUMP JUMPDEST PUSH1 0x0 JUMPDEST DUP4 DUP2 LT ISZERO PUSH2 0x33B7 JUMPI DUP1 DUP3 ADD MLOAD DUP2 DUP5 ADD MSTORE PUSH1 0x20 DUP2 ADD SWAP1 POP PUSH2 0x339C JUMP JUMPDEST DUP4 DUP2 GT ISZERO PUSH2 0x33C6 JUMPI PUSH1 0x0 DUP5 DUP5 ADD MSTORE JUMPDEST POP POP POP POP JUMP JUMPDEST PUSH1 0x0 PUSH1 0x2 DUP3 DIV SWAP1 POP PUSH1 0x1 DUP3 AND DUP1 PUSH2 0x33E4 JUMPI PUSH1 0x7F DUP3 AND SWAP2 POP JUMPDEST PUSH1 0x20 DUP3 LT DUP2 EQ ISZERO PUSH2 0x33F8 JUMPI PUSH2 0x33F7 PUSH2 0x34A7 JUMP JUMPDEST JUMPDEST POP SWAP2 SWAP1 POP JUMP JUMPDEST PUSH2 0x3407 DUP3 PUSH2 0x3527 JUMP JUMPDEST DUP2 ADD DUP2 DUP2 LT PUSH8 0xFFFFFFFFFFFFFFFF DUP3 GT OR ISZERO PUSH2 0x3426 JUMPI PUSH2 0x3425 PUSH2 0x34D6 JUMP JUMPDEST JUMPDEST DUP1 PUSH1 0x40 MSTORE POP POP POP JUMP JUMPDEST PUSH1 0x0 PUSH2 0x343A DUP3 PUSH2 0x3380 JUMP JUMPDEST SWAP2 POP PUSH32 0xFFFFFFFFFFFFFFFFFFFFFFFFFFFFFFFFFFFFFFFFFFFFFFFFFFFFFFFFFFFFFFFF DUP3 EQ ISZERO PUSH2 0x346D JUMPI PUSH2 0x346C PUSH2 0x3478 JUMP JUMPDEST JUMPDEST PUSH1 0x1 DUP3 ADD SWAP1 POP SWAP2 SWAP1 POP JUMP JUMPDEST PUSH32 0x4E487B7100000000000000000000000000000000000000000000000000000000 PUSH1 0x0 MSTORE PUSH1 0x11 PUSH1 0x4 MSTORE PUSH1 0x24 PUSH1 0x0 REVERT JUMPDEST PUSH32 0x4E487B7100000000000000000000000000000000000000000000000000000000 PUSH1 0x0 MSTORE PUSH1 0x22 PUSH1 0x4 MSTORE PUSH1 0x24 PUSH1 0x0 REVERT JUMPDEST PUSH32 0x4E487B7100000000000000000000000000000000000000000000000000000000 PUSH1 0x0 MSTORE PUSH1 0x41 PUSH1 0x4 MSTORE PUSH1 0x24 PUSH1 0x0 REVERT JUMPDEST PUSH1 0x0 PUSH1 0x3 RETURNDATASIZE GT ISZERO PUSH2 0x3524 JUMPI PUSH1 0x4 PUSH1 0x0 DUP1 RETURNDATACOPY PUSH2 0x3521 PUSH1 0x0 MLOAD PUSH2 0x3538 JUMP JUMPDEST SWAP1 POP JUMPDEST SWAP1 JUMP JUMPDEST PUSH1 0x0 PUSH1 0x1F NOT PUSH1 0x1F DUP4 ADD AND SWAP1 POP SWAP2 SWAP1 POP JUMP JUMPDEST PUSH1 0x0 DUP2 PUSH1 0xE0 SHR SWAP1 POP SWAP2 SWAP1 POP JUMP JUMPDEST PUSH32 0x455243313135353A207472616E7366657220746F206E6F6E2045524331313535 PUSH1 0x0 DUP3 ADD MSTORE PUSH32 0x526563656976657220696D706C656D656E746572000000000000000000000000 PUSH1 0x20 DUP3 ADD MSTORE POP JUMP JUMPDEST PUSH32 0x455243313135353A204552433131353552656365697665722072656A65637465 PUSH1 0x0 DUP3 ADD MSTORE PUSH32 0x6420746F6B656E73000000000000000000000000000000000000000000000000 PUSH1 0x20 DUP3 ADD MSTORE POP JUMP JUMPDEST PUSH32 0x4E6F7420656E6F75676820677265656E3220746F6B656E210000000000000000 PUSH1 0x0 DUP3 ADD MSTORE POP JUMP JUMPDEST PUSH32 0x6E6F7420656E6F75676820546F6B656E21000000000000000000000000000000 PUSH1 0x0 DUP3 ADD MSTORE POP JUMP JUMPDEST PUSH32 0x455243313135353A2062616C616E636520717565727920666F7220746865207A PUSH1 0x0 DUP3 ADD MSTORE PUSH32 0x65726F2061646472657373000000000000000000000000000000000000000000 PUSH1 0x20 DUP3 ADD MSTORE POP JUMP JUMPDEST PUSH32 0x455243313135353A206275726E20616D6F756E7420657863656564732062616C PUSH1 0x0 DUP3 ADD MSTORE PUSH32 0x616E636500000000000000000000000000000000000000000000000000000000 PUSH1 0x20 DUP3 ADD MSTORE POP JUMP JUMPDEST PUSH32 0x4E6F7420656E6F7567682079656C6C6F7720746F6B656E210000000000000000 PUSH1 0x0 DUP3 ADD MSTORE POP JUMP JUMPDEST PUSH32 0x455243313135353A2063616C6C6572206973206E6F74206F776E6572206E6F72 PUSH1 0x0 DUP3 ADD MSTORE PUSH32 0x20617070726F7665640000000000000000000000000000000000000000000000 PUSH1 0x20 DUP3 ADD MSTORE POP JUMP JUMPDEST PUSH32 0x4E6F7420656E6F75676820626C75653220746F6B656E21000000000000000000 PUSH1 0x0 DUP3 ADD MSTORE POP JUMP JUMPDEST PUSH32 0x455243313135353A207472616E7366657220746F20746865207A65726F206164 PUSH1 0x0 DUP3 ADD MSTORE PUSH32 0x6472657373000000000000000000000000000000000000000000000000000000 PUSH1 0x20 DUP3 ADD MSTORE POP JUMP JUMPDEST PUSH32 0x455243313135353A207472616E736665722063616C6C6572206973206E6F7420 PUSH1 0x0 DUP3 ADD MSTORE PUSH32 0x6F776E6572206E6F7220617070726F7665640000000000000000000000000000 PUSH1 0x20 DUP3 ADD MSTORE POP JUMP JUMPDEST PUSH32 0x4E6F7420656E6F75676820626C756520746F6B656E2100000000000000000000 PUSH1 0x0 DUP3 ADD MSTORE POP JUMP JUMPDEST PUSH32 0x455243313135353A206275726E2066726F6D20746865207A65726F2061646472 PUSH1 0x0 DUP3 ADD MSTORE PUSH32 0x6573730000000000000000000000000000000000000000000000000000000000 PUSH1 0x20 DUP3 ADD MSTORE POP JUMP JUMPDEST PUSH32 0x4E6F7420656E6F75676820677265656E20746F6B656E21000000000000000000 PUSH1 0x0 DUP3 ADD MSTORE POP JUMP JUMPDEST PUSH32 0x455243313135353A20696E73756666696369656E742062616C616E636520666F PUSH1 0x0 DUP3 ADD MSTORE PUSH32 0x72207472616E7366657200000000000000000000000000000000000000000000 PUSH1 0x20 DUP3 ADD MSTORE POP JUMP JUMPDEST PUSH32 0x4E6F7420656E6F7567682079656C6C6F773220746F6B656E2100000000000000 PUSH1 0x0 DUP3 ADD MSTORE POP JUMP JUMPDEST PUSH32 0x455243313135353A2073657474696E6720617070726F76616C20737461747573 PUSH1 0x0 DUP3 ADD MSTORE PUSH32 0x20666F722073656C660000000000000000000000000000000000000000000000 PUSH1 0x20 DUP3 ADD MSTORE POP JUMP JUMPDEST PUSH32 0x455243313135353A206163636F756E747320616E6420696473206C656E677468 PUSH1 0x0 DUP3 ADD MSTORE PUSH32 0x206D69736D617463680000000000000000000000000000000000000000000000 PUSH1 0x20 DUP3 ADD MSTORE POP JUMP JUMPDEST PUSH32 0x455243313135353A2069647320616E6420616D6F756E7473206C656E67746820 PUSH1 0x0 DUP3 ADD MSTORE PUSH32 0x6D69736D61746368000000000000000000000000000000000000000000000000 PUSH1 0x20 DUP3 ADD MSTORE POP JUMP JUMPDEST PUSH32 0x455243313135353A206D696E7420746F20746865207A65726F20616464726573 PUSH1 0x0 DUP3 ADD MSTORE PUSH32 0x7300000000000000000000000000000000000000000000000000000000000000 PUSH1 0x20 DUP3 ADD MSTORE POP JUMP JUMPDEST PUSH1 0x0 PUSH1 0x44 RETURNDATASIZE LT ISZERO PUSH2 0x3A77 JUMPI PUSH2 0x3AFA JUMP JUMPDEST PUSH2 0x3A7F PUSH2 0x31BC JUMP JUMPDEST PUSH1 0x4 RETURNDATASIZE SUB PUSH1 0x4 DUP3 RETURNDATACOPY DUP1 MLOAD RETURNDATASIZE PUSH1 0x24 DUP3 ADD GT PUSH8 0xFFFFFFFFFFFFFFFF DUP3 GT OR ISZERO PUSH2 0x3AA7 JUMPI POP POP PUSH2 0x3AFA JUMP JUMPDEST DUP1 DUP3 ADD DUP1 MLOAD PUSH8 0xFFFFFFFFFFFFFFFF DUP2 GT ISZERO PUSH2 0x3AC5 JUMPI POP POP POP POP PUSH2 0x3AFA JUMP JUMPDEST DUP1 PUSH1 0x20 DUP4 ADD ADD PUSH1 0x4 RETURNDATASIZE SUB DUP6 ADD DUP2 GT ISZERO PUSH2 0x3AE2 JUMPI POP POP POP POP POP PUSH2 0x3AFA JUMP JUMPDEST PUSH2 0x3AF1 DUP3 PUSH1 0x20 ADD DUP6 ADD DUP7 PUSH2 0x33FE JUMP JUMPDEST DUP3 SWAP6 POP POP POP POP POP POP JUMPDEST SWAP1 JUMP JUMPDEST PUSH2 0x3B06 DUP2 PUSH2 0x3316 JUMP JUMPDEST DUP2 EQ PUSH2 0x3B11 JUMPI PUSH1 0x0 DUP1 REVERT JUMPDEST POP JUMP JUMPDEST PUSH2 0x3B1D DUP2 PUSH2 0x3328 JUMP JUMPDEST DUP2 EQ PUSH2 0x3B28 JUMPI PUSH1 0x0 DUP1 REVERT JUMPDEST POP JUMP JUMPDEST PUSH2 0x3B34 DUP2 PUSH2 0x3334 JUMP JUMPDEST DUP2 EQ PUSH2 0x3B3F JUMPI PUSH1 0x0 DUP1 REVERT JUMPDEST POP JUMP JUMPDEST PUSH2 0x3B4B DUP2 PUSH2 0x3380 JUMP JUMPDEST DUP2 EQ PUSH2 0x3B56 JUMPI PUSH1 0x0 DUP1 REVERT JUMPDEST POP JUMP INVALID LOG2 PUSH5 0x6970667358 0x22 SLT KECCAK256 0xAE 0x5C 0xB4 SWAP6 0xB6 DUP14 DIV LT 0xBE DUP11 0xD9 ADDMOD PUSH19 0x6EC01AE93F061195D47277D672D361051FB540 PUSH5 0x736F6C6343 STOP ADDMOD DIV STOP CALLER "
        },
        "methodIdentifiers": {
          "BLUE()": "c011ff64",
          "BLUE2()": "a8aef295",
          "BLUE3()": "72b55221",
          "Blue1to2()": "09c1ba58",
          "Blue2to3()": "e4308a8e",
          "GREEN()": "78ec96a0",
          "GREENL2()": "ec66a231",
          "GREENL3()": "c755e71d",
          "Green1to2()": "79279103",
          "Green2to3()": "de9de0aa",
          "RECYCLER()": "4b7c775d",
          "YELLOW()": "592b18b2",
          "YELLOWL2()": "ea569f05",
          "YELLOWL3()": "494f34bc",
          "Yellow1to2()": "17a88aa5",
          "Yellow2to3()": "a5621da7",
          "balanceOf(address,uint256)": "00fdd58e",
          "balanceOfBatch(address[],uint256[])": "4e1273f4",
          "burn(address,uint256,uint256)": "f5298aca",
          "burnBatch(address,uint256[],uint256[])": "6b20c454",
          "isApprovedForAll(address,address)": "e985e9c5",
          "level_up_to_recycler()": "2311afb1",
          "recycle(uint256)": "dd1c35bc",
          "safeBatchTransferFrom(address,address,uint256[],uint256[],bytes)": "2eb2c2d6",
          "safeTransferFrom(address,address,uint256,uint256,bytes)": "f242432a",
          "setApprovalForAll(address,bool)": "a22cb465",
          "supportsInterface(bytes4)": "01ffc9a7",
          "uri(uint256)": "0e89341c"
        }
      }
    }
  }
}