{
  "_format": "hh-sol-artifact-1",
  "contractName": "GreenItem",
  "sourceName": "contracts/GreenItem.sol",
  "abi": [
    {
      "inputs": [],
      "stateMutability": "nonpayable",
      "type": "constructor"
    },
    {
      "anonymous": false,
      "inputs": [
        {
          "indexed": true,
          "internalType": "address",
          "name": "account",
          "type": "address"
        },
        {
          "indexed": true,
          "internalType": "address",
          "name": "operator",
          "type": "address"
        },
        {
          "indexed": false,
          "internalType": "bool",
          "name": "approved",
          "type": "bool"
        }
      ],
      "name": "ApprovalForAll",
      "type": "event"
    },
    {
      "anonymous": false,
      "inputs": [
        {
          "indexed": true,
          "internalType": "address",
          "name": "operator",
          "type": "address"
        },
        {
          "indexed": true,
          "internalType": "address",
          "name": "from",
          "type": "address"
        },
        {
          "indexed": true,
          "internalType": "address",
          "name": "to",
          "type": "address"
        },
        {
          "indexed": false,
          "internalType": "uint256[]",
          "name": "ids",
          "type": "uint256[]"
        },
        {
          "indexed": false,
          "internalType": "uint256[]",
          "name": "values",
          "type": "uint256[]"
        }
      ],
      "name": "TransferBatch",
      "type": "event"
    },
    {
      "anonymous": false,
      "inputs": [
        {
          "indexed": true,
          "internalType": "address",
          "name": "operator",
          "type": "address"
        },
        {
          "indexed": true,
          "internalType": "address",
          "name": "from",
          "type": "address"
        },
        {
          "indexed": true,
          "internalType": "address",
          "name": "to",
          "type": "address"
        },
        {
          "indexed": false,
          "internalType": "uint256",
          "name": "id",
          "type": "uint256"
        },
        {
          "indexed": false,
          "internalType": "uint256",
          "name": "value",
          "type": "uint256"
        }
      ],
      "name": "TransferSingle",
      "type": "event"
    },
    {
      "anonymous": false,
      "inputs": [
        {
          "indexed": false,
          "internalType": "string",
          "name": "value",
          "type": "string"
        },
        {
          "indexed": true,
          "internalType": "uint256",
          "name": "id",
          "type": "uint256"
        }
      ],
      "name": "URI",
      "type": "event"
    },
    {
      "inputs": [],
      "name": "BLUE",
      "outputs": [
        {
          "internalType": "uint256",
          "name": "",
          "type": "uint256"
        }
      ],
      "stateMutability": "view",
      "type": "function"
    },
    {
      "inputs": [],
      "name": "BLUE2",
      "outputs": [
        {
          "internalType": "uint256",
          "name": "",
          "type": "uint256"
        }
      ],
      "stateMutability": "view",
      "type": "function"
    },
    {
      "inputs": [],
      "name": "BLUE3",
      "outputs": [
        {
          "internalType": "uint256",
          "name": "",
          "type": "uint256"
        }
      ],
      "stateMutability": "view",
      "type": "function"
    },
    {
      "inputs": [],
      "name": "Blue1to2",
      "outputs": [],
      "stateMutability": "nonpayable",
      "type": "function"
    },
    {
      "inputs": [],
      "name": "Blue2to3",
      "outputs": [],
      "stateMutability": "nonpayable",
      "type": "function"
    },
    {
      "inputs": [],
      "name": "GREEN",
      "outputs": [
        {
          "internalType": "uint256",
          "name": "",
          "type": "uint256"
        }
      ],
      "stateMutability": "view",
      "type": "function"
    },
    {
      "inputs": [],
      "name": "GREENL2",
      "outputs": [
        {
          "internalType": "uint256",
          "name": "",
          "type": "uint256"
        }
      ],
      "stateMutability": "view",
      "type": "function"
    },
    {
      "inputs": [],
      "name": "GREENL3",
      "outputs": [
        {
          "internalType": "uint256",
          "name": "",
          "type": "uint256"
        }
      ],
      "stateMutability": "view",
      "type": "function"
    },
    {
      "inputs": [],
      "name": "Green1to2",
      "outputs": [],
      "stateMutability": "nonpayable",
      "type": "function"
    },
    {
      "inputs": [],
      "name": "Green2to3",
      "outputs": [],
      "stateMutability": "nonpayable",
      "type": "function"
    },
    {
      "inputs": [],
      "name": "RECYCLER",
      "outputs": [
        {
          "internalType": "uint256",
          "name": "",
          "type": "uint256"
        }
      ],
      "stateMutability": "view",
      "type": "function"
    },
    {
      "inputs": [],
      "name": "YELLOW",
      "outputs": [
        {
          "internalType": "uint256",
          "name": "",
          "type": "uint256"
        }
      ],
      "stateMutability": "view",
      "type": "function"
    },
    {
      "inputs": [],
      "name": "YELLOWL2",
      "outputs": [
        {
          "internalType": "uint256",
          "name": "",
          "type": "uint256"
        }
      ],
      "stateMutability": "view",
      "type": "function"
    },
    {
      "inputs": [],
      "name": "YELLOWL3",
      "outputs": [
        {
          "internalType": "uint256",
          "name": "",
          "type": "uint256"
        }
      ],
      "stateMutability": "view",
      "type": "function"
    },
    {
      "inputs": [],
      "name": "Yellow1to2",
      "outputs": [],
      "stateMutability": "nonpayable",
      "type": "function"
    },
    {
      "inputs": [],
      "name": "Yellow2to3",
      "outputs": [],
      "stateMutability": "nonpayable",
      "type": "function"
    },
    {
      "inputs": [
        {
          "internalType": "address",
          "name": "account",
          "type": "address"
        },
        {
          "internalType": "uint256",
          "name": "id",
          "type": "uint256"
        }
      ],
      "name": "balanceOf",
      "outputs": [
        {
          "internalType": "uint256",
          "name": "",
          "type": "uint256"
        }
      ],
      "stateMutability": "view",
      "type": "function"
    },
    {
      "inputs": [
        {
          "internalType": "address[]",
          "name": "accounts",
          "type": "address[]"
        },
        {
          "internalType": "uint256[]",
          "name": "ids",
          "type": "uint256[]"
        }
      ],
      "name": "balanceOfBatch",
      "outputs": [
        {
          "internalType": "uint256[]",
          "name": "",
          "type": "uint256[]"
        }
      ],
      "stateMutability": "view",
      "type": "function"
    },
    {
      "inputs": [
        {
          "internalType": "address",
          "name": "account",
          "type": "address"
        },
        {
          "internalType": "uint256",
          "name": "id",
          "type": "uint256"
        },
        {
          "internalType": "uint256",
          "name": "value",
          "type": "uint256"
        }
      ],
      "name": "burn",
      "outputs": [],
      "stateMutability": "nonpayable",
      "type": "function"
    },
    {
      "inputs": [
        {
          "internalType": "address",
          "name": "account",
          "type": "address"
        },
        {
          "internalType": "uint256[]",
          "name": "ids",
          "type": "uint256[]"
        },
        {
          "internalType": "uint256[]",
          "name": "values",
          "type": "uint256[]"
        }
      ],
      "name": "burnBatch",
      "outputs": [],
      "stateMutability": "nonpayable",
      "type": "function"
    },
    {
      "inputs": [
        {
          "internalType": "address",
          "name": "account",
          "type": "address"
        },
        {
          "internalType": "address",
          "name": "operator",
          "type": "address"
        }
      ],
      "name": "isApprovedForAll",
      "outputs": [
        {
          "internalType": "bool",
          "name": "",
          "type": "bool"
        }
      ],
      "stateMutability": "view",
      "type": "function"
    },
    {
      "inputs": [],
      "name": "level_up_to_recycler",
      "outputs": [],
      "stateMutability": "nonpayable",
      "type": "function"
    },
    {
      "inputs": [
        {
          "internalType": "uint256",
          "name": "process_id",
          "type": "uint256"
        }
      ],
      "name": "recycle",
      "outputs": [],
      "stateMutability": "nonpayable",
      "type": "function"
    },
    {
      "inputs": [
        {
          "internalType": "address",
          "name": "from",
          "type": "address"
        },
        {
          "internalType": "address",
          "name": "to",
          "type": "address"
        },
        {
          "internalType": "uint256[]",
          "name": "ids",
          "type": "uint256[]"
        },
        {
          "internalType": "uint256[]",
          "name": "amounts",
          "type": "uint256[]"
        },
        {
          "internalType": "bytes",
          "name": "data",
          "type": "bytes"
        }
      ],
      "name": "safeBatchTransferFrom",
      "outputs": [],
      "stateMutability": "nonpayable",
      "type": "function"
    },
    {
      "inputs": [
        {
          "internalType": "address",
          "name": "from",
          "type": "address"
        },
        {
          "internalType": "address",
          "name": "to",
          "type": "address"
        },
        {
          "internalType": "uint256",
          "name": "id",
          "type": "uint256"
        },
        {
          "internalType": "uint256",
          "name": "amount",
          "type": "uint256"
        },
        {
          "internalType": "bytes",
          "name": "data",
          "type": "bytes"
        }
      ],
      "name": "safeTransferFrom",
      "outputs": [],
      "stateMutability": "nonpayable",
      "type": "function"
    },
    {
      "inputs": [
        {
          "internalType": "address",
          "name": "operator",
          "type": "address"
        },
        {
          "internalType": "bool",
          "name": "approved",
          "type": "bool"
        }
      ],
      "name": "setApprovalForAll",
      "outputs": [],
      "stateMutability": "nonpayable",
      "type": "function"
    },
    {
      "inputs": [
        {
          "internalType": "bytes4",
          "name": "interfaceId",
          "type": "bytes4"
        }
      ],
      "name": "supportsInterface",
      "outputs": [
        {
          "internalType": "bool",
          "name": "",
          "type": "bool"
        }
      ],
      "stateMutability": "view",
      "type": "function"
    },
    {
      "inputs": [
        {
          "internalType": "uint256",
          "name": "tokenId",
          "type": "uint256"
        }
      ],
      "name": "uri",
      "outputs": [
        {
          "internalType": "string",
          "name": "",
          "type": "string"
        }
      ],
      "stateMutability": "view",
      "type": "function"
    }
  ],
  "bytecode": "0x60806040523480156200001157600080fd5b506040518060400160405280600b81526020017f477265656e4e465420474e00000000000000000000000000000000000000000081525062000059816200048360201b60201c565b5060405180608001604052806059815260200162004d42605991396003600080815260200190815260200160002090805190602001906200009c92919062000995565b5060405180608001604052806059815260200162004e4d6059913960036000600181526020019081526020016000209080519060200190620000e092919062000995565b5060405180608001604052806059815260200162004ce960599139600360006002815260200190815260200160002090805190602001906200012492919062000995565b5060405180608001604052806059815260200162004f5860599139600360006003815260200190815260200160002090805190602001906200016892919062000995565b5060405180608001604052806059815260200162004c906059913960036000600481526020019081526020016000209080519060200190620001ac92919062000995565b5060405180608001604052806059815260200162004fb16059913960036000600581526020019081526020016000209080519060200190620001f092919062000995565b5060405180608001604052806059815260200162004d9b60599139600360006006815260200190815260200160002090805190602001906200023492919062000995565b5060405180608001604052806059815260200162004ea660599139600360006007815260200190815260200160002090805190602001906200027892919062000995565b5060405180608001604052806059815260200162004eff6059913960036000600881526020019081526020016000209080519060200190620002bc92919062000995565b5060405180608001604052806059815260200162004df460599139600360006009815260200190815260200160002090805190602001906200030092919062000995565b5062000327336000612710604051806020016040528060008152506200049f60201b60201c565b6200034d336001612710604051806020016040528060008152506200049f60201b60201c565b62000373336002612710604051806020016040528060008152506200049f60201b60201c565b62000399336003612710604051806020016040528060008152506200049f60201b60201c565b620003bf336004612710604051806020016040528060008152506200049f60201b60201c565b620003e5336005612710604051806020016040528060008152506200049f60201b60201c565b6200040b336006612710604051806020016040528060008152506200049f60201b60201c565b62000431336007612710604051806020016040528060008152506200049f60201b60201c565b62000457336008612710604051806020016040528060008152506200049f60201b60201c565b6200047d336009612710604051806020016040528060008152506200049f60201b60201c565b620010e0565b80600290805190602001906200049b92919062000995565b5050565b600073ffffffffffffffffffffffffffffffffffffffff168473ffffffffffffffffffffffffffffffffffffffff16141562000512576040517f08c379a0000000000000000000000000000000000000000000000000000000008152600401620005099062000c6d565b60405180910390fd5b6000620005246200068760201b60201c565b9050600062000539856200068f60201b60201c565b905060006200054e856200068f60201b60201c565b905062000567836000898585896200075860201b60201c565b8460008088815260200190815260200160002060008973ffffffffffffffffffffffffffffffffffffffff1673ffffffffffffffffffffffffffffffffffffffff1681526020019081526020016000206000828254620005c8919062000cfe565b925050819055508673ffffffffffffffffffffffffffffffffffffffff16600073ffffffffffffffffffffffffffffffffffffffff168473ffffffffffffffffffffffffffffffffffffffff167fc3d58168c5ae7397731d063d5bbf3d657854427343f4c083240f7aacaa2d0f6289896040516200064892919062000c8f565b60405180910390a462000667836000898585896200076060201b60201c565b6200067e836000898989896200076860201b60201c565b50505050505050565b600033905090565b60606000600167ffffffffffffffff811115620006d5577f4e487b7100000000000000000000000000000000000000000000000000000000600052604160045260246000fd5b604051908082528060200260200182016040528015620007045781602001602082028036833780820191505090505b509050828160008151811062000743577f4e487b7100000000000000000000000000000000000000000000000000000000600052603260045260246000fd5b60200260200101818152505080915050919050565b505050505050565b505050505050565b620007948473ffffffffffffffffffffffffffffffffffffffff166200097260201b6200103f1760201c565b156200096a578373ffffffffffffffffffffffffffffffffffffffff1663f23a6e6187878686866040518663ffffffff1660e01b8152600401620007dd95949392919062000ba1565b602060405180830381600087803b158015620007f857600080fd5b505af19250505080156200082c57506040513d601f19601f8201168201806040525081019062000829919062000a5c565b60015b620008de576200083b62000ef4565b806308c379a014156200089f57506200085362001024565b80620008605750620008a1565b806040517f08c379a000000000000000000000000000000000000000000000000000000000815260040162000896919062000c05565b60405180910390fd5b505b6040517f08c379a0000000000000000000000000000000000000000000000000000000008152600401620008d59062000c29565b60405180910390fd5b63f23a6e6160e01b7bffffffffffffffffffffffffffffffffffffffffffffffffffffffff1916817bffffffffffffffffffffffffffffffffffffffffffffffffffffffff19161462000968576040517f08c379a00000000000000000000000000000000000000000000000000000000081526004016200095f9062000c4b565b60405180910390fd5b505b505050505050565b6000808273ffffffffffffffffffffffffffffffffffffffff163b119050919050565b828054620009a39062000dfb565b90600052602060002090601f016020900481019282620009c7576000855562000a13565b82601f10620009e257805160ff191683800117855562000a13565b8280016001018555821562000a13579182015b8281111562000a12578251825591602001919060010190620009f5565b5b50905062000a22919062000a26565b5090565b5b8082111562000a4157600081600090555060010162000a27565b5090565b60008151905062000a5681620010c6565b92915050565b60006020828403121562000a6f57600080fd5b600062000a7f8482850162000a45565b91505092915050565b62000a938162000d5b565b82525050565b600062000aa68262000cc6565b62000ab2818562000cdc565b935062000ac481856020860162000dc5565b62000acf8162000f19565b840191505092915050565b600062000ae78262000cd1565b62000af3818562000ced565b935062000b0581856020860162000dc5565b62000b108162000f19565b840191505092915050565b600062000b2a60348362000ced565b915062000b378262000f37565b604082019050919050565b600062000b5160288362000ced565b915062000b5e8262000f86565b604082019050919050565b600062000b7860218362000ced565b915062000b858262000fd5565b604082019050919050565b62000b9b8162000dbb565b82525050565b600060a08201905062000bb8600083018862000a88565b62000bc7602083018762000a88565b62000bd6604083018662000b90565b62000be5606083018562000b90565b818103608083015262000bf9818462000a99565b90509695505050505050565b6000602082019050818103600083015262000c21818462000ada565b905092915050565b6000602082019050818103600083015262000c448162000b1b565b9050919050565b6000602082019050818103600083015262000c668162000b42565b9050919050565b6000602082019050818103600083015262000c888162000b69565b9050919050565b600060408201905062000ca6600083018562000b90565b62000cb5602083018462000b90565b9392505050565b6000604051905090565b600081519050919050565b600081519050919050565b600082825260208201905092915050565b600082825260208201905092915050565b600062000d0b8262000dbb565b915062000d188362000dbb565b9250827fffffffffffffffffffffffffffffffffffffffffffffffffffffffffffffffff0382111562000d505762000d4f62000e67565b5b828201905092915050565b600062000d688262000d9b565b9050919050565b60007fffffffff0000000000000000000000000000000000000000000000000000000082169050919050565b600073ffffffffffffffffffffffffffffffffffffffff82169050919050565b6000819050919050565b60005b8381101562000de557808201518184015260208101905062000dc8565b8381111562000df5576000848401525b50505050565b6000600282049050600182168062000e1457607f821691505b6020821081141562000e2b5762000e2a62000e96565b5b50919050565b62000e3c8262000f19565b810181811067ffffffffffffffff8211171562000e5e5762000e5d62000ec5565b5b80604052505050565b7f4e487b7100000000000000000000000000000000000000000000000000000000600052601160045260246000fd5b7f4e487b7100000000000000000000000000000000000000000000000000000000600052602260045260246000fd5b7f4e487b7100000000000000000000000000000000000000000000000000000000600052604160045260246000fd5b600060033d111562000f165760046000803e62000f1360005162000f2a565b90505b90565b6000601f19601f8301169050919050565b60008160e01c9050919050565b7f455243313135353a207472616e7366657220746f206e6f6e204552433131353560008201527f526563656976657220696d706c656d656e746572000000000000000000000000602082015250565b7f455243313135353a204552433131353552656365697665722072656a6563746560008201527f6420746f6b656e73000000000000000000000000000000000000000000000000602082015250565b7f455243313135353a206d696e7420746f20746865207a65726f2061646472657360008201527f7300000000000000000000000000000000000000000000000000000000000000602082015250565b600060443d10156200103657620010c3565b6200104062000cbc565b60043d036004823e80513d602482011167ffffffffffffffff821117156200106a575050620010c3565b808201805167ffffffffffffffff8111156200108a5750505050620010c3565b80602083010160043d038501811115620010a9575050505050620010c3565b620010ba8260200185018662000e31565b82955050505050505b90565b620010d18162000d6f565b8114620010dd57600080fd5b50565b613ba080620010f06000396000f3fe608060405234801561001057600080fd5b50600436106101c35760003560e01c806379279103116100f9578063de9de0aa11610097578063ea569f0511610071578063ea569f051461045e578063ec66a2311461047c578063f242432a1461049a578063f5298aca146104b6576101c3565b8063de9de0aa1461041a578063e4308a8e14610424578063e985e9c51461042e576101c3565b8063a8aef295116100d3578063a8aef295146103a4578063c011ff64146103c2578063c755e71d146103e0578063dd1c35bc146103fe576101c3565b80637927910314610374578063a22cb4651461037e578063a5621da71461039a576101c3565b8063494f34bc11610166578063592b18b211610140578063592b18b2146102fe5780636b20c4541461031c57806372b552211461033857806378ec96a014610356576101c3565b8063494f34bc146102925780634b7c775d146102b05780634e1273f4146102ce576101c3565b80630e89341c116101a25780630e89341c1461023257806317a88aa5146102625780632311afb11461026c5780632eb2c2d614610276576101c3565b8062fdd58e146101c857806301ffc9a7146101f857806309c1ba5814610228575b600080fd5b6101e260048036038101906101dd9190612844565b6104d2565b6040516101ef919061316e565b60405180910390f35b610212600480360381019061020d919061293b565b61059b565b60405161021f9190612eb1565b60405180910390f35b61023061067d565b005b61024c6004803603810190610247919061298d565b6106f7565b6040516102599190612ecc565b60405180910390f35b61026a61079c565b005b610274610816565b005b610290600480360381019061028b919061263b565b6108d8565b005b61029a610979565b6040516102a7919061316e565b60405180910390f35b6102b861097e565b6040516102c5919061316e565b60405180910390f35b6102e860048036038101906102e391906128cf565b610983565b6040516102f59190612e58565b60405180910390f35b610306610b34565b604051610313919061316e565b60405180910390f35b61033660048036038101906103319190612789565b610b39565b005b610340610bd6565b60405161034d919061316e565b60405180910390f35b61035e610bdb565b60405161036b919061316e565b60405180910390f35b61037c610be0565b005b61039860048036038101906103939190612808565b610c5a565b005b6103a2610c70565b005b6103ac610cea565b6040516103b9919061316e565b60405180910390f35b6103ca610cef565b6040516103d7919061316e565b60405180910390f35b6103e8610cf4565b6040516103f5919061316e565b60405180910390f35b6104186004803603810190610413919061298d565b610cf9565b005b610422610d70565b005b61042c610dea565b005b610448600480360381019061044391906125ff565b610e63565b6040516104559190612eb1565b60405180910390f35b610466610ef7565b604051610473919061316e565b60405180910390f35b610484610efc565b604051610491919061316e565b60405180910390f35b6104b460048036038101906104af91906126fa565b610f01565b005b6104d060048036038101906104cb9190612880565b610fa2565b005b60008073ffffffffffffffffffffffffffffffffffffffff168373ffffffffffffffffffffffffffffffffffffffff161415610543576040517f08c379a000000000000000000000000000000000000000000000000000000000815260040161053a90612f6e565b60405180910390fd5b60008083815260200190815260200160002060008473ffffffffffffffffffffffffffffffffffffffff1673ffffffffffffffffffffffffffffffffffffffff16815260200190815260200160002054905092915050565b60007fd9b67a26000000000000000000000000000000000000000000000000000000007bffffffffffffffffffffffffffffffffffffffffffffffffffffffff1916827bffffffffffffffffffffffffffffffffffffffffffffffffffffffff1916148061066657507f0e89341c000000000000000000000000000000000000000000000000000000007bffffffffffffffffffffffffffffffffffffffffffffffffffffffff1916827bffffffffffffffffffffffffffffffffffffffffffffffffffffffff1916145b80610676575061067582611062565b5b9050919050565b600561068a3360026104d2565b10156106cb576040517f08c379a00000000000000000000000000000000000000000000000000000000081526004016106c29061304e565b60405180910390fd5b6106d83360026005610fa2565b6106f53360056001604051806020016040528060008152506110cc565b565b6060600360008381526020019081526020016000208054610717906133dd565b80601f0160208091040260200160405190810160405280929190818152602001828054610743906133dd565b80156107905780601f1061076557610100808354040283529160200191610790565b820191906000526020600020905b81548152906001019060200180831161077357829003601f168201915b50505050509050919050565b60056107a93360016104d2565b10156107ea576040517f08c379a00000000000000000000000000000000000000000000000000000000081526004016107e190612fae565b60405180910390fd5b6107f73360016005610fa2565b6108143360046001604051806020016040528060008152506110cc565b565b60056108233360066104d2565b1015801561083c575060056108393360076104d2565b10155b8015610853575060056108503360086104d2565b10155b610892576040517f08c379a000000000000000000000000000000000000000000000000000000000815260040161088990612f4e565b60405180910390fd5b61089f3360066005610fa2565b6108ac3360076005610fa2565b6108b93360086005610fa2565b6108d63360096001604051806020016040528060008152506110cc565b565b6108e061127d565b73ffffffffffffffffffffffffffffffffffffffff168573ffffffffffffffffffffffffffffffffffffffff16148061092657506109258561092061127d565b610e63565b5b610965576040517f08c379a000000000000000000000000000000000000000000000000000000000815260040161095c9061302e565b60405180910390fd5b6109728585858585611285565b5050505050565b600781565b600981565b606081518351146109c9576040517f08c379a00000000000000000000000000000000000000000000000000000000081526004016109c09061310e565b60405180910390fd5b6000835167ffffffffffffffff811115610a0c577f4e487b7100000000000000000000000000000000000000000000000000000000600052604160045260246000fd5b604051908082528060200260200182016040528015610a3a5781602001602082028036833780820191505090505b50905060005b8451811015610b2957610ad3858281518110610a85577f4e487b7100000000000000000000000000000000000000000000000000000000600052603260045260246000fd5b6020026020010151858381518110610ac6577f4e487b7100000000000000000000000000000000000000000000000000000000600052603260045260246000fd5b60200260200101516104d2565b828281518110610b0c577f4e487b7100000000000000000000000000000000000000000000000000000000600052603260045260246000fd5b60200260200101818152505080610b2290613440565b9050610a40565b508091505092915050565b600181565b610b4161127d565b73ffffffffffffffffffffffffffffffffffffffff168373ffffffffffffffffffffffffffffffffffffffff161480610b875750610b8683610b8161127d565b610e63565b5b610bc6576040517f08c379a0000000000000000000000000000000000000000000000000000000008152600401610bbd90612fce565b60405180910390fd5b610bd18383836115f3565b505050565b600881565b600081565b6005610bed3360006104d2565b1015610c2e576040517f08c379a0000000000000000000000000000000000000000000000000000000008152600401610c259061308e565b60405180910390fd5b610c3b3360006005610fa2565b610c583360036001604051806020016040528060008152506110cc565b565b610c6c610c6561127d565b838361190e565b5050565b6005610c7d3360046104d2565b1015610cbe576040517f08c379a0000000000000000000000000000000000000000000000000000000008152600401610cb5906130ce565b60405180910390fd5b610ccb3360046005610fa2565b610ce83360076001604051806020016040528060008152506110cc565b565b600581565b600281565b600681565b6001811415610d2457610d1f3360006001604051806020016040528060008152506110cc565b610d6d565b6002811415610d4e57610d4933600180604051806020016040528060008152506110cc565b610d6c565b610d6b3360026001604051806020016040528060008152506110cc565b5b5b50565b6005610d7d3360036104d2565b1015610dbe576040517f08c379a0000000000000000000000000000000000000000000000000000000008152600401610db590612f2e565b60405180910390fd5b610dcb3360036005610fa2565b610de83360066001604051806020016040528060008152506110cc565b565b6005610df73360056104d2565b1015610e38576040517f08c379a0000000000000000000000000000000000000000000000000000000008152600401610e2f90612fee565b60405180910390fd5b610e4433600580610fa2565b610e613360086001604051806020016040528060008152506110cc565b565b6000600160008473ffffffffffffffffffffffffffffffffffffffff1673ffffffffffffffffffffffffffffffffffffffff16815260200190815260200160002060008373ffffffffffffffffffffffffffffffffffffffff1673ffffffffffffffffffffffffffffffffffffffff16815260200190815260200160002060009054906101000a900460ff16905092915050565b600481565b600381565b610f0961127d565b73ffffffffffffffffffffffffffffffffffffffff168573ffffffffffffffffffffffffffffffffffffffff161480610f4f5750610f4e85610f4961127d565b610e63565b5b610f8e576040517f08c379a0000000000000000000000000000000000000000000000000000000008152600401610f8590612fce565b60405180910390fd5b610f9b8585858585611a7b565b5050505050565b610faa61127d565b73ffffffffffffffffffffffffffffffffffffffff168373ffffffffffffffffffffffffffffffffffffffff161480610ff05750610fef83610fea61127d565b610e63565b5b61102f576040517f08c379a000000000000000000000000000000000000000000000000000000000815260040161102690612fce565b60405180910390fd5b61103a838383611d17565b505050565b6000808273ffffffffffffffffffffffffffffffffffffffff163b119050919050565b60007f01ffc9a7000000000000000000000000000000000000000000000000000000007bffffffffffffffffffffffffffffffffffffffffffffffffffffffff1916827bffffffffffffffffffffffffffffffffffffffffffffffffffffffff1916149050919050565b600073ffffffffffffffffffffffffffffffffffffffff168473ffffffffffffffffffffffffffffffffffffffff16141561113c576040517f08c379a00000000000000000000000000000000000000000000000000000000081526004016111339061314e565b60405180910390fd5b600061114661127d565b9050600061115385611f5e565b9050600061116085611f5e565b905061117183600089858589612024565b8460008088815260200190815260200160002060008973ffffffffffffffffffffffffffffffffffffffff1673ffffffffffffffffffffffffffffffffffffffff16815260200190815260200160002060008282546111d091906132d1565b925050819055508673ffffffffffffffffffffffffffffffffffffffff16600073ffffffffffffffffffffffffffffffffffffffff168473ffffffffffffffffffffffffffffffffffffffff167fc3d58168c5ae7397731d063d5bbf3d657854427343f4c083240f7aacaa2d0f62898960405161124e929190613189565b60405180910390a46112658360008985858961202c565b61127483600089898989612034565b50505050505050565b600033905090565b81518351146112c9576040517f08c379a00000000000000000000000000000000000000000000000000000000081526004016112c09061312e565b60405180910390fd5b600073ffffffffffffffffffffffffffffffffffffffff168473ffffffffffffffffffffffffffffffffffffffff161415611339576040517f08c379a00000000000000000000000000000000000000000000000000000000081526004016113309061300e565b60405180910390fd5b600061134361127d565b9050611353818787878787612024565b60005b845181101561155057600085828151811061139a577f4e487b7100000000000000000000000000000000000000000000000000000000600052603260045260246000fd5b6020026020010151905060008583815181106113df577f4e487b7100000000000000000000000000000000000000000000000000000000600052603260045260246000fd5b60200260200101519050600080600084815260200190815260200160002060008b73ffffffffffffffffffffffffffffffffffffffff1673ffffffffffffffffffffffffffffffffffffffff16815260200190815260200160002054905081811015611480576040517f08c379a0000000000000000000000000000000000000000000000000000000008152600401611477906130ae565b60405180910390fd5b81810360008085815260200190815260200160002060008c73ffffffffffffffffffffffffffffffffffffffff1673ffffffffffffffffffffffffffffffffffffffff168152602001908152602001600020819055508160008085815260200190815260200160002060008b73ffffffffffffffffffffffffffffffffffffffff1673ffffffffffffffffffffffffffffffffffffffff168152602001908152602001600020600082825461153591906132d1565b925050819055505050508061154990613440565b9050611356565b508473ffffffffffffffffffffffffffffffffffffffff168673ffffffffffffffffffffffffffffffffffffffff168273ffffffffffffffffffffffffffffffffffffffff167f4a39dc06d4c0dbc64b70af90fd698a233a518aa5d07e595d983b8c0526c8f7fb87876040516115c7929190612e7a565b60405180910390a46115dd81878787878761202c565b6115eb81878787878761221b565b505050505050565b600073ffffffffffffffffffffffffffffffffffffffff168373ffffffffffffffffffffffffffffffffffffffff161415611663576040517f08c379a000000000000000000000000000000000000000000000000000000000815260040161165a9061306e565b60405180910390fd5b80518251146116a7576040517f08c379a000000000000000000000000000000000000000000000000000000000815260040161169e9061312e565b60405180910390fd5b60006116b161127d565b90506116d181856000868660405180602001604052806000815250612024565b60005b835181101561186a576000848281518110611718577f4e487b7100000000000000000000000000000000000000000000000000000000600052603260045260246000fd5b60200260200101519050600084838151811061175d577f4e487b7100000000000000000000000000000000000000000000000000000000600052603260045260246000fd5b60200260200101519050600080600084815260200190815260200160002060008973ffffffffffffffffffffffffffffffffffffffff1673ffffffffffffffffffffffffffffffffffffffff168152602001908152602001600020549050818110156117fe576040517f08c379a00000000000000000000000000000000000000000000000000000000081526004016117f590612f8e565b60405180910390fd5b81810360008085815260200190815260200160002060008a73ffffffffffffffffffffffffffffffffffffffff1673ffffffffffffffffffffffffffffffffffffffff16815260200190815260200160002081905550505050808061186290613440565b9150506116d4565b50600073ffffffffffffffffffffffffffffffffffffffff168473ffffffffffffffffffffffffffffffffffffffff168273ffffffffffffffffffffffffffffffffffffffff167f4a39dc06d4c0dbc64b70af90fd698a233a518aa5d07e595d983b8c0526c8f7fb86866040516118e2929190612e7a565b60405180910390a46119088185600086866040518060200160405280600081525061202c565b50505050565b8173ffffffffffffffffffffffffffffffffffffffff168373ffffffffffffffffffffffffffffffffffffffff16141561197d576040517f08c379a0000000000000000000000000000000000000000000000000000000008152600401611974906130ee565b60405180910390fd5b80600160008573ffffffffffffffffffffffffffffffffffffffff1673ffffffffffffffffffffffffffffffffffffffff16815260200190815260200160002060008473ffffffffffffffffffffffffffffffffffffffff1673ffffffffffffffffffffffffffffffffffffffff16815260200190815260200160002060006101000a81548160ff0219169083151502179055508173ffffffffffffffffffffffffffffffffffffffff168373ffffffffffffffffffffffffffffffffffffffff167f17307eab39ab6107e8899845ad3d59bd9653f200f220920489ca2b5937696c3183604051611a6e9190612eb1565b60405180910390a3505050565b600073ffffffffffffffffffffffffffffffffffffffff168473ffffffffffffffffffffffffffffffffffffffff161415611aeb576040517f08c379a0000000000000000000000000000000000000000000000000000000008152600401611ae29061300e565b60405180910390fd5b6000611af561127d565b90506000611b0285611f5e565b90506000611b0f85611f5e565b9050611b1f838989858589612024565b600080600088815260200190815260200160002060008a73ffffffffffffffffffffffffffffffffffffffff1673ffffffffffffffffffffffffffffffffffffffff16815260200190815260200160002054905085811015611bb6576040517f08c379a0000000000000000000000000000000000000000000000000000000008152600401611bad906130ae565b60405180910390fd5b85810360008089815260200190815260200160002060008b73ffffffffffffffffffffffffffffffffffffffff1673ffffffffffffffffffffffffffffffffffffffff168152602001908152602001600020819055508560008089815260200190815260200160002060008a73ffffffffffffffffffffffffffffffffffffffff1673ffffffffffffffffffffffffffffffffffffffff1681526020019081526020016000206000828254611c6b91906132d1565b925050819055508773ffffffffffffffffffffffffffffffffffffffff168973ffffffffffffffffffffffffffffffffffffffff168573ffffffffffffffffffffffffffffffffffffffff167fc3d58168c5ae7397731d063d5bbf3d657854427343f4c083240f7aacaa2d0f628a8a604051611ce8929190613189565b60405180910390a4611cfe848a8a86868a61202c565b611d0c848a8a8a8a8a612034565b505050505050505050565b600073ffffffffffffffffffffffffffffffffffffffff168373ffffffffffffffffffffffffffffffffffffffff161415611d87576040517f08c379a0000000000000000000000000000000000000000000000000000000008152600401611d7e9061306e565b60405180910390fd5b6000611d9161127d565b90506000611d9e84611f5e565b90506000611dab84611f5e565b9050611dcb83876000858560405180602001604052806000815250612024565b600080600087815260200190815260200160002060008873ffffffffffffffffffffffffffffffffffffffff1673ffffffffffffffffffffffffffffffffffffffff16815260200190815260200160002054905084811015611e62576040517f08c379a0000000000000000000000000000000000000000000000000000000008152600401611e5990612f8e565b60405180910390fd5b84810360008088815260200190815260200160002060008973ffffffffffffffffffffffffffffffffffffffff1673ffffffffffffffffffffffffffffffffffffffff16815260200190815260200160002081905550600073ffffffffffffffffffffffffffffffffffffffff168773ffffffffffffffffffffffffffffffffffffffff168573ffffffffffffffffffffffffffffffffffffffff167fc3d58168c5ae7397731d063d5bbf3d657854427343f4c083240f7aacaa2d0f628989604051611f2f929190613189565b60405180910390a4611f558488600086866040518060200160405280600081525061202c565b50505050505050565b60606000600167ffffffffffffffff811115611fa3577f4e487b7100000000000000000000000000000000000000000000000000000000600052604160045260246000fd5b604051908082528060200260200182016040528015611fd15781602001602082028036833780820191505090505b509050828160008151811061200f577f4e487b7100000000000000000000000000000000000000000000000000000000600052603260045260246000fd5b60200260200101818152505080915050919050565b505050505050565b505050505050565b6120538473ffffffffffffffffffffffffffffffffffffffff1661103f565b15612213578373ffffffffffffffffffffffffffffffffffffffff1663f23a6e6187878686866040518663ffffffff1660e01b8152600401612099959493929190612dfe565b602060405180830381600087803b1580156120b357600080fd5b505af19250505080156120e457506040513d601f19601f820116820180604052508101906120e19190612964565b60015b61218a576120f0613516565b806308c379a0141561214d5750612105613a78565b80612110575061214f565b806040517f08c379a00000000000000000000000000000000000000000000000000000000081526004016121449190612ecc565b60405180910390fd5b505b6040517f08c379a000000000000000000000000000000000000000000000000000000000815260040161218190612eee565b60405180910390fd5b63f23a6e6160e01b7bffffffffffffffffffffffffffffffffffffffffffffffffffffffff1916817bffffffffffffffffffffffffffffffffffffffffffffffffffffffff191614612211576040517f08c379a000000000000000000000000000000000000000000000000000000000815260040161220890612f0e565b60405180910390fd5b505b505050505050565b61223a8473ffffffffffffffffffffffffffffffffffffffff1661103f565b156123fa578373ffffffffffffffffffffffffffffffffffffffff1663bc197c8187878686866040518663ffffffff1660e01b8152600401612280959493929190612d96565b602060405180830381600087803b15801561229a57600080fd5b505af19250505080156122cb57506040513d601f19601f820116820180604052508101906122c89190612964565b60015b612371576122d7613516565b806308c379a0141561233457506122ec613a78565b806122f75750612336565b806040517f08c379a000000000000000000000000000000000000000000000000000000000815260040161232b9190612ecc565b60405180910390fd5b505b6040517f08c379a000000000000000000000000000000000000000000000000000000000815260040161236890612eee565b60405180910390fd5b63bc197c8160e01b7bffffffffffffffffffffffffffffffffffffffffffffffffffffffff1916817bffffffffffffffffffffffffffffffffffffffffffffffffffffffff1916146123f8576040517f08c379a00000000000000000000000000000000000000000000000000000000081526004016123ef90612f0e565b60405180910390fd5b505b505050505050565b6000612415612410846131d7565b6131b2565b9050808382526020820190508285602086028201111561243457600080fd5b60005b85811015612464578161244a8882612518565b845260208401935060208301925050600181019050612437565b5050509392505050565b600061248161247c84613203565b6131b2565b905080838252602082019050828560208602820111156124a057600080fd5b60005b858110156124d057816124b688826125ea565b8452602084019350602083019250506001810190506124a3565b5050509392505050565b60006124ed6124e88461322f565b6131b2565b90508281526020810184848401111561250557600080fd5b61251084828561339b565b509392505050565b60008135905061252781613b0e565b92915050565b600082601f83011261253e57600080fd5b813561254e848260208601612402565b91505092915050565b600082601f83011261256857600080fd5b813561257884826020860161246e565b91505092915050565b60008135905061259081613b25565b92915050565b6000813590506125a581613b3c565b92915050565b6000815190506125ba81613b3c565b92915050565b600082601f8301126125d157600080fd5b81356125e18482602086016124da565b91505092915050565b6000813590506125f981613b53565b92915050565b6000806040838503121561261257600080fd5b600061262085828601612518565b925050602061263185828601612518565b9150509250929050565b600080600080600060a0868803121561265357600080fd5b600061266188828901612518565b955050602061267288828901612518565b945050604086013567ffffffffffffffff81111561268f57600080fd5b61269b88828901612557565b935050606086013567ffffffffffffffff8111156126b857600080fd5b6126c488828901612557565b925050608086013567ffffffffffffffff8111156126e157600080fd5b6126ed888289016125c0565b9150509295509295909350565b600080600080600060a0868803121561271257600080fd5b600061272088828901612518565b955050602061273188828901612518565b9450506040612742888289016125ea565b9350506060612753888289016125ea565b925050608086013567ffffffffffffffff81111561277057600080fd5b61277c888289016125c0565b9150509295509295909350565b60008060006060848603121561279e57600080fd5b60006127ac86828701612518565b935050602084013567ffffffffffffffff8111156127c957600080fd5b6127d586828701612557565b925050604084013567ffffffffffffffff8111156127f257600080fd5b6127fe86828701612557565b9150509250925092565b6000806040838503121561281b57600080fd5b600061282985828601612518565b925050602061283a85828601612581565b9150509250929050565b6000806040838503121561285757600080fd5b600061286585828601612518565b9250506020612876858286016125ea565b9150509250929050565b60008060006060848603121561289557600080fd5b60006128a386828701612518565b93505060206128b4868287016125ea565b92505060406128c5868287016125ea565b9150509250925092565b600080604083850312156128e257600080fd5b600083013567ffffffffffffffff8111156128fc57600080fd5b6129088582860161252d565b925050602083013567ffffffffffffffff81111561292557600080fd5b61293185828601612557565b9150509250929050565b60006020828403121561294d57600080fd5b600061295b84828501612596565b91505092915050565b60006020828403121561297657600080fd5b6000612984848285016125ab565b91505092915050565b60006020828403121561299f57600080fd5b60006129ad848285016125ea565b91505092915050565b60006129c28383612d78565b60208301905092915050565b6129d781613327565b82525050565b60006129e882613270565b6129f2818561329e565b93506129fd83613260565b8060005b83811015612a2e578151612a1588826129b6565b9750612a2083613291565b925050600181019050612a01565b5085935050505092915050565b612a4481613339565b82525050565b6000612a558261327b565b612a5f81856132af565b9350612a6f8185602086016133aa565b612a7881613538565b840191505092915050565b6000612a8e82613286565b612a9881856132c0565b9350612aa88185602086016133aa565b612ab181613538565b840191505092915050565b6000612ac96034836132c0565b9150612ad482613556565b604082019050919050565b6000612aec6028836132c0565b9150612af7826135a5565b604082019050919050565b6000612b0f6018836132c0565b9150612b1a826135f4565b602082019050919050565b6000612b326011836132c0565b9150612b3d8261361d565b602082019050919050565b6000612b55602b836132c0565b9150612b6082613646565b604082019050919050565b6000612b786024836132c0565b9150612b8382613695565b604082019050919050565b6000612b9b6018836132c0565b9150612ba6826136e4565b602082019050919050565b6000612bbe6029836132c0565b9150612bc98261370d565b604082019050919050565b6000612be16017836132c0565b9150612bec8261375c565b602082019050919050565b6000612c046025836132c0565b9150612c0f82613785565b604082019050919050565b6000612c276032836132c0565b9150612c32826137d4565b604082019050919050565b6000612c4a6016836132c0565b9150612c5582613823565b602082019050919050565b6000612c6d6023836132c0565b9150612c788261384c565b604082019050919050565b6000612c906017836132c0565b9150612c9b8261389b565b602082019050919050565b6000612cb3602a836132c0565b9150612cbe826138c4565b604082019050919050565b6000612cd66019836132c0565b9150612ce182613913565b602082019050919050565b6000612cf96029836132c0565b9150612d048261393c565b604082019050919050565b6000612d1c6029836132c0565b9150612d278261398b565b604082019050919050565b6000612d3f6028836132c0565b9150612d4a826139da565b604082019050919050565b6000612d626021836132c0565b9150612d6d82613a29565b604082019050919050565b612d8181613391565b82525050565b612d9081613391565b82525050565b600060a082019050612dab60008301886129ce565b612db860208301876129ce565b8181036040830152612dca81866129dd565b90508181036060830152612dde81856129dd565b90508181036080830152612df28184612a4a565b90509695505050505050565b600060a082019050612e1360008301886129ce565b612e2060208301876129ce565b612e2d6040830186612d87565b612e3a6060830185612d87565b8181036080830152612e4c8184612a4a565b90509695505050505050565b60006020820190508181036000830152612e7281846129dd565b905092915050565b60006040820190508181036000830152612e9481856129dd565b90508181036020830152612ea881846129dd565b90509392505050565b6000602082019050612ec66000830184612a3b565b92915050565b60006020820190508181036000830152612ee68184612a83565b905092915050565b60006020820190508181036000830152612f0781612abc565b9050919050565b60006020820190508181036000830152612f2781612adf565b9050919050565b60006020820190508181036000830152612f4781612b02565b9050919050565b60006020820190508181036000830152612f6781612b25565b9050919050565b60006020820190508181036000830152612f8781612b48565b9050919050565b60006020820190508181036000830152612fa781612b6b565b9050919050565b60006020820190508181036000830152612fc781612b8e565b9050919050565b60006020820190508181036000830152612fe781612bb1565b9050919050565b6000602082019050818103600083015261300781612bd4565b9050919050565b6000602082019050818103600083015261302781612bf7565b9050919050565b6000602082019050818103600083015261304781612c1a565b9050919050565b6000602082019050818103600083015261306781612c3d565b9050919050565b6000602082019050818103600083015261308781612c60565b9050919050565b600060208201905081810360008301526130a781612c83565b9050919050565b600060208201905081810360008301526130c781612ca6565b9050919050565b600060208201905081810360008301526130e781612cc9565b9050919050565b6000602082019050818103600083015261310781612cec565b9050919050565b6000602082019050818103600083015261312781612d0f565b9050919050565b6000602082019050818103600083015261314781612d32565b9050919050565b6000602082019050818103600083015261316781612d55565b9050919050565b60006020820190506131836000830184612d87565b92915050565b600060408201905061319e6000830185612d87565b6131ab6020830184612d87565b9392505050565b60006131bc6131cd565b90506131c8828261340f565b919050565b6000604051905090565b600067ffffffffffffffff8211156131f2576131f16134e7565b5b602082029050602081019050919050565b600067ffffffffffffffff82111561321e5761321d6134e7565b5b602082029050602081019050919050565b600067ffffffffffffffff82111561324a576132496134e7565b5b61325382613538565b9050602081019050919050565b6000819050602082019050919050565b600081519050919050565b600081519050919050565b600081519050919050565b6000602082019050919050565b600082825260208201905092915050565b600082825260208201905092915050565b600082825260208201905092915050565b60006132dc82613391565b91506132e783613391565b9250827fffffffffffffffffffffffffffffffffffffffffffffffffffffffffffffffff0382111561331c5761331b613489565b5b828201905092915050565b600061333282613371565b9050919050565b60008115159050919050565b60007fffffffff0000000000000000000000000000000000000000000000000000000082169050919050565b600073ffffffffffffffffffffffffffffffffffffffff82169050919050565b6000819050919050565b82818337600083830152505050565b60005b838110156133c85780820151818401526020810190506133ad565b838111156133d7576000848401525b50505050565b600060028204905060018216806133f557607f821691505b60208210811415613409576134086134b8565b5b50919050565b61341882613538565b810181811067ffffffffffffffff82111715613437576134366134e7565b5b80604052505050565b600061344b82613391565b91507fffffffffffffffffffffffffffffffffffffffffffffffffffffffffffffffff82141561347e5761347d613489565b5b600182019050919050565b7f4e487b7100000000000000000000000000000000000000000000000000000000600052601160045260246000fd5b7f4e487b7100000000000000000000000000000000000000000000000000000000600052602260045260246000fd5b7f4e487b7100000000000000000000000000000000000000000000000000000000600052604160045260246000fd5b600060033d11156135355760046000803e613532600051613549565b90505b90565b6000601f19601f8301169050919050565b60008160e01c9050919050565b7f455243313135353a207472616e7366657220746f206e6f6e204552433131353560008201527f526563656976657220696d706c656d656e746572000000000000000000000000602082015250565b7f455243313135353a204552433131353552656365697665722072656a6563746560008201527f6420746f6b656e73000000000000000000000000000000000000000000000000602082015250565b7f4e6f7420656e6f75676820677265656e3220746f6b656e210000000000000000600082015250565b7f6e6f7420656e6f75676820546f6b656e21000000000000000000000000000000600082015250565b7f455243313135353a2062616c616e636520717565727920666f7220746865207a60008201527f65726f2061646472657373000000000000000000000000000000000000000000602082015250565b7f455243313135353a206275726e20616d6f756e7420657863656564732062616c60008201527f616e636500000000000000000000000000000000000000000000000000000000602082015250565b7f4e6f7420656e6f7567682079656c6c6f7720746f6b656e210000000000000000600082015250565b7f455243313135353a2063616c6c6572206973206e6f74206f776e6572206e6f7260008201527f20617070726f7665640000000000000000000000000000000000000000000000602082015250565b7f4e6f7420656e6f75676820626c75653220746f6b656e21000000000000000000600082015250565b7f455243313135353a207472616e7366657220746f20746865207a65726f20616460008201527f6472657373000000000000000000000000000000000000000000000000000000602082015250565b7f455243313135353a207472616e736665722063616c6c6572206973206e6f742060008201527f6f776e6572206e6f7220617070726f7665640000000000000000000000000000602082015250565b7f4e6f7420656e6f75676820626c756520746f6b656e2100000000000000000000600082015250565b7f455243313135353a206275726e2066726f6d20746865207a65726f206164647260008201527f6573730000000000000000000000000000000000000000000000000000000000602082015250565b7f4e6f7420656e6f75676820677265656e20746f6b656e21000000000000000000600082015250565b7f455243313135353a20696e73756666696369656e742062616c616e636520666f60008201527f72207472616e7366657200000000000000000000000000000000000000000000602082015250565b7f4e6f7420656e6f7567682079656c6c6f773220746f6b656e2100000000000000600082015250565b7f455243313135353a2073657474696e6720617070726f76616c2073746174757360008201527f20666f722073656c660000000000000000000000000000000000000000000000602082015250565b7f455243313135353a206163636f756e747320616e6420696473206c656e67746860008201527f206d69736d617463680000000000000000000000000000000000000000000000602082015250565b7f455243313135353a2069647320616e6420616d6f756e7473206c656e6774682060008201527f6d69736d61746368000000000000000000000000000000000000000000000000602082015250565b7f455243313135353a206d696e7420746f20746865207a65726f2061646472657360008201527f7300000000000000000000000000000000000000000000000000000000000000602082015250565b600060443d1015613a8857613b0b565b613a906131cd565b60043d036004823e80513d602482011167ffffffffffffffff82111715613ab8575050613b0b565b808201805167ffffffffffffffff811115613ad65750505050613b0b565b80602083010160043d038501811115613af3575050505050613b0b565b613b028260200185018661340f565b82955050505050505b90565b613b1781613327565b8114613b2257600080fd5b50565b613b2e81613339565b8114613b3957600080fd5b50565b613b4581613345565b8114613b5057600080fd5b50565b613b5c81613391565b8114613b6757600080fd5b5056fea2646970667358221220689a31839a5aa3c18dd2847c9ba4857cd132f84e18299ef6dbadb9ab48d9421f64736f6c6343000804003368747470733a2f2f6261666b72656965367036353235356568783677756374686a6d65776d723574797274326f326976337663376967637263356d71656978777074792e697066732e6e667473746f726167652e6c696e6b2f68747470733a2f2f6261666b726569626e6c7370677371346370776674687a326e70666c6c696f73326669767a7432346c7a67786e343635717965363374646f676d752e697066732e6e667473746f726167652e6c696e6b2f68747470733a2f2f6261666b726569626a3573667176336f636f7a7477733473327365646d7665697266753263616a656a776d6b66766a79767a6262696a7a6a7173342e697066732e6e667473746f726167652e6c696e6b2f68747470733a2f2f6261666b72656966646f76347964717a6d77326b667975686c626a6534666a6777343574346b326e6a6863346e346f7a7a6e63326c746c6965346d2e697066732e6e667473746f726167652e6c696e6b2f68747470733a2f2f6261666b7265696364653566656678707a766c746b6533776974656233776877346c6d36746f62787976797735356d36653235787776756533786d2e697066732e6e667473746f726167652e6c696e6b2f68747470733a2f2f6261666b726569617578786234637670727678776a7937753375787432347835797876756a61626b70646b6b6a776f70346c636466616f336d78712e697066732e6e667473746f726167652e6c696e6b2f68747470733a2f2f6261666b726569656d6a77326d727a626f6f626868756d6c707777686a7a6f706776726a6764696e6664706f6f6d6567636a6b6763627a783278792e697066732e6e667473746f726167652e6c696e6b2f68747470733a2f2f6261666b72656966326b7372366a7a696e6d67766b7364666c7473746765377066637176747061726e706264757a723677346c76763770656c71612e697066732e6e667473746f726167652e6c696e6b2f68747470733a2f2f6261666b72656966326d687a6d7773746e647965627a63357a6b6163656235773276716f643372637878627237676c6d65766c346a687a786f32712e697066732e6e667473746f726167652e6c696e6b2f68747470733a2f2f6261666b72656964696e64717634716b7a777a667663716435336f6b32796e77326236357a34666b7461346162686672797074336633626b706d712e697066732e6e667473746f726167652e6c696e6b2f",
  "linkReferences": {},
  "deployedLinkReferences": {}
}